{
  "address": "0xC832D169225fBAE75f490569f88d86ac764b9186",
  "abi": [
    {
      "inputs": [
        {
          "internalType": "address",
          "name": "_DCAU",
          "type": "address"
        },
        {
          "internalType": "address payable",
          "name": "_feeAddress_",
          "type": "address"
        },
        {
          "internalType": "address",
          "name": "_DRAGON_EQUIPMENT",
          "type": "address"
        }
      ],
      "stateMutability": "nonpayable",
      "type": "constructor"
    },
    {
      "anonymous": false,
      "inputs": [
        {
          "indexed": true,
          "internalType": "address",
          "name": "owner",
          "type": "address"
        },
        {
          "indexed": true,
          "internalType": "address",
          "name": "approved",
          "type": "address"
        },
        {
          "indexed": true,
          "internalType": "uint256",
          "name": "tokenId",
          "type": "uint256"
        }
      ],
      "name": "Approval",
      "type": "event"
    },
    {
      "anonymous": false,
      "inputs": [
        {
          "indexed": true,
          "internalType": "address",
          "name": "owner",
          "type": "address"
        },
        {
          "indexed": true,
          "internalType": "address",
          "name": "operator",
          "type": "address"
        },
        {
          "indexed": false,
          "internalType": "bool",
          "name": "approved",
          "type": "bool"
        }
      ],
      "name": "ApprovalForAll",
      "type": "event"
    },
    {
      "anonymous": false,
      "inputs": [
        {
          "indexed": true,
          "internalType": "address",
          "name": "previousOwner",
          "type": "address"
        },
        {
          "indexed": true,
          "internalType": "address",
          "name": "newOwner",
          "type": "address"
        }
      ],
      "name": "OwnershipTransferred",
      "type": "event"
    },
    {
      "anonymous": false,
      "inputs": [
        {
          "indexed": true,
          "internalType": "address",
          "name": "from",
          "type": "address"
        },
        {
          "indexed": true,
          "internalType": "address",
          "name": "to",
          "type": "address"
        },
        {
          "indexed": true,
          "internalType": "uint256",
          "name": "tokenId",
          "type": "uint256"
        }
      ],
      "name": "Transfer",
      "type": "event"
    },
    {
      "inputs": [],
      "name": "BASE_EXP_TO_LEVEL",
      "outputs": [
        {
          "internalType": "uint256",
          "name": "",
          "type": "uint256"
        }
      ],
      "stateMutability": "view",
      "type": "function"
    },
    {
      "inputs": [],
      "name": "DCAU_TOKEN",
      "outputs": [
        {
          "internalType": "address",
          "name": "",
          "type": "address"
        }
      ],
      "stateMutability": "view",
      "type": "function"
    },
    {
      "inputs": [],
      "name": "DRAGON_EQUIPMENT",
      "outputs": [
        {
          "internalType": "address",
          "name": "",
          "type": "address"
        }
      ],
      "stateMutability": "view",
      "type": "function"
    },
    {
      "inputs": [],
      "name": "HEALTH_MULTIPLIER",
      "outputs": [
        {
          "internalType": "uint256",
          "name": "",
          "type": "uint256"
        }
      ],
      "stateMutability": "view",
      "type": "function"
    },
    {
      "inputs": [],
      "name": "START_EXP",
      "outputs": [
        {
          "internalType": "uint256",
          "name": "",
          "type": "uint256"
        }
      ],
      "stateMutability": "view",
      "type": "function"
    },
    {
      "inputs": [],
      "name": "START_LEVEL",
      "outputs": [
        {
          "internalType": "uint256",
          "name": "",
          "type": "uint256"
        }
      ],
      "stateMutability": "view",
      "type": "function"
    },
    {
      "inputs": [],
      "name": "START_STAT_POINTS",
      "outputs": [
        {
          "internalType": "uint256",
          "name": "",
          "type": "uint256"
        }
      ],
      "stateMutability": "view",
      "type": "function"
    },
    {
      "inputs": [],
      "name": "STAT_POINTS_PER_LEVEL",
      "outputs": [
        {
          "internalType": "uint256",
          "name": "",
          "type": "uint256"
        }
      ],
      "stateMutability": "view",
      "type": "function"
    },
    {
      "inputs": [
        {
          "internalType": "address",
          "name": "toAdd",
          "type": "address"
        }
      ],
      "name": "addAuthorized",
      "outputs": [],
      "stateMutability": "nonpayable",
      "type": "function"
    },
    {
      "inputs": [
        {
          "internalType": "uint256",
          "name": "_playerId",
          "type": "uint256"
        },
        {
          "internalType": "uint256",
          "name": "_body",
          "type": "uint256"
        },
        {
          "internalType": "uint256",
          "name": "_hand1",
          "type": "uint256"
        },
        {
          "internalType": "uint256",
          "name": "_hand2",
          "type": "uint256"
        },
        {
          "internalType": "uint256",
          "name": "_both",
          "type": "uint256"
        }
      ],
      "name": "addEquipment",
      "outputs": [],
      "stateMutability": "nonpayable",
      "type": "function"
    },
    {
      "inputs": [
        {
          "internalType": "uint256",
          "name": "characterId",
          "type": "uint256"
        },
        {
          "internalType": "uint256",
          "name": "experienceAmount",
          "type": "uint256"
        }
      ],
      "name": "addExperience",
      "outputs": [],
      "stateMutability": "nonpayable",
      "type": "function"
    },
    {
      "inputs": [],
      "name": "addSingleResource",
      "outputs": [],
      "stateMutability": "nonpayable",
      "type": "function"
    },
    {
      "inputs": [
        {
          "internalType": "address",
          "name": "to",
          "type": "address"
        },
        {
          "internalType": "uint256",
          "name": "tokenId",
          "type": "uint256"
        }
      ],
      "name": "approve",
      "outputs": [],
      "stateMutability": "nonpayable",
      "type": "function"
    },
    {
      "inputs": [
        {
          "internalType": "address",
          "name": "",
          "type": "address"
        }
      ],
      "name": "authorized",
      "outputs": [
        {
          "internalType": "bool",
          "name": "",
          "type": "bool"
        }
      ],
      "stateMutability": "view",
      "type": "function"
    },
    {
      "inputs": [
        {
          "internalType": "address",
          "name": "owner",
          "type": "address"
        }
      ],
      "name": "balanceOf",
      "outputs": [
        {
          "internalType": "uint256",
          "name": "",
          "type": "uint256"
        }
      ],
      "stateMutability": "view",
      "type": "function"
    },
    {
      "inputs": [],
      "name": "characterPrice",
      "outputs": [
        {
          "internalType": "uint256",
          "name": "",
          "type": "uint256"
        }
      ],
      "stateMutability": "view",
      "type": "function"
    },
    {
      "inputs": [
        {
          "internalType": "uint256",
          "name": "tokenId",
          "type": "uint256"
        }
      ],
      "name": "getApproved",
      "outputs": [
        {
          "internalType": "address",
          "name": "",
          "type": "address"
        }
      ],
      "stateMutability": "view",
      "type": "function"
    },
    {
      "inputs": [
        {
          "internalType": "uint256",
          "name": "characterId",
          "type": "uint256"
        }
      ],
      "name": "heal",
      "outputs": [],
      "stateMutability": "nonpayable",
      "type": "function"
    },
    {
      "inputs": [
        {
          "internalType": "address",
          "name": "owner",
          "type": "address"
        },
        {
          "internalType": "address",
          "name": "operator",
          "type": "address"
        }
      ],
      "name": "isApprovedForAll",
      "outputs": [
        {
          "internalType": "bool",
          "name": "",
          "type": "bool"
        }
      ],
      "stateMutability": "view",
      "type": "function"
    },
    {
      "inputs": [
        {
          "internalType": "string",
          "name": "tokenURI",
          "type": "string"
        },
        {
          "internalType": "uint256",
          "name": "attack",
          "type": "uint256"
        },
        {
          "internalType": "uint256",
          "name": "defense",
          "type": "uint256"
        },
        {
          "internalType": "uint256",
          "name": "speed",
          "type": "uint256"
        },
        {
          "internalType": "uint256",
          "name": "endurance",
          "type": "uint256"
        }
      ],
      "name": "mintCharacter",
      "outputs": [
        {
          "internalType": "uint256",
          "name": "",
          "type": "uint256"
        }
      ],
      "stateMutability": "nonpayable",
      "type": "function"
    },
    {
      "inputs": [],
      "name": "name",
      "outputs": [
        {
          "internalType": "string",
          "name": "",
          "type": "string"
        }
      ],
      "stateMutability": "view",
      "type": "function"
    },
    {
      "inputs": [],
      "name": "owner",
      "outputs": [
        {
          "internalType": "address",
          "name": "",
          "type": "address"
        }
      ],
      "stateMutability": "view",
      "type": "function"
    },
    {
      "inputs": [
        {
          "internalType": "uint256",
          "name": "tokenId",
          "type": "uint256"
        }
      ],
      "name": "ownerOf",
      "outputs": [
        {
          "internalType": "address",
          "name": "",
          "type": "address"
        }
      ],
      "stateMutability": "view",
      "type": "function"
    },
    {
      "inputs": [
        {
          "internalType": "address",
          "name": "toRemove",
          "type": "address"
        }
      ],
      "name": "removeAuthorized",
      "outputs": [],
      "stateMutability": "nonpayable",
      "type": "function"
    },
    {
      "inputs": [],
      "name": "renounceOwnership",
      "outputs": [],
      "stateMutability": "nonpayable",
      "type": "function"
    },
    {
      "inputs": [
        {
          "internalType": "uint256",
          "name": "characterId",
          "type": "uint256"
        }
      ],
      "name": "resurrect",
      "outputs": [],
      "stateMutability": "nonpayable",
      "type": "function"
    },
    {
      "inputs": [
        {
          "internalType": "address",
          "name": "from",
          "type": "address"
        },
        {
          "internalType": "address",
          "name": "to",
          "type": "address"
        },
        {
          "internalType": "uint256",
          "name": "tokenId",
          "type": "uint256"
        }
      ],
      "name": "safeTransferFrom",
      "outputs": [],
      "stateMutability": "nonpayable",
      "type": "function"
    },
    {
      "inputs": [
        {
          "internalType": "address",
          "name": "from",
          "type": "address"
        },
        {
          "internalType": "address",
          "name": "to",
          "type": "address"
        },
        {
          "internalType": "uint256",
          "name": "tokenId",
          "type": "uint256"
        },
        {
          "internalType": "bytes",
          "name": "_data",
          "type": "bytes"
        }
      ],
      "name": "safeTransferFrom",
      "outputs": [],
      "stateMutability": "nonpayable",
      "type": "function"
    },
    {
      "inputs": [
        {
          "internalType": "address",
          "name": "operator",
          "type": "address"
        },
        {
          "internalType": "bool",
          "name": "approved",
          "type": "bool"
        }
      ],
      "name": "setApprovalForAll",
      "outputs": [],
      "stateMutability": "nonpayable",
      "type": "function"
    },
    {
      "inputs": [
        {
          "internalType": "uint256",
          "name": "_price",
          "type": "uint256"
        }
      ],
      "name": "setCharacterPrice",
      "outputs": [],
      "stateMutability": "nonpayable",
      "type": "function"
    },
    {
      "inputs": [
        {
          "internalType": "bytes4",
          "name": "interfaceId",
          "type": "bytes4"
        }
      ],
      "name": "supportsInterface",
      "outputs": [
        {
          "internalType": "bool",
          "name": "",
          "type": "bool"
        }
      ],
      "stateMutability": "view",
      "type": "function"
    },
    {
      "inputs": [],
      "name": "symbol",
      "outputs": [
        {
          "internalType": "string",
          "name": "",
          "type": "string"
        }
      ],
      "stateMutability": "view",
      "type": "function"
    },
    {
      "inputs": [
        {
          "internalType": "uint256",
          "name": "tokenId",
          "type": "uint256"
        }
      ],
      "name": "tokenURI",
      "outputs": [
        {
          "internalType": "string",
          "name": "",
          "type": "string"
        }
      ],
      "stateMutability": "view",
      "type": "function"
    },
    {
      "inputs": [
        {
          "internalType": "address",
          "name": "from",
          "type": "address"
        },
        {
          "internalType": "address",
          "name": "to",
          "type": "address"
        },
        {
          "internalType": "uint256",
          "name": "tokenId",
          "type": "uint256"
        }
      ],
      "name": "transferFrom",
      "outputs": [],
      "stateMutability": "nonpayable",
      "type": "function"
    },
    {
      "inputs": [
        {
          "internalType": "address",
          "name": "newOwner",
          "type": "address"
        }
      ],
      "name": "transferOwnership",
      "outputs": [],
      "stateMutability": "nonpayable",
      "type": "function"
    }
  ],
  "transactionHash": "0x559864dfae0ee3a8f974f5b810be64c9bbf1775342ae25b62eb657decf49d50f",
  "args": [
    "0xF72Cc18218058722a3874b63487F1B4C82F92081",
    "0x6C641CE6A7216F12d28692f9d8b2BDcdE812eD2b",
    "0x900f2c938966468d0a4D481057fc58120d4e2Bfe"
  ],
  "solcInputHash": "42d28277cfe61df6081a7e9fd31a8cf2",
  "bytecode": "0x60c06040526005600c553480156200001657600080fd5b5060405162002e9138038062002e9183398101604081905262000039916200026d565b604080518082018252601781527f447261676f6e20506c617965722043686172616374657200000000000000000060208083019182528351808501909452600384526244504360e81b9084015281519192916200009991600091620001c7565b508051620000af906001906020840190620001c7565b505050620000cc620000c66200017160201b60201c565b62000175565b60016009556001600160a01b03831615801590620000f257506001600160a01b03821615155b80156200010757506001600160a01b03811615155b6200012f5760405162461bcd60e51b81526004016200012690620002c0565b60405180910390fd5b606092831b6001600160601b0319908116608052600b80546001600160a01b0319166001600160a01b03949094169390931790925590911b1660a0526200034d565b3390565b600780546001600160a01b038381166001600160a01b0319831681179093556040519116919082907f8be0079c531659141344cd1fd0a4f28419497f9722a3daafe3b4186f6b6457e090600090a35050565b828054620001d590620002f7565b90600052602060002090601f016020900481019282620001f9576000855562000244565b82601f106200021457805160ff191683800117855562000244565b8280016001018555821562000244579182015b828111156200024457825182559160200191906001019062000227565b506200025292915062000256565b5090565b5b8082111562000252576000815560010162000257565b60008060006060848603121562000282578283fd5b83516200028f8162000334565b6020850151909350620002a28162000334565b6040850151909250620002b58162000334565b809150509250925092565b60208082526014908201527f447261676f6e3a205a45524f5f41444452455353000000000000000000000000604082015260600190565b6002810460018216806200030c57607f821691505b602082108114156200032e57634e487b7160e01b600052602260045260246000fd5b50919050565b6001600160a01b03811681146200034a57600080fd5b50565b60805160601c60a05160601c612b036200038e6000396000818161061401528181610e6c015281816116c801526116ed015260006111d80152612b036000f3fe608060405234801561001057600080fd5b50600436106102115760003560e01c8063715018a611610125578063b9181611116100ad578063dddf54c51161007c578063dddf54c51461040b578063e516920714610413578063e985e9c51461041b578063f2fde38b1461042e578063f37ac61c1461044157610211565b8063b9181611146103ca578063c87b56dd146103dd578063cf1c316a146103f0578063d70675181461040357610211565b80638da5cb5b116100f45780638da5cb5b1461038c57806395d89b4114610394578063a22cb4651461039c578063abdef399146103af578063b88d4fde146103b757610211565b8063715018a614610356578063811c2bab1461035e5780638cacd7a3146103715780638d06470c1461037957610211565b80633d932308116101a8578063504883611161017757806350488361146103025780635d240c581461030a5780636352211e1461031d5780636a60d9ab1461033057806370a082311461034357610211565b80633d932308146102c157806342842e0e146102c9578063485d7d94146102dc5780634d243147146102ef57610211565b80631a045a6a116101e45780631a045a6a1461028957806321b8dc191461029157806323b872dd146102a65780632a655215146102b957610211565b806301ffc9a71461021657806306fdde031461023f578063081812fc14610254578063095ea7b314610274575b600080fd5b6102296102243660046120cc565b610454565b6040516102369190612337565b60405180910390f35b61024761049c565b6040516102369190612342565b610267610262366004612172565b61052e565b60405161023691906122b3565b6102876102823660046120a3565b61057a565b005b610267610612565b610299610636565b6040516102369190612974565b6102876102b4366004611fb5565b61063b565b610299610673565b610299610678565b6102876102d7366004611fb5565b61067d565b6102876102ea366004611f69565b610698565b6102876102fd366004612172565b61070e565b610299610752565b6102876103183660046121a2565b610758565b61026761032b366004612172565b610901565b61029961033e366004612104565b610936565b610299610351366004611f69565b610b33565b610287610b77565b61028761036c366004612172565b610bc2565b610299610c1f565b6102876103873660046121c3565b610c24565b610267610f0c565b610247610f1b565b6102876103aa366004612069565b610f2a565b610299610ff8565b6102876103c5366004611ff0565b610ffe565b6102296103d8366004611f69565b61103d565b6102476103eb366004612172565b611052565b6102876103fe366004611f69565b611173565b610287610bc0565b6102676111d6565b6102996111fa565b610229610429366004611f83565b6111ff565b61028761043c366004611f69565b61122d565b61028761044f366004612172565b61129e565b60006001600160e01b031982166380ac58cd60e01b148061048557506001600160e01b03198216635b5e139f60e01b145b806104945750610494826112ef565b90505b919050565b6060600080546104ab90612a0b565b80601f01602080910402602001604051908101604052809291908181526020018280546104d790612a0b565b80156105245780601f106104f957610100808354040283529160200191610524565b820191906000526020600020905b81548152906001019060200180831161050757829003601f168201915b5050505050905090565b600061053982611308565b61055e5760405162461bcd60e51b81526004016105559061270c565b60405180910390fd5b506000908152600460205260409020546001600160a01b031690565b600061058582610901565b9050806001600160a01b0316836001600160a01b031614156105b95760405162461bcd60e51b815260040161055590612833565b806001600160a01b03166105cb611325565b6001600160a01b031614806105e757506105e781610429611325565b6106035760405162461bcd60e51b81526004016105559061252d565b61060d8383611329565b505050565b7f000000000000000000000000000000000000000000000000000000000000000081565b600c81565b61064c610646611325565b82611397565b6106685760405162461bcd60e51b815260040161055590612874565b61060d838383611414565b600481565b606481565b61060d83838360405180602001604052806000815250610ffe565b6106a0611325565b6001600160a01b03166106b1610f0c565b6001600160a01b0316146106d75760405162461bcd60e51b815260040161055590612758565b6001600160a01b0381163314156106ed57600080fd5b6001600160a01b03166000908152600860205260409020805460ff19169055565b610716611325565b6001600160a01b0316610727610f0c565b6001600160a01b03161461074d5760405162461bcd60e51b815260040161055590612758565b600c55565b6109c481565b3360009081526008602052604090205460ff168061078557503361077a610f0c565b6001600160a01b0316145b61078e57600080fd5b6000828152600d60208181526040808420815161020081018352815481526001820154938101939093526002810154918301919091526003810154606083015260048101546080830152600581015460a0830152600681015460c08301819052600782015460e084015260088201546101008401526009820154610120840152600a820154610140840152600b820154610160840152600c820154610180840152928101546101a0830152600e8101546101c0830152600f015460ff1615156101e08201529190610862906109c4906129a9565b90506000838360a00151610876919061297d565b90508181106108e557600061088b82846129c8565b6000878152600d60205260408120600581018390556006018054929350906108b283612a46565b90915550506000868152600d60205260408120600a018054600492906108d990849061297d565b909155506108fa915050565b6000858152600d602052604090206005018190555b5050505050565b6000818152600260205260408120546001600160a01b0316806104945760405162461bcd60e51b8152600401610555906125d4565b60006002600954141561095b5760405162461bcd60e51b81526004016105559061293d565b6002600955600c828461096e878961297d565b610978919061297d565b610982919061297d565b1461099f5760405162461bcd60e51b815260040161055590612906565b60006109ac6064846129a9565b905060006109ba600a611541565b9050604051806102000160405280888152602001878152602001868152602001858152602001600081526020016000815260200160018152602001838152602001838152602001428152602001600081526020016000815260200160008152602001600081526020016000815260200160011515815250600d6000838152602001908152602001600020600082015181600001556020820151816001015560408201518160020155606082015181600301556080820151816004015560a0820151816005015560c0820151816006015560e082015181600701556101008201518160080155610120820151816009015561014082015181600a015561016082015181600b015561018082015181600c01556101a082015181600d01556101c082015181600e01556101e082015181600f0160006101000a81548160ff021916908315150217905550905050610b0f3382611545565b610b198189611624565b610b23600a611668565b6001600955979650505050505050565b60006001600160a01b038216610b5b5760405162461bcd60e51b81526004016105559061258a565b506001600160a01b031660009081526003602052604090205490565b610b7f611325565b6001600160a01b0316610b90610f0c565b6001600160a01b031614610bb65760405162461bcd60e51b815260040161055590612758565b610bc06000611671565b565b3360009081526008602052604090205460ff1680610bef575033610be4610f0c565b6001600160a01b0316145b610bf857600080fd5b610c018161129e565b6000908152600d60205260409020600f01805460ff19166001179055565b600181565b60026009541415610c475760405162461bcd60e51b81526004016105559061293d565b600260095533610c5686610901565b6001600160a01b031614610c7c5760405162461bcd60e51b8152600401610555906124aa565b610c88848484846116c3565b610ca45760405162461bcd60e51b8152600401610555906128d1565b60408051600480825260a08201909252600091602082016080803683370190505090508481600081518110610ce957634e487b7160e01b600052603260045260246000fd5b6020026020010181815250508381600181518110610d1757634e487b7160e01b600052603260045260246000fd5b6020026020010181815250508281600281518110610d4557634e487b7160e01b600052603260045260246000fd5b6020026020010181815250508181600381518110610d7357634e487b7160e01b600052603260045260246000fd5b602090810291909101015260408051600480825260a08201909252600091816020016020820280368337019050509050600181600381518110610dc657634e487b7160e01b600052603260045260246000fd5b602002602001018181525081600281518110610df257634e487b7160e01b600052603260045260246000fd5b602002602001018181525081600181518110610e1e57634e487b7160e01b600052603260045260246000fd5b602002602001018181525081600081518110610e4a57634e487b7160e01b600052603260045260246000fd5b6020908102919091010152604051631ac8311560e21b81526001600160a01b037f00000000000000000000000000000000000000000000000000000000000000001690636b20c45490610ea590339086908690600401612303565b600060405180830381600087803b158015610ebf57600080fd5b505af1158015610ed3573d6000803e3d6000fd5b50505060009788525050600d60208190526040909620600b81019590955550600c84019290925592820192909255600e01556001600955565b6007546001600160a01b031690565b6060600180546104ab90612a0b565b610f32611325565b6001600160a01b0316826001600160a01b03161415610f635760405162461bcd60e51b815260040161055590612473565b8060056000610f70611325565b6001600160a01b03908116825260208083019390935260409182016000908120918716808252919093529120805460ff191692151592909217909155610fb4611325565b6001600160a01b03167f17307eab39ab6107e8899845ad3d59bd9653f200f220920489ca2b5937696c3183604051610fec9190612337565b60405180910390a35050565b600c5490565b61100f611009611325565b83611397565b61102b5760405162461bcd60e51b815260040161055590612874565b61103784848484611b30565b50505050565b60086020526000908152604090205460ff1681565b606061105d82611308565b6110795760405162461bcd60e51b8152600401610555906126af565b6000828152600660205260408120805461109290612a0b565b80601f01602080910402602001604051908101604052809291908181526020018280546110be90612a0b565b801561110b5780601f106110e05761010080835404028352916020019161110b565b820191906000526020600020905b8154815290600101906020018083116110ee57829003601f168201915b50505050509050600061111c611b63565b905080516000141561113057509050610497565b81511561116257808260405160200161114a929190612284565b60405160208183030381529060405292505050610497565b61116b84611b75565b949350505050565b61117b611325565b6001600160a01b031661118c610f0c565b6001600160a01b0316146111b25760405162461bcd60e51b815260040161055590612758565b6001600160a01b03166000908152600860205260409020805460ff19166001179055565b7f000000000000000000000000000000000000000000000000000000000000000081565b600081565b6001600160a01b03918216600090815260056020908152604080832093909416825291909152205460ff1690565b611235611325565b6001600160a01b0316611246610f0c565b6001600160a01b03161461126c5760405162461bcd60e51b815260040161055590612758565b6001600160a01b0381166112925760405162461bcd60e51b8152600401610555906123b2565b61129b81611671565b50565b3360009081526008602052604090205460ff16806112cb5750336112c0610f0c565b6001600160a01b0316145b6112d457600080fd5b6000908152600d602052604090206008810154600790910155565b6001600160e01b031981166301ffc9a760e01b14919050565b6000908152600260205260409020546001600160a01b0316151590565b3390565b600081815260046020526040902080546001600160a01b0319166001600160a01b038416908117909155819061135e82610901565b6001600160a01b03167f8c5be1e5ebec7d5bd14f71427d1e84f3dd0314c0f7b2291e5b200ac8c7c3b92560405160405180910390a45050565b60006113a282611308565b6113be5760405162461bcd60e51b8152600401610555906124e1565b60006113c983610901565b9050806001600160a01b0316846001600160a01b031614806114045750836001600160a01b03166113f98461052e565b6001600160a01b0316145b8061116b575061116b81856111ff565b826001600160a01b031661142782610901565b6001600160a01b03161461144d5760405162461bcd60e51b81526004016105559061278d565b6001600160a01b0382166114735760405162461bcd60e51b81526004016105559061242f565b61147e83838361060d565b611489600082611329565b6001600160a01b03831660009081526003602052604081208054600192906114b29084906129c8565b90915550506001600160a01b03821660009081526003602052604081208054600192906114e090849061297d565b909155505060008181526002602052604080822080546001600160a01b0319166001600160a01b0386811691821790925591518493918716917fddf252ad1be2c89b69c2b068fc378daa952ba7f163c4a11628f55a4df523b3ef91a4505050565b5490565b6001600160a01b03821661156b5760405162461bcd60e51b81526004016105559061267a565b61157481611308565b156115915760405162461bcd60e51b8152600401610555906123f8565b61159d6000838361060d565b6001600160a01b03821660009081526003602052604081208054600192906115c690849061297d565b909155505060008181526002602052604080822080546001600160a01b0319166001600160a01b03861690811790915590518392907fddf252ad1be2c89b69c2b068fc378daa952ba7f163c4a11628f55a4df523b3ef908290a45050565b61162d82611308565b6116495760405162461bcd60e51b81526004016105559061261d565b6000828152600660209081526040909120825161060d92840190611e49565b80546001019055565b600780546001600160a01b038381166001600160a01b0319831681179093556040519116919082907f8be0079c531659141344cd1fd0a4f28419497f9722a3daafe3b4186f6b6457e090600090a35050565b6000807f0000000000000000000000000000000000000000000000000000000000000000905060007f00000000000000000000000000000000000000000000000000000000000000009050806001600160a01b031663168283056040518163ffffffff1660e01b815260040160206040518083038186803b15801561174757600080fd5b505afa15801561175b573d6000803e3d6000fd5b505050506040513d601f19601f8201168201806040525081019061177f919061218a565b604051631389af5b60e31b81526001600160a01b03841690639c4d7ad8906117ab908b90600401612974565b60206040518083038186803b1580156117c357600080fd5b505afa1580156117d7573d6000803e3d6000fd5b505050506040513d601f19601f820116820180604052508101906117fb91906121fd565b60ff161415806118f95750806001600160a01b0316631fa458fc6040518163ffffffff1660e01b815260040160206040518083038186803b15801561183f57600080fd5b505afa158015611853573d6000803e3d6000fd5b505050506040513d601f19601f82011682018060405250810190611877919061218a565b604051631389af5b60e31b81526001600160a01b03841690639c4d7ad8906118a3908a90600401612974565b60206040518083038186803b1580156118bb57600080fd5b505afa1580156118cf573d6000803e3d6000fd5b505050506040513d601f19601f820116820180604052508101906118f391906121fd565b60ff1614155b806119f25750806001600160a01b031663a7289fde6040518163ffffffff1660e01b815260040160206040518083038186803b15801561193857600080fd5b505afa15801561194c573d6000803e3d6000fd5b505050506040513d601f19601f82011682018060405250810190611970919061218a565b604051631389af5b60e31b81526001600160a01b03841690639c4d7ad89061199c908990600401612974565b60206040518083038186803b1580156119b457600080fd5b505afa1580156119c8573d6000803e3d6000fd5b505050506040513d601f19601f820116820180604052508101906119ec91906121fd565b60ff1614155b80611aeb5750806001600160a01b031663c874c50d6040518163ffffffff1660e01b815260040160206040518083038186803b158015611a3157600080fd5b505afa158015611a45573d6000803e3d6000fd5b505050506040513d601f19601f82011682018060405250810190611a69919061218a565b604051631389af5b60e31b81526001600160a01b03841690639c4d7ad890611a95908890600401612974565b60206040518083038186803b158015611aad57600080fd5b505afa158015611ac1573d6000803e3d6000fd5b505050506040513d601f19601f82011682018060405250810190611ae591906121fd565b60ff1614155b15611afb5760009250505061116b565b85151580611b0857508415155b8015611b1357508315155b15611b235760009250505061116b565b5060019695505050505050565b611b3b848484611414565b611b4784848484611bf8565b6110375760405162461bcd60e51b815260040161055590612355565b60408051602081019091526000815290565b6060611b8082611308565b611b9c5760405162461bcd60e51b8152600401610555906127d6565b6000611ba6611b63565b90506000815111611bc65760405180602001604052806000815250611bf1565b80611bd084611d10565b604051602001611be1929190612284565b6040516020818303038152906040525b9392505050565b6000611c0c846001600160a01b0316611e43565b15611d0857836001600160a01b031663150b7a02611c28611325565b8786866040518563ffffffff1660e01b8152600401611c4a94939291906122c7565b602060405180830381600087803b158015611c6457600080fd5b505af1925050508015611c94575060408051601f3d908101601f19168201909252611c91918101906120e8565b60015b611cee573d808015611cc2576040519150601f19603f3d011682016040523d82523d6000602084013e611cc7565b606091505b508051611ce65760405162461bcd60e51b815260040161055590612355565b805181602001fd5b6001600160e01b031916630a85bd0160e11b14905061116b565b50600161116b565b606081611d3557506040805180820190915260018152600360fc1b6020820152610497565b8160005b8115611d5f5780611d4981612a46565b9150611d589050600a83612995565b9150611d39565b60008167ffffffffffffffff811115611d8857634e487b7160e01b600052604160045260246000fd5b6040519080825280601f01601f191660200182016040528015611db2576020820181803683370190505b5090505b841561116b57611dc76001836129c8565b9150611dd4600a86612a61565b611ddf90603061297d565b60f81b818381518110611e0257634e487b7160e01b600052603260045260246000fd5b60200101907effffffffffffffffffffffffffffffffffffffffffffffffffffffffffffff1916908160001a905350611e3c600a86612995565b9450611db6565b3b151590565b828054611e5590612a0b565b90600052602060002090601f016020900481019282611e775760008555611ebd565b82601f10611e9057805160ff1916838001178555611ebd565b82800160010185558215611ebd579182015b82811115611ebd578251825591602001919060010190611ea2565b50611ec9929150611ecd565b5090565b5b80821115611ec95760008155600101611ece565b600067ffffffffffffffff80841115611efd57611efd612aa1565b604051601f8501601f191681016020018281118282101715611f2157611f21612aa1565b604052848152915081838501861015611f3957600080fd5b8484602083013760006020868301015250509392505050565b80356001600160a01b038116811461049757600080fd5b600060208284031215611f7a578081fd5b611bf182611f52565b60008060408385031215611f95578081fd5b611f9e83611f52565b9150611fac60208401611f52565b90509250929050565b600080600060608486031215611fc9578081fd5b611fd284611f52565b9250611fe060208501611f52565b9150604084013590509250925092565b60008060008060808587031215612005578081fd5b61200e85611f52565b935061201c60208601611f52565b925060408501359150606085013567ffffffffffffffff81111561203e578182fd5b8501601f8101871361204e578182fd5b61205d87823560208401611ee2565b91505092959194509250565b6000806040838503121561207b578182fd5b61208483611f52565b915060208301358015158114612098578182fd5b809150509250929050565b600080604083850312156120b5578182fd5b6120be83611f52565b946020939093013593505050565b6000602082840312156120dd578081fd5b8135611bf181612ab7565b6000602082840312156120f9578081fd5b8151611bf181612ab7565b600080600080600060a0868803121561211b578081fd5b853567ffffffffffffffff811115612131578182fd5b8601601f81018813612141578182fd5b61215088823560208401611ee2565b9860208801359850604088013597606081013597506080013595509350505050565b600060208284031215612183578081fd5b5035919050565b60006020828403121561219b578081fd5b5051919050565b600080604083850312156121b4578182fd5b50508035926020909101359150565b600080600080600060a086880312156121da578283fd5b505083359560208501359550604085013594606081013594506080013592509050565b60006020828403121561220e578081fd5b815160ff81168114611bf1578182fd5b6000815180845260208085019450808401835b8381101561224d57815187529582019590820190600101612231565b509495945050505050565b600081518084526122708160208601602086016129df565b601f01601f19169290920160200192915050565b600083516122968184602088016129df565b8351908301906122aa8183602088016129df565b01949350505050565b6001600160a01b0391909116815260200190565b60006001600160a01b038087168352808616602084015250836040830152608060608301526122f96080830184612258565b9695505050505050565b60006001600160a01b038516825260606020830152612325606083018561221e565b82810360408401526122f9818561221e565b901515815260200190565b600060208252611bf16020830184612258565b60208082526032908201527f4552433732313a207472616e7366657220746f206e6f6e20455243373231526560408201527f63656976657220696d706c656d656e7465720000000000000000000000000000606082015260800190565b60208082526026908201527f4f776e61626c653a206e6577206f776e657220697320746865207a65726f206160408201526564647265737360d01b606082015260800190565b6020808252601c908201527f4552433732313a20746f6b656e20616c7265616479206d696e74656400000000604082015260600190565b60208082526024908201527f4552433732313a207472616e7366657220746f20746865207a65726f206164646040820152637265737360e01b606082015260800190565b60208082526019908201527f4552433732313a20617070726f766520746f2063616c6c657200000000000000604082015260600190565b60208082526011908201527f447261676f6e3a20466f7262696464656e000000000000000000000000000000604082015260600190565b6020808252602c908201527f4552433732313a206f70657261746f7220717565727920666f72206e6f6e657860408201526b34b9ba32b73a103a37b5b2b760a11b606082015260800190565b60208082526038908201527f4552433732313a20617070726f76652063616c6c6572206973206e6f74206f7760408201527f6e6572206e6f7220617070726f76656420666f7220616c6c0000000000000000606082015260800190565b6020808252602a908201527f4552433732313a2062616c616e636520717565727920666f7220746865207a65604082015269726f206164647265737360b01b606082015260800190565b60208082526029908201527f4552433732313a206f776e657220717565727920666f72206e6f6e657869737460408201526832b73a103a37b5b2b760b91b606082015260800190565b6020808252602e908201527f45524337323155524953746f726167653a2055524920736574206f66206e6f6e60408201527f6578697374656e7420746f6b656e000000000000000000000000000000000000606082015260800190565b6020808252818101527f4552433732313a206d696e7420746f20746865207a65726f2061646472657373604082015260600190565b60208082526031908201527f45524337323155524953746f726167653a2055524920717565727920666f722060408201527f6e6f6e6578697374656e7420746f6b656e000000000000000000000000000000606082015260800190565b6020808252602c908201527f4552433732313a20617070726f76656420717565727920666f72206e6f6e657860408201526b34b9ba32b73a103a37b5b2b760a11b606082015260800190565b6020808252818101527f4f776e61626c653a2063616c6c6572206973206e6f7420746865206f776e6572604082015260600190565b60208082526029908201527f4552433732313a207472616e73666572206f6620746f6b656e2074686174206960408201526839903737ba1037bbb760b91b606082015260800190565b6020808252602f908201527f4552433732314d657461646174613a2055524920717565727920666f72206e6f60408201527f6e6578697374656e7420746f6b656e0000000000000000000000000000000000606082015260800190565b60208082526021908201527f4552433732313a20617070726f76616c20746f2063757272656e74206f776e656040820152603960f91b606082015260800190565b60208082526031908201527f4552433732313a207472616e736665722063616c6c6572206973206e6f74206f60408201527f776e6572206e6f7220617070726f766564000000000000000000000000000000606082015260800190565b6020808252818101527f447261676f6e3a20496e76616c6964206974656d20636f6d62696e6174696f6e604082015260600190565b60208082526015908201527f447261676f6e3a20496e76616c69642073746174730000000000000000000000604082015260600190565b6020808252601f908201527f5265656e7472616e637947756172643a207265656e7472616e742063616c6c00604082015260600190565b90815260200190565b6000821982111561299057612990612a75565b500190565b6000826129a4576129a4612a8b565b500490565b60008160001904831182151516156129c3576129c3612a75565b500290565b6000828210156129da576129da612a75565b500390565b60005b838110156129fa5781810151838201526020016129e2565b838111156110375750506000910152565b600281046001821680612a1f57607f821691505b60208210811415612a4057634e487b7160e01b600052602260045260246000fd5b50919050565b6000600019821415612a5a57612a5a612a75565b5060010190565b600082612a7057612a70612a8b565b500690565b634e487b7160e01b600052601160045260246000fd5b634e487b7160e01b600052601260045260246000fd5b634e487b7160e01b600052604160045260246000fd5b6001600160e01b03198116811461129b57600080fdfea2646970667358221220fd2299b09bef7f772ccab1ee3b3dd707c56709e9017a9c8b7bb8b5ab9ccc4bea64736f6c63430008000033",
  "devdoc": {
    "kind": "dev",
    "methods": {
      "approve(address,uint256)": {
        "details": "See {IERC721-approve}."
      },
      "balanceOf(address)": {
        "details": "See {IERC721-balanceOf}."
      },
      "getApproved(uint256)": {
        "details": "See {IERC721-getApproved}."
      },
      "isApprovedForAll(address,address)": {
        "details": "See {IERC721-isApprovedForAll}."
      },
      "name()": {
        "details": "See {IERC721Metadata-name}."
      },
      "owner()": {
        "details": "Returns the address of the current owner."
      },
      "ownerOf(uint256)": {
        "details": "See {IERC721-ownerOf}."
      },
      "renounceOwnership()": {
        "details": "Leaves the contract without owner. It will not be possible to call `onlyOwner` functions anymore. Can only be called by the current owner. NOTE: Renouncing ownership will leave the contract without an owner, thereby removing any functionality that is only available to the owner."
      },
      "safeTransferFrom(address,address,uint256)": {
        "details": "See {IERC721-safeTransferFrom}."
      },
      "safeTransferFrom(address,address,uint256,bytes)": {
        "details": "See {IERC721-safeTransferFrom}."
      },
      "setApprovalForAll(address,bool)": {
        "details": "See {IERC721-setApprovalForAll}."
      },
      "supportsInterface(bytes4)": {
        "details": "See {IERC165-supportsInterface}."
      },
      "symbol()": {
        "details": "See {IERC721Metadata-symbol}."
      },
      "tokenURI(uint256)": {
        "details": "See {IERC721Metadata-tokenURI}."
      },
      "transferFrom(address,address,uint256)": {
        "details": "See {IERC721-transferFrom}."
      },
      "transferOwnership(address)": {
        "details": "Transfers ownership of the contract to a new account (`newOwner`). Can only be called by the current owner."
      }
    },
    "version": 1
  },
  "userdoc": {
    "kind": "user",
    "methods": {},
    "version": 1
  },
  "storageLayout": {
    "storage": [
      {
        "astId": 2462,
        "contract": "contracts/dragon/DragonPlayerCharacter.sol:DragonPlayerCharacter",
        "label": "_name",
        "offset": 0,
        "slot": "0",
        "type": "t_string_storage"
      },
      {
        "astId": 2464,
        "contract": "contracts/dragon/DragonPlayerCharacter.sol:DragonPlayerCharacter",
        "label": "_symbol",
        "offset": 0,
        "slot": "1",
        "type": "t_string_storage"
      },
      {
        "astId": 2468,
        "contract": "contracts/dragon/DragonPlayerCharacter.sol:DragonPlayerCharacter",
        "label": "_owners",
        "offset": 0,
        "slot": "2",
        "type": "t_mapping(t_uint256,t_address)"
      },
      {
        "astId": 2472,
        "contract": "contracts/dragon/DragonPlayerCharacter.sol:DragonPlayerCharacter",
        "label": "_balances",
        "offset": 0,
        "slot": "3",
        "type": "t_mapping(t_address,t_uint256)"
      },
      {
        "astId": 2476,
        "contract": "contracts/dragon/DragonPlayerCharacter.sol:DragonPlayerCharacter",
        "label": "_tokenApprovals",
        "offset": 0,
        "slot": "4",
        "type": "t_mapping(t_uint256,t_address)"
      },
      {
        "astId": 2482,
        "contract": "contracts/dragon/DragonPlayerCharacter.sol:DragonPlayerCharacter",
        "label": "_operatorApprovals",
        "offset": 0,
        "slot": "5",
        "type": "t_mapping(t_address,t_mapping(t_address,t_bool))"
      },
      {
        "astId": 3399,
        "contract": "contracts/dragon/DragonPlayerCharacter.sol:DragonPlayerCharacter",
        "label": "_tokenURIs",
        "offset": 0,
        "slot": "6",
        "type": "t_mapping(t_uint256,t_string_storage)"
      },
      {
        "astId": 7,
        "contract": "contracts/dragon/DragonPlayerCharacter.sol:DragonPlayerCharacter",
        "label": "_owner",
        "offset": 0,
        "slot": "7",
        "type": "t_address"
      },
      {
        "astId": 9741,
        "contract": "contracts/dragon/DragonPlayerCharacter.sol:DragonPlayerCharacter",
        "label": "authorized",
        "offset": 0,
        "slot": "8",
        "type": "t_mapping(t_address,t_bool)"
      },
      {
        "astId": 206,
        "contract": "contracts/dragon/DragonPlayerCharacter.sol:DragonPlayerCharacter",
        "label": "_status",
        "offset": 0,
        "slot": "9",
        "type": "t_uint256"
      },
      {
        "astId": 8518,
        "contract": "contracts/dragon/DragonPlayerCharacter.sol:DragonPlayerCharacter",
        "label": "_tokenIds",
        "offset": 0,
        "slot": "10",
        "type": "t_struct(Counter)3893_storage"
      },
      {
        "astId": 8520,
        "contract": "contracts/dragon/DragonPlayerCharacter.sol:DragonPlayerCharacter",
        "label": "_feeAddress",
        "offset": 0,
        "slot": "11",
        "type": "t_address_payable"
      },
      {
        "astId": 8523,
        "contract": "contracts/dragon/DragonPlayerCharacter.sol:DragonPlayerCharacter",
        "label": "_characterPrice",
        "offset": 0,
        "slot": "12",
        "type": "t_uint256"
      },
      {
        "astId": 8583,
        "contract": "contracts/dragon/DragonPlayerCharacter.sol:DragonPlayerCharacter",
        "label": "dragonPlayers",
        "offset": 0,
        "slot": "13",
        "type": "t_mapping(t_uint256,t_struct(Dragon)8578_storage)"
      },
      {
        "astId": 8589,
        "contract": "contracts/dragon/DragonPlayerCharacter.sol:DragonPlayerCharacter",
        "label": "dragonResources",
        "offset": 0,
        "slot": "14",
        "type": "t_mapping(t_uint256,t_mapping(t_uint8,t_uint256))"
      }
    ],
    "types": {
      "t_address": {
        "encoding": "inplace",
        "label": "address",
        "numberOfBytes": "20"
      },
      "t_address_payable": {
        "encoding": "inplace",
        "label": "address payable",
        "numberOfBytes": "20"
      },
      "t_bool": {
        "encoding": "inplace",
        "label": "bool",
        "numberOfBytes": "1"
      },
      "t_mapping(t_address,t_bool)": {
        "encoding": "mapping",
        "key": "t_address",
        "label": "mapping(address => bool)",
        "numberOfBytes": "32",
        "value": "t_bool"
      },
      "t_mapping(t_address,t_mapping(t_address,t_bool))": {
        "encoding": "mapping",
        "key": "t_address",
        "label": "mapping(address => mapping(address => bool))",
        "numberOfBytes": "32",
        "value": "t_mapping(t_address,t_bool)"
      },
      "t_mapping(t_address,t_uint256)": {
        "encoding": "mapping",
        "key": "t_address",
        "label": "mapping(address => uint256)",
        "numberOfBytes": "32",
        "value": "t_uint256"
      },
      "t_mapping(t_uint256,t_address)": {
        "encoding": "mapping",
        "key": "t_uint256",
        "label": "mapping(uint256 => address)",
        "numberOfBytes": "32",
        "value": "t_address"
      },
      "t_mapping(t_uint256,t_mapping(t_uint8,t_uint256))": {
        "encoding": "mapping",
        "key": "t_uint256",
        "label": "mapping(uint256 => mapping(uint8 => uint256))",
        "numberOfBytes": "32",
        "value": "t_mapping(t_uint8,t_uint256)"
      },
      "t_mapping(t_uint256,t_string_storage)": {
        "encoding": "mapping",
        "key": "t_uint256",
        "label": "mapping(uint256 => string)",
        "numberOfBytes": "32",
        "value": "t_string_storage"
      },
      "t_mapping(t_uint256,t_struct(Dragon)8578_storage)": {
        "encoding": "mapping",
        "key": "t_uint256",
        "label": "mapping(uint256 => struct DragonPlayerCharacter.Dragon)",
        "numberOfBytes": "32",
        "value": "t_struct(Dragon)8578_storage"
      },
      "t_mapping(t_uint8,t_uint256)": {
        "encoding": "mapping",
        "key": "t_uint8",
        "label": "mapping(uint8 => uint256)",
        "numberOfBytes": "32",
        "value": "t_uint256"
      },
      "t_string_storage": {
        "encoding": "bytes",
        "label": "string",
        "numberOfBytes": "32"
      },
      "t_struct(Counter)3893_storage": {
        "encoding": "inplace",
        "label": "struct Counters.Counter",
        "members": [
          {
            "astId": 3892,
            "contract": "contracts/dragon/DragonPlayerCharacter.sol:DragonPlayerCharacter",
            "label": "_value",
            "offset": 0,
            "slot": "0",
            "type": "t_uint256"
          }
        ],
        "numberOfBytes": "32"
      },
      "t_struct(Dragon)8578_storage": {
        "encoding": "inplace",
        "label": "struct DragonPlayerCharacter.Dragon",
        "members": [
          {
            "astId": 8547,
            "contract": "contracts/dragon/DragonPlayerCharacter.sol:DragonPlayerCharacter",
            "label": "attack",
            "offset": 0,
            "slot": "0",
            "type": "t_uint256"
          },
          {
            "astId": 8549,
            "contract": "contracts/dragon/DragonPlayerCharacter.sol:DragonPlayerCharacter",
            "label": "defense",
            "offset": 0,
            "slot": "1",
            "type": "t_uint256"
          },
          {
            "astId": 8551,
            "contract": "contracts/dragon/DragonPlayerCharacter.sol:DragonPlayerCharacter",
            "label": "speed",
            "offset": 0,
            "slot": "2",
            "type": "t_uint256"
          },
          {
            "astId": 8553,
            "contract": "contracts/dragon/DragonPlayerCharacter.sol:DragonPlayerCharacter",
            "label": "endurance",
            "offset": 0,
            "slot": "3",
            "type": "t_uint256"
          },
          {
            "astId": 8555,
            "contract": "contracts/dragon/DragonPlayerCharacter.sol:DragonPlayerCharacter",
            "label": "luck",
            "offset": 0,
            "slot": "4",
            "type": "t_uint256"
          },
          {
            "astId": 8557,
            "contract": "contracts/dragon/DragonPlayerCharacter.sol:DragonPlayerCharacter",
            "label": "experience",
            "offset": 0,
            "slot": "5",
            "type": "t_uint256"
          },
          {
            "astId": 8559,
            "contract": "contracts/dragon/DragonPlayerCharacter.sol:DragonPlayerCharacter",
            "label": "level",
            "offset": 0,
            "slot": "6",
            "type": "t_uint256"
          },
          {
            "astId": 8561,
            "contract": "contracts/dragon/DragonPlayerCharacter.sol:DragonPlayerCharacter",
            "label": "currentHealth",
            "offset": 0,
            "slot": "7",
            "type": "t_uint256"
          },
          {
            "astId": 8563,
            "contract": "contracts/dragon/DragonPlayerCharacter.sol:DragonPlayerCharacter",
            "label": "totalHealth",
            "offset": 0,
            "slot": "8",
            "type": "t_uint256"
          },
          {
            "astId": 8565,
            "contract": "contracts/dragon/DragonPlayerCharacter.sol:DragonPlayerCharacter",
            "label": "created",
            "offset": 0,
            "slot": "9",
            "type": "t_uint256"
          },
          {
            "astId": 8567,
            "contract": "contracts/dragon/DragonPlayerCharacter.sol:DragonPlayerCharacter",
            "label": "statPointsToSpend",
            "offset": 0,
            "slot": "10",
            "type": "t_uint256"
          },
          {
            "astId": 8569,
            "contract": "contracts/dragon/DragonPlayerCharacter.sol:DragonPlayerCharacter",
            "label": "equipmentBody",
            "offset": 0,
            "slot": "11",
            "type": "t_uint256"
          },
          {
            "astId": 8571,
            "contract": "contracts/dragon/DragonPlayerCharacter.sol:DragonPlayerCharacter",
            "label": "equipmentHand1",
            "offset": 0,
            "slot": "12",
            "type": "t_uint256"
          },
          {
            "astId": 8573,
            "contract": "contracts/dragon/DragonPlayerCharacter.sol:DragonPlayerCharacter",
            "label": "equipmentHand2",
            "offset": 0,
            "slot": "13",
            "type": "t_uint256"
          },
          {
            "astId": 8575,
            "contract": "contracts/dragon/DragonPlayerCharacter.sol:DragonPlayerCharacter",
            "label": "equipmentBoth",
            "offset": 0,
            "slot": "14",
            "type": "t_uint256"
          },
          {
            "astId": 8577,
            "contract": "contracts/dragon/DragonPlayerCharacter.sol:DragonPlayerCharacter",
            "label": "isAlive",
            "offset": 0,
            "slot": "15",
            "type": "t_bool"
          }
        ],
        "numberOfBytes": "512"
      },
      "t_uint256": {
        "encoding": "inplace",
        "label": "uint256",
        "numberOfBytes": "32"
      },
      "t_uint8": {
        "encoding": "inplace",
        "label": "uint8",
        "numberOfBytes": "1"
      }
    }
  }
}