{
  "address": "0xA577BD0Aa46ABf57e55397A718A5102816fb1078",
  "abi": [
    {
      "inputs": [
        {
          "internalType": "string",
          "name": "_uri_",
          "type": "string"
        },
        {
          "internalType": "address payable",
          "name": "devWallet_",
          "type": "address"
        }
      ],
      "stateMutability": "nonpayable",
      "type": "constructor"
    },
    {
      "anonymous": false,
      "inputs": [
        {
          "indexed": true,
          "internalType": "address",
          "name": "account",
          "type": "address"
        },
        {
          "indexed": true,
          "internalType": "address",
          "name": "operator",
          "type": "address"
        },
        {
          "indexed": false,
          "internalType": "bool",
          "name": "approved",
          "type": "bool"
        }
      ],
      "name": "ApprovalForAll",
      "type": "event"
    },
    {
      "anonymous": false,
      "inputs": [
        {
          "indexed": true,
          "internalType": "address",
          "name": "operator",
          "type": "address"
        },
        {
          "indexed": true,
          "internalType": "address",
          "name": "from",
          "type": "address"
        },
        {
          "indexed": true,
          "internalType": "address",
          "name": "to",
          "type": "address"
        },
        {
          "indexed": false,
          "internalType": "uint256[]",
          "name": "ids",
          "type": "uint256[]"
        },
        {
          "indexed": false,
          "internalType": "uint256[]",
          "name": "values",
          "type": "uint256[]"
        }
      ],
      "name": "TransferBatch",
      "type": "event"
    },
    {
      "anonymous": false,
      "inputs": [
        {
          "indexed": true,
          "internalType": "address",
          "name": "operator",
          "type": "address"
        },
        {
          "indexed": true,
          "internalType": "address",
          "name": "from",
          "type": "address"
        },
        {
          "indexed": true,
          "internalType": "address",
          "name": "to",
          "type": "address"
        },
        {
          "indexed": false,
          "internalType": "uint256",
          "name": "id",
          "type": "uint256"
        },
        {
          "indexed": false,
          "internalType": "uint256",
          "name": "value",
          "type": "uint256"
        }
      ],
      "name": "TransferSingle",
      "type": "event"
    },
    {
      "anonymous": false,
      "inputs": [
        {
          "indexed": false,
          "internalType": "string",
          "name": "value",
          "type": "string"
        },
        {
          "indexed": true,
          "internalType": "uint256",
          "name": "id",
          "type": "uint256"
        }
      ],
      "name": "URI",
      "type": "event"
    },
    {
      "inputs": [],
      "name": "COTTON",
      "outputs": [
        {
          "internalType": "uint256",
          "name": "",
          "type": "uint256"
        }
      ],
      "stateMutability": "view",
      "type": "function"
    },
    {
      "inputs": [],
      "name": "GEMSTONES",
      "outputs": [
        {
          "internalType": "uint256",
          "name": "",
          "type": "uint256"
        }
      ],
      "stateMutability": "view",
      "type": "function"
    },
    {
      "inputs": [],
      "name": "LEATHER",
      "outputs": [
        {
          "internalType": "uint256",
          "name": "",
          "type": "uint256"
        }
      ],
      "stateMutability": "view",
      "type": "function"
    },
    {
      "inputs": [],
      "name": "METAL",
      "outputs": [
        {
          "internalType": "uint256",
          "name": "",
          "type": "uint256"
        }
      ],
      "stateMutability": "view",
      "type": "function"
    },
    {
      "inputs": [],
      "name": "WOOD",
      "outputs": [
        {
          "internalType": "uint256",
          "name": "",
          "type": "uint256"
        }
      ],
      "stateMutability": "view",
      "type": "function"
    },
    {
      "inputs": [
        {
          "internalType": "address",
          "name": "account",
          "type": "address"
        },
        {
          "internalType": "uint256",
          "name": "id",
          "type": "uint256"
        }
      ],
      "name": "balanceOf",
      "outputs": [
        {
          "internalType": "uint256",
          "name": "",
          "type": "uint256"
        }
      ],
      "stateMutability": "view",
      "type": "function"
    },
    {
      "inputs": [
        {
          "internalType": "address[]",
          "name": "accounts",
          "type": "address[]"
        },
        {
          "internalType": "uint256[]",
          "name": "ids",
          "type": "uint256[]"
        }
      ],
      "name": "balanceOfBatch",
      "outputs": [
        {
          "internalType": "uint256[]",
          "name": "",
          "type": "uint256[]"
        }
      ],
      "stateMutability": "view",
      "type": "function"
    },
    {
      "inputs": [
        {
          "internalType": "address",
          "name": "account",
          "type": "address"
        },
        {
          "internalType": "address",
          "name": "operator",
          "type": "address"
        }
      ],
      "name": "isApprovedForAll",
      "outputs": [
        {
          "internalType": "bool",
          "name": "",
          "type": "bool"
        }
      ],
      "stateMutability": "view",
      "type": "function"
    },
    {
      "inputs": [
        {
          "internalType": "address",
          "name": "from",
          "type": "address"
        },
        {
          "internalType": "address",
          "name": "to",
          "type": "address"
        },
        {
          "internalType": "uint256[]",
          "name": "ids",
          "type": "uint256[]"
        },
        {
          "internalType": "uint256[]",
          "name": "amounts",
          "type": "uint256[]"
        },
        {
          "internalType": "bytes",
          "name": "data",
          "type": "bytes"
        }
      ],
      "name": "safeBatchTransferFrom",
      "outputs": [],
      "stateMutability": "nonpayable",
      "type": "function"
    },
    {
      "inputs": [
        {
          "internalType": "address",
          "name": "from",
          "type": "address"
        },
        {
          "internalType": "address",
          "name": "to",
          "type": "address"
        },
        {
          "internalType": "uint256",
          "name": "id",
          "type": "uint256"
        },
        {
          "internalType": "uint256",
          "name": "amount",
          "type": "uint256"
        },
        {
          "internalType": "bytes",
          "name": "data",
          "type": "bytes"
        }
      ],
      "name": "safeTransferFrom",
      "outputs": [],
      "stateMutability": "nonpayable",
      "type": "function"
    },
    {
      "inputs": [
        {
          "internalType": "address",
          "name": "operator",
          "type": "address"
        },
        {
          "internalType": "bool",
          "name": "approved",
          "type": "bool"
        }
      ],
      "name": "setApprovalForAll",
      "outputs": [],
      "stateMutability": "nonpayable",
      "type": "function"
    },
    {
      "inputs": [
        {
          "internalType": "bytes4",
          "name": "interfaceId",
          "type": "bytes4"
        }
      ],
      "name": "supportsInterface",
      "outputs": [
        {
          "internalType": "bool",
          "name": "",
          "type": "bool"
        }
      ],
      "stateMutability": "view",
      "type": "function"
    },
    {
      "inputs": [
        {
          "internalType": "uint256",
          "name": "",
          "type": "uint256"
        }
      ],
      "name": "uri",
      "outputs": [
        {
          "internalType": "string",
          "name": "",
          "type": "string"
        }
      ],
      "stateMutability": "view",
      "type": "function"
    },
    {
      "inputs": [
        {
          "internalType": "uint256",
          "name": "_type",
          "type": "uint256"
        }
      ],
      "name": "validateType",
      "outputs": [
        {
          "internalType": "bool",
          "name": "",
          "type": "bool"
        }
      ],
      "stateMutability": "pure",
      "type": "function"
    }
  ],
  "transactionHash": "0x90fb050d81754b30a2de0f6e2184083b8468802ff452c598763b739fe273f245",
  "args": [
    "https://aurum.dragoncrypto.io/json/resource/",
    "0x6C641CE6A7216F12d28692f9d8b2BDcdE812eD2b"
  ],
  "solcInputHash": "2c65907d664bbc0c1f5bc129540b796d",
  "bytecode": "0x60806040523480156200001157600080fd5b5060405162001e7f38038062001e7f8339810160408190526200003491620004ff565b81620000408162000141565b506001600355600480546001600160a01b0319166001600160a01b038316179055604080516020810190915260008082526200008991339190670de0b6b3a7640000906200015a565b620000b5336001670de0b6b3a7640000604051806020016040528060008152506200015a60201b60201c565b620000e1336002670de0b6b3a7640000604051806020016040528060008152506200015a60201b60201c565b6200010d336003670de0b6b3a7640000604051806020016040528060008152506200015a60201b60201c565b62000139336004670de0b6b3a7640000604051806020016040528060008152506200015a60201b60201c565b5050620008a0565b80516200015690600290602084019062000410565b5050565b6001600160a01b0384166200018c5760405162461bcd60e51b81526004016200018390620006f0565b60405180910390fd5b6000620001986200026a565b9050620001bf81600087620001ad886200026f565b620001b8886200026f565b87620002cb565b6000848152602081815260408083206001600160a01b038916845290915281208054859290620001f19084906200073f565b92505081905550846001600160a01b031660006001600160a01b0316826001600160a01b03167fc3d58168c5ae7397731d063d5bbf3d657854427343f4c083240f7aacaa2d0f6287876040516200024a92919062000731565b60405180910390a46200026381600087878787620002d3565b5050505050565b335b90565b60408051600180825281830190925260609160009190602080830190803683370190505090508281600081518110620002b857634e487b7160e01b600052603260045260246000fd5b602090810291909101015290505b919050565b505050505050565b620002f2846001600160a01b03166200040a60201b620006411760201c565b15620002cb5760405163f23a6e6160e01b81526001600160a01b0385169063f23a6e61906200032e9089908990889088908890600401620005ef565b602060405180830381600087803b1580156200034957600080fd5b505af19250505080156200037c575060408051601f3d908101601f191682019092526200037991810190620004ce565b60015b620003ce576200038b620007f0565b80620003985750620003b4565b8060405162461bcd60e51b815260040162000183919062000636565b60405162461bcd60e51b815260040162000183906200064b565b6001600160e01b0319811663f23a6e6160e01b14620004015760405162461bcd60e51b81526004016200018390620006a8565b50505050505050565b3b151590565b8280546200041e9062000797565b90600052602060002090601f0160209004810192826200044257600085556200048d565b82601f106200045d57805160ff19168380011785556200048d565b828001600101855582156200048d579182015b828111156200048d57825182559160200191906001019062000470565b506200049b9291506200049f565b5090565b5b808211156200049b5760008155600101620004a0565b80516001600160a01b0381168114620002c657600080fd5b600060208284031215620004e0578081fd5b81516001600160e01b031981168114620004f8578182fd5b9392505050565b6000806040838503121562000512578081fd5b82516001600160401b038082111562000529578283fd5b818501915085601f8301126200053d578283fd5b815181811115620005525762000552620007d4565b604051601f8201601f191681016020018381118282101715620005795762000579620007d4565b60405281815283820160200188101562000591578485fd5b620005a482602083016020870162000764565b9450620005b89250505060208401620004b6565b90509250929050565b60008151808452620005db81602086016020860162000764565b601f01601f19169290920160200192915050565b6001600160a01b03868116825285166020820152604081018490526060810183905260a0608082018190526000906200062b90830184620005c1565b979650505050505050565b600060208252620004f86020830184620005c1565b60208082526034908201527f455243313135353a207472616e7366657220746f206e6f6e204552433131353560408201527f526563656976657220696d706c656d656e746572000000000000000000000000606082015260800190565b60208082526028908201527f455243313135353a204552433131353552656365697665722072656a656374656040820152676420746f6b656e7360c01b606082015260800190565b60208082526021908201527f455243313135353a206d696e7420746f20746865207a65726f206164647265736040820152607360f81b606082015260800190565b918252602082015260400190565b600082198211156200075f57634e487b7160e01b81526011600452602481fd5b500190565b60005b838110156200078157818101518382015260200162000767565b8381111562000791576000848401525b50505050565b600281046001821680620007ac57607f821691505b60208210811415620007ce57634e487b7160e01b600052602260045260246000fd5b50919050565b634e487b7160e01b600052604160045260246000fd5b60e01c90565b600060443d101562000802576200026c565b600481823e6308c379a0620008188251620007ea565b1462000824576200026c565b6040513d600319016004823e80513d6001600160401b0380831160248401831017156200085557505050506200026c565b828401925082519150808211156200087157505050506200026c565b503d830160208284010111156200088b575050506200026c565b601f01601f1916810160200160405291505090565b6115cf80620008b06000396000f3fe608060405234801561001057600080fd5b50600436106100e95760003560e01c80637c1fadec1161008c578063a22cb46511610066578063a22cb465146101bf578063e985e9c5146101d2578063f242432a146101e5578063f8d5e90b146101f8576100e9565b80637c1fadec1461019c5780637c491b25146101af578063a092cd4f146101b7576100e9565b80632eb2c2d6116100c85780632eb2c2d6146101575780634e1273f41461016c5780635653e3ac1461018c5780637488d2c814610194576100e9565b8062fdd58e146100ee57806301ffc9a7146101175780630e89341c14610137575b600080fd5b6101016100fc366004610e14565b610200565b60405161010e91906113d6565b60405180910390f35b61012a610125366004610efb565b610257565b60405161010e91906110b9565b61014a610145366004610f3a565b61029f565b60405161010e91906110c4565b61016a610165366004610cd1565b610333565b005b61017f61017a366004610e3d565b610391565b60405161010e9190611078565b6101016104b1565b6101016104b6565b61012a6101aa366004610f3a565b6104bb565b6101016104df565b6101016104e4565b61016a6101cd366004610dda565b6104e9565b61012a6101e0366004610c9f565b6105b7565b61016a6101f3366004610d77565b6105e5565b61010161063c565b60006001600160a01b0383166102315760405162461bcd60e51b81526004016102289061117c565b60405180910390fd5b506000908152602081815260408083206001600160a01b03949094168352929052205490565b60006001600160e01b03198216636cdb3d1360e11b148061028857506001600160e01b031982166303a24d0760e21b145b80610297575061029782610647565b90505b919050565b6060600280546102ae90611453565b80601f01602080910402602001604051908101604052809291908181526020018280546102da90611453565b80156103275780601f106102fc57610100808354040283529160200191610327565b820191906000526020600020905b81548152906001019060200180831161030a57829003601f168201915b50505050509050919050565b61033b610660565b6001600160a01b0316856001600160a01b031614806103615750610361856101e0610660565b61037d5760405162461bcd60e51b815260040161022890611255565b61038a8585858585610665565b5050505050565b606081518351146103b45760405162461bcd60e51b815260040161022890611345565b6000835167ffffffffffffffff8111156103de57634e487b7160e01b600052604160045260246000fd5b604051908082528060200260200182016040528015610407578160200160208202803683370190505b50905060005b84518110156104a95761046e85828151811061043957634e487b7160e01b600052603260045260246000fd5b602002602001015185838151811061046157634e487b7160e01b600052603260045260246000fd5b6020026020010151610200565b82828151811061048e57634e487b7160e01b600052603260045260246000fd5b60209081029190910101526104a28161148e565b905061040d565b509392505050565b600081565b600181565b60008115806104ca5750600482115b156104d75750600061029a565b506001919050565b600281565b600381565b816001600160a01b03166104fb610660565b6001600160a01b031614156105225760405162461bcd60e51b8152600401610228906112fc565b806001600061052f610660565b6001600160a01b03908116825260208083019390935260409182016000908120918716808252919093529120805460ff191692151592909217909155610573610660565b6001600160a01b03167f17307eab39ab6107e8899845ad3d59bd9653f200f220920489ca2b5937696c31836040516105ab91906110b9565b60405180910390a35050565b6001600160a01b03918216600090815260016020908152604080832093909416825291909152205460ff1690565b6105ed610660565b6001600160a01b0316856001600160a01b031614806106135750610613856101e0610660565b61062f5760405162461bcd60e51b8152600401610228906111c7565b61038a8585858585610836565b600481565b3b151590565b6001600160e01b031981166301ffc9a760e01b14919050565b335b90565b81518351146106865760405162461bcd60e51b81526004016102289061138e565b6001600160a01b0384166106ac5760405162461bcd60e51b815260040161022890611210565b60006106b6610660565b90506106c681878787878761082e565b60005b84518110156107c85760008582815181106106f457634e487b7160e01b600052603260045260246000fd5b60200260200101519050600085838151811061072057634e487b7160e01b600052603260045260246000fd5b602090810291909101810151600084815280835260408082206001600160a01b038e1683529093529190912054909150818110156107705760405162461bcd60e51b8152600401610228906112b2565b6000838152602081815260408083206001600160a01b038e8116855292528083208585039055908b168252812080548492906107ad90849061143b565b92505081905550505050806107c19061148e565b90506106c9565b50846001600160a01b0316866001600160a01b0316826001600160a01b03167f4a39dc06d4c0dbc64b70af90fd698a233a518aa5d07e595d983b8c0526c8f7fb878760405161081892919061108b565b60405180910390a461082e818787878787610979565b505050505050565b6001600160a01b03841661085c5760405162461bcd60e51b815260040161022890611210565b6000610866610660565b905061088681878761087788610a87565b61088088610a87565b8761082e565b6000848152602081815260408083206001600160a01b038a168452909152902054838110156108c75760405162461bcd60e51b8152600401610228906112b2565b6000858152602081815260408083206001600160a01b038b811685529252808320878503905590881682528120805486929061090490849061143b565b92505081905550856001600160a01b0316876001600160a01b0316836001600160a01b03167fc3d58168c5ae7397731d063d5bbf3d657854427343f4c083240f7aacaa2d0f62888860405161095a9291906113df565b60405180910390a4610970828888888888610ae0565b50505050505050565b61098b846001600160a01b0316610641565b1561082e5760405163bc197c8160e01b81526001600160a01b0385169063bc197c81906109c49089908990889088908890600401610fd7565b602060405180830381600087803b1580156109de57600080fd5b505af1925050508015610a0e575060408051601f3d908101601f19168201909252610a0b91810190610f1e565b60015b610a5757610a1a6114db565b80610a255750610a3f565b8060405162461bcd60e51b815260040161022891906110c4565b60405162461bcd60e51b8152600401610228906110d7565b6001600160e01b0319811663bc197c8160e01b146109705760405162461bcd60e51b815260040161022890611134565b60408051600180825281830190925260609160009190602080830190803683370190505090508281600081518110610acf57634e487b7160e01b600052603260045260246000fd5b602090810291909101015292915050565b610af2846001600160a01b0316610641565b1561082e5760405163f23a6e6160e01b81526001600160a01b0385169063f23a6e6190610b2b9089908990889088908890600401611035565b602060405180830381600087803b158015610b4557600080fd5b505af1925050508015610b75575060408051601f3d908101601f19168201909252610b7291810190610f1e565b60015b610b8157610a1a6114db565b6001600160e01b0319811663f23a6e6160e01b146109705760405162461bcd60e51b815260040161022890611134565b80356001600160a01b038116811461029a57600080fd5b600082601f830112610bd8578081fd5b81356020610bed610be883611417565b6113ed565b8281528181019085830183850287018401881015610c09578586fd5b855b85811015610c2757813584529284019290840190600101610c0b565b5090979650505050505050565b600082601f830112610c44578081fd5b813567ffffffffffffffff811115610c5e57610c5e6114bf565b610c71601f8201601f19166020016113ed565b818152846020838601011115610c85578283fd5b816020850160208301379081016020019190915292915050565b60008060408385031215610cb1578182fd5b610cba83610bb1565b9150610cc860208401610bb1565b90509250929050565b600080600080600060a08688031215610ce8578081fd5b610cf186610bb1565b9450610cff60208701610bb1565b9350604086013567ffffffffffffffff80821115610d1b578283fd5b610d2789838a01610bc8565b94506060880135915080821115610d3c578283fd5b610d4889838a01610bc8565b93506080880135915080821115610d5d578283fd5b50610d6a88828901610c34565b9150509295509295909350565b600080600080600060a08688031215610d8e578081fd5b610d9786610bb1565b9450610da560208701610bb1565b93506040860135925060608601359150608086013567ffffffffffffffff811115610dce578182fd5b610d6a88828901610c34565b60008060408385031215610dec578182fd5b610df583610bb1565b915060208301358015158114610e09578182fd5b809150509250929050565b60008060408385031215610e26578182fd5b610e2f83610bb1565b946020939093013593505050565b60008060408385031215610e4f578182fd5b823567ffffffffffffffff80821115610e66578384fd5b818501915085601f830112610e79578384fd5b81356020610e89610be883611417565b82815281810190858301838502870184018b1015610ea5578889fd5b8896505b84871015610ece57610eba81610bb1565b835260019690960195918301918301610ea9565b5096505086013592505080821115610ee4578283fd5b50610ef185828601610bc8565b9150509250929050565b600060208284031215610f0c578081fd5b8135610f1781611580565b9392505050565b600060208284031215610f2f578081fd5b8151610f1781611580565b600060208284031215610f4b578081fd5b5035919050565b6000815180845260208085019450808401835b83811015610f8157815187529582019590820190600101610f65565b509495945050505050565b60008151808452815b81811015610fb157602081850181015186830182015201610f95565b81811115610fc25782602083870101525b50601f01601f19169290920160200192915050565b60006001600160a01b03808816835280871660208401525060a0604083015261100360a0830186610f52565b82810360608401526110158186610f52565b905082810360808401526110298185610f8c565b98975050505050505050565b60006001600160a01b03808816835280871660208401525084604083015283606083015260a0608083015261106d60a0830184610f8c565b979650505050505050565b600060208252610f176020830184610f52565b60006040825261109e6040830185610f52565b82810360208401526110b08185610f52565b95945050505050565b901515815260200190565b600060208252610f176020830184610f8c565b60208082526034908201527f455243313135353a207472616e7366657220746f206e6f6e204552433131353560408201527f526563656976657220696d706c656d656e746572000000000000000000000000606082015260800190565b60208082526028908201527f455243313135353a204552433131353552656365697665722072656a656374656040820152676420746f6b656e7360c01b606082015260800190565b6020808252602b908201527f455243313135353a2062616c616e636520717565727920666f7220746865207a60408201526a65726f206164647265737360a81b606082015260800190565b60208082526029908201527f455243313135353a2063616c6c6572206973206e6f74206f776e6572206e6f7260408201526808185c1c1c9bdd995960ba1b606082015260800190565b60208082526025908201527f455243313135353a207472616e7366657220746f20746865207a65726f206164604082015264647265737360d81b606082015260800190565b60208082526032908201527f455243313135353a207472616e736665722063616c6c6572206973206e6f742060408201527f6f776e6572206e6f7220617070726f7665640000000000000000000000000000606082015260800190565b6020808252602a908201527f455243313135353a20696e73756666696369656e742062616c616e636520666f60408201526939103a3930b739b332b960b11b606082015260800190565b60208082526029908201527f455243313135353a2073657474696e6720617070726f76616c20737461747573604082015268103337b91039b2b63360b91b606082015260800190565b60208082526029908201527f455243313135353a206163636f756e747320616e6420696473206c656e677468604082015268040dad2e6dac2e8c6d60bb1b606082015260800190565b60208082526028908201527f455243313135353a2069647320616e6420616d6f756e7473206c656e677468206040820152670dad2e6dac2e8c6d60c31b606082015260800190565b90815260200190565b918252602082015260400190565b60405181810167ffffffffffffffff8111828210171561140f5761140f6114bf565b604052919050565b600067ffffffffffffffff821115611431576114316114bf565b5060209081020190565b6000821982111561144e5761144e6114a9565b500190565b60028104600182168061146757607f821691505b6020821081141561148857634e487b7160e01b600052602260045260246000fd5b50919050565b60006000198214156114a2576114a26114a9565b5060010190565b634e487b7160e01b600052601160045260246000fd5b634e487b7160e01b600052604160045260246000fd5b60e01c90565b600060443d10156114eb57610662565b600481823e6308c379a06114ff82516114d5565b1461150957610662565b6040513d600319016004823e80513d67ffffffffffffffff81602484011181841117156115395750505050610662565b828401925082519150808211156115535750505050610662565b503d8301602082840101111561156b57505050610662565b601f01601f1916810160200160405291505090565b6001600160e01b03198116811461159657600080fd5b5056fea264697066735822122066afc9326da5b2f8d5cd3fd166db66c12b9c529be3b47e809defd4fcf99b3d8d64736f6c63430008000033",
  "devdoc": {
    "kind": "dev",
    "methods": {
      "balanceOf(address,uint256)": {
        "details": "See {IERC1155-balanceOf}. Requirements: - `account` cannot be the zero address."
      },
      "balanceOfBatch(address[],uint256[])": {
        "details": "See {IERC1155-balanceOfBatch}. Requirements: - `accounts` and `ids` must have the same length."
      },
      "constructor": {
        "params": {
          "_uri_": "string such like \"https://game.example/api/item/{id}.json\""
        }
      },
      "isApprovedForAll(address,address)": {
        "details": "See {IERC1155-isApprovedForAll}."
      },
      "safeBatchTransferFrom(address,address,uint256[],uint256[],bytes)": {
        "details": "See {IERC1155-safeBatchTransferFrom}."
      },
      "safeTransferFrom(address,address,uint256,uint256,bytes)": {
        "details": "See {IERC1155-safeTransferFrom}."
      },
      "setApprovalForAll(address,bool)": {
        "details": "See {IERC1155-setApprovalForAll}."
      },
      "supportsInterface(bytes4)": {
        "details": "See {IERC165-supportsInterface}."
      },
      "uri(uint256)": {
        "details": "See {IERC1155MetadataURI-uri}. This implementation returns the same URI for *all* token types. It relies on the token type ID substitution mechanism https://eips.ethereum.org/EIPS/eip-1155#metadata[defined in the EIP]. Clients calling this function must replace the `\\{id\\}` substring with the actual token type ID."
      }
    },
    "version": 1
  },
  "userdoc": {
    "kind": "user",
    "methods": {},
    "version": 1
  },
  "storageLayout": {
    "storage": [
      {
        "astId": 261,
        "contract": "contracts/dragon/DragonResource.sol:DragonResource",
        "label": "_balances",
        "offset": 0,
        "slot": "0",
        "type": "t_mapping(t_uint256,t_mapping(t_address,t_uint256))"
      },
      {
        "astId": 267,
        "contract": "contracts/dragon/DragonResource.sol:DragonResource",
        "label": "_operatorApprovals",
        "offset": 0,
        "slot": "1",
        "type": "t_mapping(t_address,t_mapping(t_address,t_bool))"
      },
      {
        "astId": 269,
        "contract": "contracts/dragon/DragonResource.sol:DragonResource",
        "label": "_uri",
        "offset": 0,
        "slot": "2",
        "type": "t_string_storage"
      },
      {
        "astId": 206,
        "contract": "contracts/dragon/DragonResource.sol:DragonResource",
        "label": "_status",
        "offset": 0,
        "slot": "3",
        "type": "t_uint256"
      },
      {
        "astId": 9118,
        "contract": "contracts/dragon/DragonResource.sol:DragonResource",
        "label": "_devWallet",
        "offset": 0,
        "slot": "4",
        "type": "t_address_payable"
      }
    ],
    "types": {
      "t_address": {
        "encoding": "inplace",
        "label": "address",
        "numberOfBytes": "20"
      },
      "t_address_payable": {
        "encoding": "inplace",
        "label": "address payable",
        "numberOfBytes": "20"
      },
      "t_bool": {
        "encoding": "inplace",
        "label": "bool",
        "numberOfBytes": "1"
      },
      "t_mapping(t_address,t_bool)": {
        "encoding": "mapping",
        "key": "t_address",
        "label": "mapping(address => bool)",
        "numberOfBytes": "32",
        "value": "t_bool"
      },
      "t_mapping(t_address,t_mapping(t_address,t_bool))": {
        "encoding": "mapping",
        "key": "t_address",
        "label": "mapping(address => mapping(address => bool))",
        "numberOfBytes": "32",
        "value": "t_mapping(t_address,t_bool)"
      },
      "t_mapping(t_address,t_uint256)": {
        "encoding": "mapping",
        "key": "t_address",
        "label": "mapping(address => uint256)",
        "numberOfBytes": "32",
        "value": "t_uint256"
      },
      "t_mapping(t_uint256,t_mapping(t_address,t_uint256))": {
        "encoding": "mapping",
        "key": "t_uint256",
        "label": "mapping(uint256 => mapping(address => uint256))",
        "numberOfBytes": "32",
        "value": "t_mapping(t_address,t_uint256)"
      },
      "t_string_storage": {
        "encoding": "bytes",
        "label": "string",
        "numberOfBytes": "32"
      },
      "t_uint256": {
        "encoding": "inplace",
        "label": "uint256",
        "numberOfBytes": "32"
      }
    }
  }
}