{
  "address": "0x900f2c938966468d0a4D481057fc58120d4e2Bfe",
  "abi": [
    {
      "inputs": [
        {
          "internalType": "string",
          "name": "_uri_",
          "type": "string"
        },
        {
          "internalType": "address payable",
          "name": "devWallet_",
          "type": "address"
        }
      ],
      "stateMutability": "nonpayable",
      "type": "constructor"
    },
    {
      "anonymous": false,
      "inputs": [
        {
          "indexed": true,
          "internalType": "address",
          "name": "account",
          "type": "address"
        },
        {
          "indexed": true,
          "internalType": "address",
          "name": "operator",
          "type": "address"
        },
        {
          "indexed": false,
          "internalType": "bool",
          "name": "approved",
          "type": "bool"
        }
      ],
      "name": "ApprovalForAll",
      "type": "event"
    },
    {
      "anonymous": false,
      "inputs": [
        {
          "indexed": true,
          "internalType": "address",
          "name": "_creator",
          "type": "address"
        },
        {
          "indexed": true,
          "internalType": "uint256",
          "name": "_type",
          "type": "uint256"
        },
        {
          "indexed": false,
          "internalType": "uint256",
          "name": "_tokenId",
          "type": "uint256"
        },
        {
          "indexed": false,
          "internalType": "uint256",
          "name": "_amount",
          "type": "uint256"
        }
      ],
      "name": "EquipmentCreated",
      "type": "event"
    },
    {
      "anonymous": false,
      "inputs": [
        {
          "indexed": true,
          "internalType": "address",
          "name": "previousOwner",
          "type": "address"
        },
        {
          "indexed": true,
          "internalType": "address",
          "name": "newOwner",
          "type": "address"
        }
      ],
      "name": "OwnershipTransferred",
      "type": "event"
    },
    {
      "anonymous": false,
      "inputs": [
        {
          "indexed": true,
          "internalType": "address",
          "name": "operator",
          "type": "address"
        },
        {
          "indexed": true,
          "internalType": "address",
          "name": "from",
          "type": "address"
        },
        {
          "indexed": true,
          "internalType": "address",
          "name": "to",
          "type": "address"
        },
        {
          "indexed": false,
          "internalType": "uint256[]",
          "name": "ids",
          "type": "uint256[]"
        },
        {
          "indexed": false,
          "internalType": "uint256[]",
          "name": "values",
          "type": "uint256[]"
        }
      ],
      "name": "TransferBatch",
      "type": "event"
    },
    {
      "anonymous": false,
      "inputs": [
        {
          "indexed": true,
          "internalType": "address",
          "name": "operator",
          "type": "address"
        },
        {
          "indexed": true,
          "internalType": "address",
          "name": "from",
          "type": "address"
        },
        {
          "indexed": true,
          "internalType": "address",
          "name": "to",
          "type": "address"
        },
        {
          "indexed": false,
          "internalType": "uint256",
          "name": "id",
          "type": "uint256"
        },
        {
          "indexed": false,
          "internalType": "uint256",
          "name": "value",
          "type": "uint256"
        }
      ],
      "name": "TransferSingle",
      "type": "event"
    },
    {
      "anonymous": false,
      "inputs": [
        {
          "indexed": false,
          "internalType": "string",
          "name": "value",
          "type": "string"
        },
        {
          "indexed": true,
          "internalType": "uint256",
          "name": "id",
          "type": "uint256"
        }
      ],
      "name": "URI",
      "type": "event"
    },
    {
      "inputs": [],
      "name": "EQUIPMENT_BODY",
      "outputs": [
        {
          "internalType": "uint256",
          "name": "",
          "type": "uint256"
        }
      ],
      "stateMutability": "view",
      "type": "function"
    },
    {
      "inputs": [],
      "name": "EQUIPMENT_BOTH_HANDED",
      "outputs": [
        {
          "internalType": "uint256",
          "name": "",
          "type": "uint256"
        }
      ],
      "stateMutability": "view",
      "type": "function"
    },
    {
      "inputs": [],
      "name": "EQUIPMENT_ONE_HANDED",
      "outputs": [
        {
          "internalType": "uint256",
          "name": "",
          "type": "uint256"
        }
      ],
      "stateMutability": "view",
      "type": "function"
    },
    {
      "inputs": [],
      "name": "EQUIPMENT_SHIELD",
      "outputs": [
        {
          "internalType": "uint256",
          "name": "",
          "type": "uint256"
        }
      ],
      "stateMutability": "view",
      "type": "function"
    },
    {
      "inputs": [
        {
          "internalType": "address",
          "name": "account",
          "type": "address"
        },
        {
          "internalType": "uint256",
          "name": "id",
          "type": "uint256"
        }
      ],
      "name": "balanceOf",
      "outputs": [
        {
          "internalType": "uint256",
          "name": "",
          "type": "uint256"
        }
      ],
      "stateMutability": "view",
      "type": "function"
    },
    {
      "inputs": [
        {
          "internalType": "address[]",
          "name": "accounts",
          "type": "address[]"
        },
        {
          "internalType": "uint256[]",
          "name": "ids",
          "type": "uint256[]"
        }
      ],
      "name": "balanceOfBatch",
      "outputs": [
        {
          "internalType": "uint256[]",
          "name": "",
          "type": "uint256[]"
        }
      ],
      "stateMutability": "view",
      "type": "function"
    },
    {
      "inputs": [
        {
          "internalType": "address",
          "name": "account",
          "type": "address"
        },
        {
          "internalType": "uint256",
          "name": "id",
          "type": "uint256"
        },
        {
          "internalType": "uint256",
          "name": "value",
          "type": "uint256"
        }
      ],
      "name": "burn",
      "outputs": [],
      "stateMutability": "nonpayable",
      "type": "function"
    },
    {
      "inputs": [
        {
          "internalType": "address",
          "name": "account",
          "type": "address"
        },
        {
          "internalType": "uint256[]",
          "name": "ids",
          "type": "uint256[]"
        },
        {
          "internalType": "uint256[]",
          "name": "values",
          "type": "uint256[]"
        }
      ],
      "name": "burnBatch",
      "outputs": [],
      "stateMutability": "nonpayable",
      "type": "function"
    },
    {
      "inputs": [
        {
          "internalType": "address",
          "name": "account",
          "type": "address"
        },
        {
          "internalType": "address",
          "name": "operator",
          "type": "address"
        }
      ],
      "name": "isApprovedForAll",
      "outputs": [
        {
          "internalType": "bool",
          "name": "",
          "type": "bool"
        }
      ],
      "stateMutability": "view",
      "type": "function"
    },
    {
      "inputs": [
        {
          "internalType": "uint256",
          "name": "_type",
          "type": "uint256"
        },
        {
          "internalType": "uint256",
          "name": "_amount",
          "type": "uint256"
        }
      ],
      "name": "mintNewEquipment",
      "outputs": [],
      "stateMutability": "nonpayable",
      "type": "function"
    },
    {
      "inputs": [],
      "name": "owner",
      "outputs": [
        {
          "internalType": "address",
          "name": "",
          "type": "address"
        }
      ],
      "stateMutability": "view",
      "type": "function"
    },
    {
      "inputs": [],
      "name": "renounceOwnership",
      "outputs": [],
      "stateMutability": "nonpayable",
      "type": "function"
    },
    {
      "inputs": [
        {
          "internalType": "address",
          "name": "from",
          "type": "address"
        },
        {
          "internalType": "address",
          "name": "to",
          "type": "address"
        },
        {
          "internalType": "uint256[]",
          "name": "ids",
          "type": "uint256[]"
        },
        {
          "internalType": "uint256[]",
          "name": "amounts",
          "type": "uint256[]"
        },
        {
          "internalType": "bytes",
          "name": "data",
          "type": "bytes"
        }
      ],
      "name": "safeBatchTransferFrom",
      "outputs": [],
      "stateMutability": "nonpayable",
      "type": "function"
    },
    {
      "inputs": [
        {
          "internalType": "address",
          "name": "from",
          "type": "address"
        },
        {
          "internalType": "address",
          "name": "to",
          "type": "address"
        },
        {
          "internalType": "uint256",
          "name": "id",
          "type": "uint256"
        },
        {
          "internalType": "uint256",
          "name": "amount",
          "type": "uint256"
        },
        {
          "internalType": "bytes",
          "name": "data",
          "type": "bytes"
        }
      ],
      "name": "safeTransferFrom",
      "outputs": [],
      "stateMutability": "nonpayable",
      "type": "function"
    },
    {
      "inputs": [
        {
          "internalType": "address",
          "name": "operator",
          "type": "address"
        },
        {
          "internalType": "bool",
          "name": "approved",
          "type": "bool"
        }
      ],
      "name": "setApprovalForAll",
      "outputs": [],
      "stateMutability": "nonpayable",
      "type": "function"
    },
    {
      "inputs": [
        {
          "internalType": "bytes4",
          "name": "interfaceId",
          "type": "bytes4"
        }
      ],
      "name": "supportsInterface",
      "outputs": [
        {
          "internalType": "bool",
          "name": "",
          "type": "bool"
        }
      ],
      "stateMutability": "view",
      "type": "function"
    },
    {
      "inputs": [
        {
          "internalType": "address",
          "name": "newOwner",
          "type": "address"
        }
      ],
      "name": "transferOwnership",
      "outputs": [],
      "stateMutability": "nonpayable",
      "type": "function"
    },
    {
      "inputs": [
        {
          "internalType": "uint256",
          "name": "_tokenId",
          "type": "uint256"
        }
      ],
      "name": "typeOfItem",
      "outputs": [
        {
          "internalType": "uint8",
          "name": "",
          "type": "uint8"
        }
      ],
      "stateMutability": "view",
      "type": "function"
    },
    {
      "inputs": [
        {
          "internalType": "uint256",
          "name": "",
          "type": "uint256"
        }
      ],
      "name": "uri",
      "outputs": [
        {
          "internalType": "string",
          "name": "",
          "type": "string"
        }
      ],
      "stateMutability": "view",
      "type": "function"
    },
    {
      "inputs": [
        {
          "internalType": "uint256",
          "name": "_type",
          "type": "uint256"
        }
      ],
      "name": "validateType",
      "outputs": [
        {
          "internalType": "bool",
          "name": "",
          "type": "bool"
        }
      ],
      "stateMutability": "pure",
      "type": "function"
    }
  ],
  "transactionHash": "0xacbe81ded6f857dfcdeea1adef79faad18fc9b67c34b4acdbd090ffe9e77f472",
  "args": [
    "https://aurum.dragoncrypto.io/json/equipment/",
    "0x6C641CE6A7216F12d28692f9d8b2BDcdE812eD2b"
  ],
  "solcInputHash": "2c65907d664bbc0c1f5bc129540b796d",
  "bytecode": "0x608060405260016005556002600655600360075560046008553480156200002557600080fd5b5060405162002311380380620023118339810160408190526200004891620001c7565b81620000548162000095565b506200006962000063620000ae565b620000b2565b6001600455600a80546001600160a01b0319166001600160a01b039290921691909117905550620002fe565b8051620000aa90600290602084019062000104565b5050565b3390565b600380546001600160a01b038381166001600160a01b0319831681179093556040519116919082907f8be0079c531659141344cd1fd0a4f28419497f9722a3daafe3b4186f6b6457e090600090a35050565b8280546200011290620002ab565b90600052602060002090601f01602090048101928262000136576000855562000181565b82601f106200015157805160ff191683800117855562000181565b8280016001018555821562000181579182015b828111156200018157825182559160200191906001019062000164565b506200018f92915062000193565b5090565b5b808211156200018f576000815560010162000194565b80516001600160a01b0381168114620001c257600080fd5b919050565b60008060408385031215620001da578182fd5b82516001600160401b0380821115620001f1578384fd5b818501915085601f83011262000205578384fd5b8151818111156200021a576200021a620002e8565b6040516020601f8301601f1916820181018481118382101715620002425762000242620002e8565b604052828252848301810189101562000259578687fd5b8693505b828410156200027c57848401810151828501820152928301926200025d565b828411156200028d57868184840101525b8196506200029d818901620001aa565b955050505050509250929050565b600281046001821680620002c057607f821691505b60208210811415620002e257634e487b7160e01b600052602260045260246000fd5b50919050565b634e487b7160e01b600052604160045260246000fd5b612003806200030e6000396000f3fe608060405234801561001057600080fd5b506004361061012b5760003560e01c80637c1fadec116100ad578063c874c50d11610071578063c874c50d1461026f578063e985e9c514610277578063f242432a1461028a578063f2fde38b1461029d578063f5298aca146102b05761012b565b80637c1fadec1461020c5780638da5cb5b1461021f5780639c4d7ad814610234578063a22cb46514610254578063a7289fde146102675761012b565b80632eb2c2d6116100f45780632eb2c2d6146101a95780634e1273f4146101be57806359c8a845146101de5780636b20c454146101f1578063715018a6146102045761012b565b8062fdd58e1461013057806301ffc9a7146101595780630e89341c1461017957806316828305146101995780631fa458fc146101a1575b600080fd5b61014361013e36600461162c565b6102c3565b6040516101509190611dff565b60405180910390f35b61016c610167366004611745565b61031a565b6040516101509190611931565b61018c61018736600461177d565b610362565b604051610150919061193c565b6101436103f6565b6101436103fc565b6101bc6101b7366004611478565b610402565b005b6101d16101cc366004611687565b610460565b60405161015091906118f0565b6101bc6101ec366004611795565b610580565b6101bc6101ff366004611581565b6106a9565b6101bc610703565b61016c61021a36600461177d565b61074e565b610227610772565b604051610150919061183b565b61024761024236600461177d565b610782565b6040516101509190611e16565b6101bc6102623660046115f2565b610797565b610143610865565b61014361086b565b61016c610285366004611446565b610871565b6101bc61029836600461151e565b61089f565b6101bc6102ab366004611425565b6108f6565b6101bc6102be366004611655565b610967565b60006001600160a01b0383166102f45760405162461bcd60e51b81526004016102eb906119f4565b60405180910390fd5b506000908152602081815260408083206001600160a01b03949094168352929052205490565b60006001600160e01b03198216636cdb3d1360e11b148061034b57506001600160e01b031982166303a24d0760e21b145b8061035a575061035a826109bc565b90505b919050565b60606002805461037190611e8a565b80601f016020809104026020016040519081016040528092919081815260200182805461039d90611e8a565b80156103ea5780601f106103bf576101008083540402835291602001916103ea565b820191906000526020600020905b8154815290600101906020018083116103cd57829003601f168201915b50505050509050919050565b60055481565b60065481565b61040a6109d5565b6001600160a01b0316856001600160a01b031614806104305750610430856102856109d5565b61044c5760405162461bcd60e51b81526004016102eb90611b57565b61045985858585856109d9565b5050505050565b606081518351146104835760405162461bcd60e51b81526004016102eb90611cf6565b6000835167ffffffffffffffff8111156104ad57634e487b7160e01b600052604160045260246000fd5b6040519080825280602002602001820160405280156104d6578160200160208202803683370190505b50905060005b84518110156105785761053d85828151811061050857634e487b7160e01b600052603260045260246000fd5b602002602001015185838151811061053057634e487b7160e01b600052603260045260246000fd5b60200260200101516102c3565b82828151811061055d57634e487b7160e01b600052603260045260246000fd5b602090810291909101015261057181611ec5565b90506104dc565b509392505050565b6105886109d5565b6001600160a01b0316610599610772565b6001600160a01b0316146105bf5760405162461bcd60e51b81526004016102eb90611c78565b600260045414156105e25760405162461bcd60e51b81526004016102eb90611dc8565b60026004556105f08261074e565b61060c5760405162461bcd60e51b81526004016102eb90611c41565b6106166009610baa565b60006106226009610bb3565b905061064661062f6109d5565b828460405180602001604052806000815250610bb7565b6000818152600b602052604090819020805460ff191660ff861617905551839033907fb8f711da0db396d6d7746affc7044b8d249d1bc8fd95270cc4a0becf57c3e4e3906106979085908790611e08565b60405180910390a35050600160045550565b6106b16109d5565b6001600160a01b0316836001600160a01b031614806106d757506106d7836102856109d5565b6106f35760405162461bcd60e51b81526004016102eb90611ac9565b6106fe838383610ca6565b505050565b61070b6109d5565b6001600160a01b031661071c610772565b6001600160a01b0316146107425760405162461bcd60e51b81526004016102eb90611c78565b61074c6000610e57565b565b600081158061075d5750600482115b1561076a5750600061035d565b506001919050565b6003546001600160a01b03165b90565b6000908152600b602052604090205460ff1690565b816001600160a01b03166107a96109d5565b6001600160a01b031614156107d05760405162461bcd60e51b81526004016102eb90611cad565b80600160006107dd6109d5565b6001600160a01b03908116825260208083019390935260409182016000908120918716808252919093529120805460ff1916921515929092179091556108216109d5565b6001600160a01b03167f17307eab39ab6107e8899845ad3d59bd9653f200f220920489ca2b5937696c31836040516108599190611931565b60405180910390a35050565b60075481565b60085481565b6001600160a01b03918216600090815260016020908152604080832093909416825291909152205460ff1690565b6108a76109d5565b6001600160a01b0316856001600160a01b031614806108cd57506108cd856102856109d5565b6108e95760405162461bcd60e51b81526004016102eb90611ac9565b6104598585858585610eb6565b6108fe6109d5565b6001600160a01b031661090f610772565b6001600160a01b0316146109355760405162461bcd60e51b81526004016102eb90611c78565b6001600160a01b03811661095b5760405162461bcd60e51b81526004016102eb90611a3f565b61096481610e57565b50565b61096f6109d5565b6001600160a01b0316836001600160a01b031614806109955750610995836102856109d5565b6109b15760405162461bcd60e51b81526004016102eb90611ac9565b6106fe838383610fea565b6001600160e01b031981166301ffc9a760e01b14919050565b3390565b81518351146109fa5760405162461bcd60e51b81526004016102eb90611d3f565b6001600160a01b038416610a205760405162461bcd60e51b81526004016102eb90611b12565b6000610a2a6109d5565b9050610a3a818787878787610ba2565b60005b8451811015610b3c576000858281518110610a6857634e487b7160e01b600052603260045260246000fd5b602002602001015190506000858381518110610a9457634e487b7160e01b600052603260045260246000fd5b602090810291909101810151600084815280835260408082206001600160a01b038e168352909352919091205490915081811015610ae45760405162461bcd60e51b81526004016102eb90611bf7565b6000838152602081815260408083206001600160a01b038e8116855292528083208585039055908b16825281208054849290610b21908490611e72565b9250508190555050505080610b3590611ec5565b9050610a3d565b50846001600160a01b0316866001600160a01b0316826001600160a01b03167f4a39dc06d4c0dbc64b70af90fd698a233a518aa5d07e595d983b8c0526c8f7fb8787604051610b8c929190611903565b60405180910390a4610ba28187878787876110f9565b505050505050565b80546001019055565b5490565b6001600160a01b038416610bdd5760405162461bcd60e51b81526004016102eb90611d87565b6000610be76109d5565b9050610c0881600087610bf988611207565b610c0288611207565b87610ba2565b6000848152602081815260408083206001600160a01b038916845290915281208054859290610c38908490611e72565b92505081905550846001600160a01b031660006001600160a01b0316826001600160a01b03167fc3d58168c5ae7397731d063d5bbf3d657854427343f4c083240f7aacaa2d0f628787604051610c8f929190611e08565b60405180910390a461045981600087878787611260565b6001600160a01b038316610ccc5760405162461bcd60e51b81526004016102eb90611bb4565b8051825114610ced5760405162461bcd60e51b81526004016102eb90611d3f565b6000610cf76109d5565b9050610d1781856000868660405180602001604052806000815250610ba2565b60005b8351811015610df8576000848281518110610d4557634e487b7160e01b600052603260045260246000fd5b602002602001015190506000848381518110610d7157634e487b7160e01b600052603260045260246000fd5b602090810291909101810151600084815280835260408082206001600160a01b038c168352909352919091205490915081811015610dc15760405162461bcd60e51b81526004016102eb90611a85565b6000928352602083815260408085206001600160a01b038b1686529091529092209103905580610df081611ec5565b915050610d1a565b5060006001600160a01b0316846001600160a01b0316826001600160a01b03167f4a39dc06d4c0dbc64b70af90fd698a233a518aa5d07e595d983b8c0526c8f7fb8686604051610e49929190611903565b60405180910390a450505050565b600380546001600160a01b0383811673ffffffffffffffffffffffffffffffffffffffff19831681179093556040519116919082907f8be0079c531659141344cd1fd0a4f28419497f9722a3daafe3b4186f6b6457e090600090a35050565b6001600160a01b038416610edc5760405162461bcd60e51b81526004016102eb90611b12565b6000610ee66109d5565b9050610ef7818787610bf988611207565b6000848152602081815260408083206001600160a01b038a16845290915290205483811015610f385760405162461bcd60e51b81526004016102eb90611bf7565b6000858152602081815260408083206001600160a01b038b8116855292528083208785039055908816825281208054869290610f75908490611e72565b92505081905550856001600160a01b0316876001600160a01b0316836001600160a01b03167fc3d58168c5ae7397731d063d5bbf3d657854427343f4c083240f7aacaa2d0f628888604051610fcb929190611e08565b60405180910390a4610fe1828888888888611260565b50505050505050565b6001600160a01b0383166110105760405162461bcd60e51b81526004016102eb90611bb4565b600061101a6109d5565b905061104a8185600061102c87611207565b61103587611207565b60405180602001604052806000815250610ba2565b6000838152602081815260408083206001600160a01b03881684529091529020548281101561108b5760405162461bcd60e51b81526004016102eb90611a85565b6000848152602081815260408083206001600160a01b03808a16808652919093528184208786039055905190918516907fc3d58168c5ae7397731d063d5bbf3d657854427343f4c083240f7aacaa2d0f62906110ea9089908990611e08565b60405180910390a45050505050565b61110b846001600160a01b0316611331565b15610ba25760405163bc197c8160e01b81526001600160a01b0385169063bc197c8190611144908990899088908890889060040161184f565b602060405180830381600087803b15801561115e57600080fd5b505af192505050801561118e575060408051601f3d908101601f1916820190925261118b91810190611761565b60015b6111d75761119a611f12565b806111a557506111bf565b8060405162461bcd60e51b81526004016102eb919061193c565b60405162461bcd60e51b81526004016102eb9061194f565b6001600160e01b0319811663bc197c8160e01b14610fe15760405162461bcd60e51b81526004016102eb906119ac565b6040805160018082528183019092526060916000919060208083019080368337019050509050828160008151811061124f57634e487b7160e01b600052603260045260246000fd5b602090810291909101015292915050565b611272846001600160a01b0316611331565b15610ba25760405163f23a6e6160e01b81526001600160a01b0385169063f23a6e61906112ab90899089908890889088906004016118ad565b602060405180830381600087803b1580156112c557600080fd5b505af19250505080156112f5575060408051601f3d908101601f191682019092526112f291810190611761565b60015b6113015761119a611f12565b6001600160e01b0319811663f23a6e6160e01b14610fe15760405162461bcd60e51b81526004016102eb906119ac565b3b151590565b80356001600160a01b038116811461035d57600080fd5b600082601f83011261135e578081fd5b8135602061137361136e83611e4e565b611e24565b828152818101908583018385028701840188101561138f578586fd5b855b858110156113ad57813584529284019290840190600101611391565b5090979650505050505050565b600082601f8301126113ca578081fd5b813567ffffffffffffffff8111156113e4576113e4611ef6565b6113f7601f8201601f1916602001611e24565b81815284602083860101111561140b578283fd5b816020850160208301379081016020019190915292915050565b600060208284031215611436578081fd5b61143f82611337565b9392505050565b60008060408385031215611458578081fd5b61146183611337565b915061146f60208401611337565b90509250929050565b600080600080600060a0868803121561148f578081fd5b61149886611337565b94506114a660208701611337565b9350604086013567ffffffffffffffff808211156114c2578283fd5b6114ce89838a0161134e565b945060608801359150808211156114e3578283fd5b6114ef89838a0161134e565b93506080880135915080821115611504578283fd5b50611511888289016113ba565b9150509295509295909350565b600080600080600060a08688031215611535578081fd5b61153e86611337565b945061154c60208701611337565b93506040860135925060608601359150608086013567ffffffffffffffff811115611575578182fd5b611511888289016113ba565b600080600060608486031215611595578283fd5b61159e84611337565b9250602084013567ffffffffffffffff808211156115ba578384fd5b6115c68783880161134e565b935060408601359150808211156115db578283fd5b506115e88682870161134e565b9150509250925092565b60008060408385031215611604578182fd5b61160d83611337565b915060208301358015158114611621578182fd5b809150509250929050565b6000806040838503121561163e578182fd5b61164783611337565b946020939093013593505050565b600080600060608486031215611669578283fd5b61167284611337565b95602085013595506040909401359392505050565b60008060408385031215611699578182fd5b823567ffffffffffffffff808211156116b0578384fd5b818501915085601f8301126116c3578384fd5b813560206116d361136e83611e4e565b82815281810190858301838502870184018b10156116ef578889fd5b8896505b848710156117185761170481611337565b8352600196909601959183019183016116f3565b509650508601359250508082111561172e578283fd5b5061173b8582860161134e565b9150509250929050565b600060208284031215611756578081fd5b813561143f81611fb7565b600060208284031215611772578081fd5b815161143f81611fb7565b60006020828403121561178e578081fd5b5035919050565b600080604083850312156117a7578182fd5b50508035926020909101359150565b6000815180845260208085019450808401835b838110156117e5578151875295820195908201906001016117c9565b509495945050505050565b60008151808452815b81811015611815576020818501810151868301820152016117f9565b818111156118265782602083870101525b50601f01601f19169290920160200192915050565b6001600160a01b0391909116815260200190565b60006001600160a01b03808816835280871660208401525060a0604083015261187b60a08301866117b6565b828103606084015261188d81866117b6565b905082810360808401526118a181856117f0565b98975050505050505050565b60006001600160a01b03808816835280871660208401525084604083015283606083015260a060808301526118e560a08301846117f0565b979650505050505050565b60006020825261143f60208301846117b6565b60006040825261191660408301856117b6565b828103602084015261192881856117b6565b95945050505050565b901515815260200190565b60006020825261143f60208301846117f0565b60208082526034908201527f455243313135353a207472616e7366657220746f206e6f6e204552433131353560408201527f526563656976657220696d706c656d656e746572000000000000000000000000606082015260800190565b60208082526028908201527f455243313135353a204552433131353552656365697665722072656a656374656040820152676420746f6b656e7360c01b606082015260800190565b6020808252602b908201527f455243313135353a2062616c616e636520717565727920666f7220746865207a60408201526a65726f206164647265737360a81b606082015260800190565b60208082526026908201527f4f776e61626c653a206e6577206f776e657220697320746865207a65726f206160408201526564647265737360d01b606082015260800190565b60208082526024908201527f455243313135353a206275726e20616d6f756e7420657863656564732062616c604082015263616e636560e01b606082015260800190565b60208082526029908201527f455243313135353a2063616c6c6572206973206e6f74206f776e6572206e6f7260408201526808185c1c1c9bdd995960ba1b606082015260800190565b60208082526025908201527f455243313135353a207472616e7366657220746f20746865207a65726f206164604082015264647265737360d81b606082015260800190565b60208082526032908201527f455243313135353a207472616e736665722063616c6c6572206973206e6f742060408201527f6f776e6572206e6f7220617070726f7665640000000000000000000000000000606082015260800190565b60208082526023908201527f455243313135353a206275726e2066726f6d20746865207a65726f206164647260408201526265737360e81b606082015260800190565b6020808252602a908201527f455243313135353a20696e73756666696369656e742062616c616e636520666f60408201526939103a3930b739b332b960b11b606082015260800190565b6020808252601e908201527f447261676f6e3a20496e76616c69642065717569706d656e7420747970650000604082015260600190565b6020808252818101527f4f776e61626c653a2063616c6c6572206973206e6f7420746865206f776e6572604082015260600190565b60208082526029908201527f455243313135353a2073657474696e6720617070726f76616c20737461747573604082015268103337b91039b2b63360b91b606082015260800190565b60208082526029908201527f455243313135353a206163636f756e747320616e6420696473206c656e677468604082015268040dad2e6dac2e8c6d60bb1b606082015260800190565b60208082526028908201527f455243313135353a2069647320616e6420616d6f756e7473206c656e677468206040820152670dad2e6dac2e8c6d60c31b606082015260800190565b60208082526021908201527f455243313135353a206d696e7420746f20746865207a65726f206164647265736040820152607360f81b606082015260800190565b6020808252601f908201527f5265656e7472616e637947756172643a207265656e7472616e742063616c6c00604082015260600190565b90815260200190565b918252602082015260400190565b60ff91909116815260200190565b60405181810167ffffffffffffffff81118282101715611e4657611e46611ef6565b604052919050565b600067ffffffffffffffff821115611e6857611e68611ef6565b5060209081020190565b60008219821115611e8557611e85611ee0565b500190565b600281046001821680611e9e57607f821691505b60208210811415611ebf57634e487b7160e01b600052602260045260246000fd5b50919050565b6000600019821415611ed957611ed9611ee0565b5060010190565b634e487b7160e01b600052601160045260246000fd5b634e487b7160e01b600052604160045260246000fd5b60e01c90565b600060443d1015611f225761077f565b600481823e6308c379a0611f368251611f0c565b14611f405761077f565b6040513d600319016004823e80513d67ffffffffffffffff8160248401118184111715611f70575050505061077f565b82840192508251915080821115611f8a575050505061077f565b503d83016020828401011115611fa25750505061077f565b601f01601f1916810160200160405291505090565b6001600160e01b03198116811461096457600080fdfea264697066735822122093dbb882615e125f2a8c33d898cfc338c48be22eff52dae9d7209e1923bb298464736f6c63430008000033",
  "devdoc": {
    "kind": "dev",
    "methods": {
      "balanceOf(address,uint256)": {
        "details": "See {IERC1155-balanceOf}. Requirements: - `account` cannot be the zero address."
      },
      "balanceOfBatch(address[],uint256[])": {
        "details": "See {IERC1155-balanceOfBatch}. Requirements: - `accounts` and `ids` must have the same length."
      },
      "constructor": {
        "params": {
          "_uri_": "string such like \"https://game.example/api/item/{id}.json\""
        }
      },
      "isApprovedForAll(address,address)": {
        "details": "See {IERC1155-isApprovedForAll}."
      },
      "owner()": {
        "details": "Returns the address of the current owner."
      },
      "renounceOwnership()": {
        "details": "Leaves the contract without owner. It will not be possible to call `onlyOwner` functions anymore. Can only be called by the current owner. NOTE: Renouncing ownership will leave the contract without an owner, thereby removing any functionality that is only available to the owner."
      },
      "safeBatchTransferFrom(address,address,uint256[],uint256[],bytes)": {
        "details": "See {IERC1155-safeBatchTransferFrom}."
      },
      "safeTransferFrom(address,address,uint256,uint256,bytes)": {
        "details": "See {IERC1155-safeTransferFrom}."
      },
      "setApprovalForAll(address,bool)": {
        "details": "See {IERC1155-setApprovalForAll}."
      },
      "supportsInterface(bytes4)": {
        "details": "See {IERC165-supportsInterface}."
      },
      "transferOwnership(address)": {
        "details": "Transfers ownership of the contract to a new account (`newOwner`). Can only be called by the current owner."
      },
      "uri(uint256)": {
        "details": "See {IERC1155MetadataURI-uri}. This implementation returns the same URI for *all* token types. It relies on the token type ID substitution mechanism https://eips.ethereum.org/EIPS/eip-1155#metadata[defined in the EIP]. Clients calling this function must replace the `\\{id\\}` substring with the actual token type ID."
      }
    },
    "version": 1
  },
  "userdoc": {
    "kind": "user",
    "methods": {},
    "version": 1
  },
  "storageLayout": {
    "storage": [
      {
        "astId": 261,
        "contract": "contracts/dragon/DragonEquipment.sol:DragonEquipment",
        "label": "_balances",
        "offset": 0,
        "slot": "0",
        "type": "t_mapping(t_uint256,t_mapping(t_address,t_uint256))"
      },
      {
        "astId": 267,
        "contract": "contracts/dragon/DragonEquipment.sol:DragonEquipment",
        "label": "_operatorApprovals",
        "offset": 0,
        "slot": "1",
        "type": "t_mapping(t_address,t_mapping(t_address,t_bool))"
      },
      {
        "astId": 269,
        "contract": "contracts/dragon/DragonEquipment.sol:DragonEquipment",
        "label": "_uri",
        "offset": 0,
        "slot": "2",
        "type": "t_string_storage"
      },
      {
        "astId": 7,
        "contract": "contracts/dragon/DragonEquipment.sol:DragonEquipment",
        "label": "_owner",
        "offset": 0,
        "slot": "3",
        "type": "t_address"
      },
      {
        "astId": 206,
        "contract": "contracts/dragon/DragonEquipment.sol:DragonEquipment",
        "label": "_status",
        "offset": 0,
        "slot": "4",
        "type": "t_uint256"
      },
      {
        "astId": 8103,
        "contract": "contracts/dragon/DragonEquipment.sol:DragonEquipment",
        "label": "EQUIPMENT_BODY",
        "offset": 0,
        "slot": "5",
        "type": "t_uint256"
      },
      {
        "astId": 8107,
        "contract": "contracts/dragon/DragonEquipment.sol:DragonEquipment",
        "label": "EQUIPMENT_ONE_HANDED",
        "offset": 0,
        "slot": "6",
        "type": "t_uint256"
      },
      {
        "astId": 8111,
        "contract": "contracts/dragon/DragonEquipment.sol:DragonEquipment",
        "label": "EQUIPMENT_SHIELD",
        "offset": 0,
        "slot": "7",
        "type": "t_uint256"
      },
      {
        "astId": 8115,
        "contract": "contracts/dragon/DragonEquipment.sol:DragonEquipment",
        "label": "EQUIPMENT_BOTH_HANDED",
        "offset": 0,
        "slot": "8",
        "type": "t_uint256"
      },
      {
        "astId": 7994,
        "contract": "contracts/dragon/DragonEquipment.sol:DragonEquipment",
        "label": "_tokenIds",
        "offset": 0,
        "slot": "9",
        "type": "t_struct(Counter)3893_storage"
      },
      {
        "astId": 7996,
        "contract": "contracts/dragon/DragonEquipment.sol:DragonEquipment",
        "label": "_devWallet",
        "offset": 0,
        "slot": "10",
        "type": "t_address_payable"
      },
      {
        "astId": 8000,
        "contract": "contracts/dragon/DragonEquipment.sol:DragonEquipment",
        "label": "_itemType",
        "offset": 0,
        "slot": "11",
        "type": "t_mapping(t_uint256,t_uint8)"
      }
    ],
    "types": {
      "t_address": {
        "encoding": "inplace",
        "label": "address",
        "numberOfBytes": "20"
      },
      "t_address_payable": {
        "encoding": "inplace",
        "label": "address payable",
        "numberOfBytes": "20"
      },
      "t_bool": {
        "encoding": "inplace",
        "label": "bool",
        "numberOfBytes": "1"
      },
      "t_mapping(t_address,t_bool)": {
        "encoding": "mapping",
        "key": "t_address",
        "label": "mapping(address => bool)",
        "numberOfBytes": "32",
        "value": "t_bool"
      },
      "t_mapping(t_address,t_mapping(t_address,t_bool))": {
        "encoding": "mapping",
        "key": "t_address",
        "label": "mapping(address => mapping(address => bool))",
        "numberOfBytes": "32",
        "value": "t_mapping(t_address,t_bool)"
      },
      "t_mapping(t_address,t_uint256)": {
        "encoding": "mapping",
        "key": "t_address",
        "label": "mapping(address => uint256)",
        "numberOfBytes": "32",
        "value": "t_uint256"
      },
      "t_mapping(t_uint256,t_mapping(t_address,t_uint256))": {
        "encoding": "mapping",
        "key": "t_uint256",
        "label": "mapping(uint256 => mapping(address => uint256))",
        "numberOfBytes": "32",
        "value": "t_mapping(t_address,t_uint256)"
      },
      "t_mapping(t_uint256,t_uint8)": {
        "encoding": "mapping",
        "key": "t_uint256",
        "label": "mapping(uint256 => uint8)",
        "numberOfBytes": "32",
        "value": "t_uint8"
      },
      "t_string_storage": {
        "encoding": "bytes",
        "label": "string",
        "numberOfBytes": "32"
      },
      "t_struct(Counter)3893_storage": {
        "encoding": "inplace",
        "label": "struct Counters.Counter",
        "members": [
          {
            "astId": 3892,
            "contract": "contracts/dragon/DragonEquipment.sol:DragonEquipment",
            "label": "_value",
            "offset": 0,
            "slot": "0",
            "type": "t_uint256"
          }
        ],
        "numberOfBytes": "32"
      },
      "t_uint256": {
        "encoding": "inplace",
        "label": "uint256",
        "numberOfBytes": "32"
      },
      "t_uint8": {
        "encoding": "inplace",
        "label": "uint8",
        "numberOfBytes": "1"
      }
    }
  }
}