{
  "address": "0x1b3Fdc67430d1af13051674628d9424368816F67",
  "abi": [
    {
      "inputs": [
        {
          "internalType": "address",
          "name": "_dev",
          "type": "address"
        }
      ],
      "stateMutability": "nonpayable",
      "type": "constructor"
    },
    {
      "anonymous": false,
      "inputs": [
        {
          "indexed": true,
          "internalType": "address",
          "name": "owner",
          "type": "address"
        },
        {
          "indexed": true,
          "internalType": "address",
          "name": "spender",
          "type": "address"
        },
        {
          "indexed": false,
          "internalType": "uint256",
          "name": "value",
          "type": "uint256"
        }
      ],
      "name": "Approval",
      "type": "event"
    },
    {
      "anonymous": false,
      "inputs": [
        {
          "indexed": true,
          "internalType": "address",
          "name": "previousOwner",
          "type": "address"
        },
        {
          "indexed": true,
          "internalType": "address",
          "name": "newOwner",
          "type": "address"
        }
      ],
      "name": "OwnershipTransferred",
      "type": "event"
    },
    {
      "anonymous": false,
      "inputs": [
        {
          "indexed": true,
          "internalType": "address",
          "name": "from",
          "type": "address"
        },
        {
          "indexed": true,
          "internalType": "address",
          "name": "to",
          "type": "address"
        },
        {
          "indexed": false,
          "internalType": "uint256",
          "name": "value",
          "type": "uint256"
        }
      ],
      "name": "Transfer",
      "type": "event"
    },
    {
      "inputs": [
        {
          "internalType": "address",
          "name": "owner",
          "type": "address"
        },
        {
          "internalType": "address",
          "name": "spender",
          "type": "address"
        }
      ],
      "name": "allowance",
      "outputs": [
        {
          "internalType": "uint256",
          "name": "",
          "type": "uint256"
        }
      ],
      "stateMutability": "view",
      "type": "function"
    },
    {
      "inputs": [
        {
          "internalType": "address",
          "name": "spender",
          "type": "address"
        },
        {
          "internalType": "uint256",
          "name": "amount",
          "type": "uint256"
        }
      ],
      "name": "approve",
      "outputs": [
        {
          "internalType": "bool",
          "name": "",
          "type": "bool"
        }
      ],
      "stateMutability": "nonpayable",
      "type": "function"
    },
    {
      "inputs": [
        {
          "internalType": "address",
          "name": "account",
          "type": "address"
        }
      ],
      "name": "balanceOf",
      "outputs": [
        {
          "internalType": "uint256",
          "name": "",
          "type": "uint256"
        }
      ],
      "stateMutability": "view",
      "type": "function"
    },
    {
      "inputs": [],
      "name": "decimals",
      "outputs": [
        {
          "internalType": "uint8",
          "name": "",
          "type": "uint8"
        }
      ],
      "stateMutability": "view",
      "type": "function"
    },
    {
      "inputs": [
        {
          "internalType": "address",
          "name": "spender",
          "type": "address"
        },
        {
          "internalType": "uint256",
          "name": "subtractedValue",
          "type": "uint256"
        }
      ],
      "name": "decreaseAllowance",
      "outputs": [
        {
          "internalType": "bool",
          "name": "",
          "type": "bool"
        }
      ],
      "stateMutability": "nonpayable",
      "type": "function"
    },
    {
      "inputs": [],
      "name": "faucetLimit",
      "outputs": [
        {
          "internalType": "uint256",
          "name": "",
          "type": "uint256"
        }
      ],
      "stateMutability": "view",
      "type": "function"
    },
    {
      "inputs": [
        {
          "internalType": "uint256",
          "name": "_amount",
          "type": "uint256"
        }
      ],
      "name": "faucetToken",
      "outputs": [],
      "stateMutability": "nonpayable",
      "type": "function"
    },
    {
      "inputs": [
        {
          "internalType": "address",
          "name": "spender",
          "type": "address"
        },
        {
          "internalType": "uint256",
          "name": "addedValue",
          "type": "uint256"
        }
      ],
      "name": "increaseAllowance",
      "outputs": [
        {
          "internalType": "bool",
          "name": "",
          "type": "bool"
        }
      ],
      "stateMutability": "nonpayable",
      "type": "function"
    },
    {
      "inputs": [
        {
          "internalType": "address",
          "name": "_to",
          "type": "address"
        },
        {
          "internalType": "uint256",
          "name": "_amount",
          "type": "uint256"
        }
      ],
      "name": "mint",
      "outputs": [],
      "stateMutability": "nonpayable",
      "type": "function"
    },
    {
      "inputs": [],
      "name": "name",
      "outputs": [
        {
          "internalType": "string",
          "name": "",
          "type": "string"
        }
      ],
      "stateMutability": "view",
      "type": "function"
    },
    {
      "inputs": [],
      "name": "owner",
      "outputs": [
        {
          "internalType": "address",
          "name": "",
          "type": "address"
        }
      ],
      "stateMutability": "view",
      "type": "function"
    },
    {
      "inputs": [],
      "name": "renounceOwnership",
      "outputs": [],
      "stateMutability": "nonpayable",
      "type": "function"
    },
    {
      "inputs": [],
      "name": "symbol",
      "outputs": [
        {
          "internalType": "string",
          "name": "",
          "type": "string"
        }
      ],
      "stateMutability": "view",
      "type": "function"
    },
    {
      "inputs": [],
      "name": "totalSupply",
      "outputs": [
        {
          "internalType": "uint256",
          "name": "",
          "type": "uint256"
        }
      ],
      "stateMutability": "view",
      "type": "function"
    },
    {
      "inputs": [
        {
          "internalType": "address",
          "name": "recipient",
          "type": "address"
        },
        {
          "internalType": "uint256",
          "name": "amount",
          "type": "uint256"
        }
      ],
      "name": "transfer",
      "outputs": [
        {
          "internalType": "bool",
          "name": "",
          "type": "bool"
        }
      ],
      "stateMutability": "nonpayable",
      "type": "function"
    },
    {
      "inputs": [
        {
          "internalType": "address",
          "name": "sender",
          "type": "address"
        },
        {
          "internalType": "address",
          "name": "recipient",
          "type": "address"
        },
        {
          "internalType": "uint256",
          "name": "amount",
          "type": "uint256"
        }
      ],
      "name": "transferFrom",
      "outputs": [
        {
          "internalType": "bool",
          "name": "",
          "type": "bool"
        }
      ],
      "stateMutability": "nonpayable",
      "type": "function"
    },
    {
      "inputs": [
        {
          "internalType": "address",
          "name": "newOwner",
          "type": "address"
        }
      ],
      "name": "transferOwnership",
      "outputs": [],
      "stateMutability": "nonpayable",
      "type": "function"
    }
  ],
  "transactionHash": "0x45df89587a5cfa3bf2aa973c863bec6f7a436ea2f7d011a809ad13bb3b98c361",
  "args": [
    "0x6C641CE6A7216F12d28692f9d8b2BDcdE812eD2b"
  ],
  "solcInputHash": "e55529eb2fb252ddc7ddbb01198edf1e",
  "bytecode": "0x60806040526909cded93541629f00000600655691efaf05b3561207000006007553480156200002d57600080fd5b506040516200125c3803806200125c8339810160408190526200005091620002e2565b604080518082018252601381527f447261676f6e2043727970746f20417572756d000000000000000000000000006020808301918252835180850190945260048452634443415560e01b908401528151919291620000b1916003916200023c565b508051620000c79060049060208401906200023c565b505050620000e4620000de620000ff60201b60201c565b62000103565b620000f8816006546200015560201b60201c565b50620003b4565b3390565b600580546001600160a01b038381166001600160a01b0319831681179093556040519116919082907f8be0079c531659141344cd1fd0a4f28419497f9722a3daafe3b4186f6b6457e090600090a35050565b6001600160a01b038216620001875760405162461bcd60e51b81526004016200017e9062000312565b60405180910390fd5b620001956000838362000237565b8060026000828254620001a9919062000352565b90915550506001600160a01b03821660009081526020819052604081208054839290620001d890849062000352565b90915550506040516001600160a01b038316906000907fddf252ad1be2c89b69c2b068fc378daa952ba7f163c4a11628f55a4df523b3ef906200021d90859062000349565b60405180910390a3620002336000838362000237565b5050565b505050565b8280546200024a9062000377565b90600052602060002090601f0160209004810192826200026e5760008555620002b9565b82601f106200028957805160ff1916838001178555620002b9565b82800160010185558215620002b9579182015b82811115620002b95782518255916020019190600101906200029c565b50620002c7929150620002cb565b5090565b5b80821115620002c75760008155600101620002cc565b600060208284031215620002f4578081fd5b81516001600160a01b03811681146200030b578182fd5b9392505050565b6020808252601f908201527f45524332303a206d696e7420746f20746865207a65726f206164647265737300604082015260600190565b90815260200190565b600082198211156200037257634e487b7160e01b81526011600452602481fd5b500190565b6002810460018216806200038c57607f821691505b60208210811415620003ae57634e487b7160e01b600052602260045260246000fd5b50919050565b610e9880620003c46000396000f3fe608060405234801561001057600080fd5b506004361061010b5760003560e01c806370a08231116100a257806395d89b411161007157806395d89b41146101fe578063a457c2d714610206578063a9059cbb14610219578063dd62ed3e1461022c578063f2fde38b1461023f5761010b565b806370a08231146101bb578063715018a6146101ce5780637f846d46146101d65780638da5cb5b146101e95761010b565b8063313ce567116100de578063313ce56714610176578063395093511461018b57806340c10f191461019e5780636544e439146101b35761010b565b806306fdde0314610110578063095ea7b31461012e57806318160ddd1461014e57806323b872dd14610163575b600080fd5b610118610252565b6040516101259190610a98565b60405180910390f35b61014161013c366004610a38565b6102e4565b6040516101259190610a8d565b610156610301565b6040516101259190610dec565b6101416101713660046109fd565b610307565b61017e6103a0565b6040516101259190610df5565b610141610199366004610a38565b6103a5565b6101b16101ac366004610a38565b6103f9565b005b61015661046f565b6101566101c93660046109aa565b61047d565b6101b161049c565b6101b16101e4366004610a61565b6104e7565b6101f1610541565b6040516101259190610a79565b610118610550565b610141610214366004610a38565b61055f565b610141610227366004610a38565b6105d8565b61015661023a3660046109cb565b6105ec565b6101b161024d3660046109aa565b610617565b60606003805461026190610e27565b80601f016020809104026020016040519081016040528092919081815260200182805461028d90610e27565b80156102da5780601f106102af576101008083540402835291602001916102da565b820191906000526020600020905b8154815290600101906020018083116102bd57829003601f168201915b5050505050905090565b60006102f86102f1610685565b8484610689565b50600192915050565b60025490565b600061031484848461073d565b6001600160a01b038416600090815260016020526040812081610335610685565b6001600160a01b03166001600160a01b03168152602001908152602001600020549050828110156103815760405162461bcd60e51b815260040161037890610c6a565b60405180910390fd5b6103958561038d610685565b858403610689565b506001949350505050565b601290565b60006102f86103b2610685565b8484600160006103c0610685565b6001600160a01b03908116825260208083019390935260409182016000908120918b16815292529020546103f49190610e03565b610689565b610401610685565b6001600160a01b0316610412610541565b6001600160a01b0316146104385760405162461bcd60e51b815260040161037890610cb2565b600754610443610301565b11156104615760405162461bcd60e51b815260040161037890610c33565b61046b8282610867565b5050565b6969e10de76676d080000081565b6001600160a01b0381166000908152602081905260409020545b919050565b6104a4610685565b6001600160a01b03166104b5610541565b6001600160a01b0316146104db5760405162461bcd60e51b815260040161037890610cb2565b6104e5600061092f565b565b6104ef610541565b6001600160a01b0316336001600160a01b0316148061051857506969e10de76676d08000008111155b6105345760405162461bcd60e51b815260040161037890610b2e565b61053e3382610867565b50565b6005546001600160a01b031690565b60606004805461026190610e27565b6000806001600061056e610685565b6001600160a01b03908116825260208083019390935260409182016000908120918816815292529020549050828110156105ba5760405162461bcd60e51b815260040161037890610d70565b6105ce6105c5610685565b85858403610689565b5060019392505050565b60006102f86105e5610685565b848461073d565b6001600160a01b03918216600090815260016020908152604080832093909416825291909152205490565b61061f610685565b6001600160a01b0316610630610541565b6001600160a01b0316146106565760405162461bcd60e51b815260040161037890610cb2565b6001600160a01b03811661067c5760405162461bcd60e51b815260040161037890610b65565b61053e8161092f565b3390565b6001600160a01b0383166106af5760405162461bcd60e51b815260040161037890610d2c565b6001600160a01b0382166106d55760405162461bcd60e51b815260040161037890610bab565b6001600160a01b0380841660008181526001602090815260408083209487168084529490915290819020849055517f8c5be1e5ebec7d5bd14f71427d1e84f3dd0314c0f7b2291e5b200ac8c7c3b92590610730908590610dec565b60405180910390a3505050565b6001600160a01b0383166107635760405162461bcd60e51b815260040161037890610ce7565b6001600160a01b0382166107895760405162461bcd60e51b815260040161037890610aeb565b61079483838361098e565b6001600160a01b038316600090815260208190526040902054818110156107cd5760405162461bcd60e51b815260040161037890610bed565b6001600160a01b03808516600090815260208190526040808220858503905591851681529081208054849290610804908490610e03565b92505081905550826001600160a01b0316846001600160a01b03167fddf252ad1be2c89b69c2b068fc378daa952ba7f163c4a11628f55a4df523b3ef8460405161084e9190610dec565b60405180910390a361086184848461098e565b50505050565b6001600160a01b03821661088d5760405162461bcd60e51b815260040161037890610db5565b6108996000838361098e565b80600260008282546108ab9190610e03565b90915550506001600160a01b038216600090815260208190526040812080548392906108d8908490610e03565b90915550506040516001600160a01b038316906000907fddf252ad1be2c89b69c2b068fc378daa952ba7f163c4a11628f55a4df523b3ef9061091b908590610dec565b60405180910390a361046b6000838361098e565b600580546001600160a01b0383811673ffffffffffffffffffffffffffffffffffffffff19831681179093556040519116919082907f8be0079c531659141344cd1fd0a4f28419497f9722a3daafe3b4186f6b6457e090600090a35050565b505050565b80356001600160a01b038116811461049757600080fd5b6000602082840312156109bb578081fd5b6109c482610993565b9392505050565b600080604083850312156109dd578081fd5b6109e683610993565b91506109f460208401610993565b90509250929050565b600080600060608486031215610a11578081fd5b610a1a84610993565b9250610a2860208501610993565b9150604084013590509250925092565b60008060408385031215610a4a578182fd5b610a5383610993565b946020939093013593505050565b600060208284031215610a72578081fd5b5035919050565b6001600160a01b0391909116815260200190565b901515815260200190565b6000602080835283518082850152825b81811015610ac457858101830151858201604001528201610aa8565b81811115610ad55783604083870101525b50601f01601f1916929092016040019392505050565b60208082526023908201527f45524332303a207472616e7366657220746f20746865207a65726f206164647260408201526265737360e81b606082015260800190565b60208082526018908201527f46617563657420616d6f756e74206c696d69746174696f6e0000000000000000604082015260600190565b60208082526026908201527f4f776e61626c653a206e6577206f776e657220697320746865207a65726f206160408201526564647265737360d01b606082015260800190565b60208082526022908201527f45524332303a20617070726f766520746f20746865207a65726f206164647265604082015261737360f01b606082015260800190565b60208082526026908201527f45524332303a207472616e7366657220616d6f756e7420657863656564732062604082015265616c616e636560d01b606082015260800190565b6020808252601d908201527f447261676f6e3a204d696e74207265616368656420746f206c696d6974000000604082015260600190565b60208082526028908201527f45524332303a207472616e7366657220616d6f756e74206578636565647320616040820152676c6c6f77616e636560c01b606082015260800190565b6020808252818101527f4f776e61626c653a2063616c6c6572206973206e6f7420746865206f776e6572604082015260600190565b60208082526025908201527f45524332303a207472616e736665722066726f6d20746865207a65726f206164604082015264647265737360d81b606082015260800190565b60208082526024908201527f45524332303a20617070726f76652066726f6d20746865207a65726f206164646040820152637265737360e01b606082015260800190565b60208082526025908201527f45524332303a2064656372656173656420616c6c6f77616e63652062656c6f77604082015264207a65726f60d81b606082015260800190565b6020808252601f908201527f45524332303a206d696e7420746f20746865207a65726f206164647265737300604082015260600190565b90815260200190565b60ff91909116815260200190565b60008219821115610e2257634e487b7160e01b81526011600452602481fd5b500190565b600281046001821680610e3b57607f821691505b60208210811415610e5c57634e487b7160e01b600052602260045260246000fd5b5091905056fea2646970667358221220e70011e94bdf0b68199f9525152feb0852a92323dbca2faa36fb59ddf609933564736f6c63430008000033",
  "devdoc": {
    "kind": "dev",
    "methods": {
      "allowance(address,address)": {
        "details": "See {IERC20-allowance}."
      },
      "approve(address,uint256)": {
        "details": "See {IERC20-approve}. Requirements: - `spender` cannot be the zero address."
      },
      "balanceOf(address)": {
        "details": "See {IERC20-balanceOf}."
      },
      "decimals()": {
        "details": "Returns the number of decimals used to get its user representation. For example, if `decimals` equals `2`, a balance of `505` tokens should be displayed to a user as `5.05` (`505 / 10 ** 2`). Tokens usually opt for a value of 18, imitating the relationship between Ether and Wei. This is the value {ERC20} uses, unless this function is overridden; NOTE: This information is only used for _display_ purposes: it in no way affects any of the arithmetic of the contract, including {IERC20-balanceOf} and {IERC20-transfer}."
      },
      "decreaseAllowance(address,uint256)": {
        "details": "Atomically decreases the allowance granted to `spender` by the caller. This is an alternative to {approve} that can be used as a mitigation for problems described in {IERC20-approve}. Emits an {Approval} event indicating the updated allowance. Requirements: - `spender` cannot be the zero address. - `spender` must have allowance for the caller of at least `subtractedValue`."
      },
      "increaseAllowance(address,uint256)": {
        "details": "Atomically increases the allowance granted to `spender` by the caller. This is an alternative to {approve} that can be used as a mitigation for problems described in {IERC20-approve}. Emits an {Approval} event indicating the updated allowance. Requirements: - `spender` cannot be the zero address."
      },
      "name()": {
        "details": "Returns the name of the token."
      },
      "owner()": {
        "details": "Returns the address of the current owner."
      },
      "renounceOwnership()": {
        "details": "Leaves the contract without owner. It will not be possible to call `onlyOwner` functions anymore. Can only be called by the current owner. NOTE: Renouncing ownership will leave the contract without an owner, thereby removing any functionality that is only available to the owner."
      },
      "symbol()": {
        "details": "Returns the symbol of the token, usually a shorter version of the name."
      },
      "totalSupply()": {
        "details": "See {IERC20-totalSupply}."
      },
      "transfer(address,uint256)": {
        "details": "See {IERC20-transfer}. Requirements: - `recipient` cannot be the zero address. - the caller must have a balance of at least `amount`."
      },
      "transferFrom(address,address,uint256)": {
        "details": "See {IERC20-transferFrom}. Emits an {Approval} event indicating the updated allowance. This is not required by the EIP. See the note at the beginning of {ERC20}. Requirements: - `sender` and `recipient` cannot be the zero address. - `sender` must have a balance of at least `amount`. - the caller must have allowance for ``sender``'s tokens of at least `amount`."
      },
      "transferOwnership(address)": {
        "details": "Transfers ownership of the contract to a new account (`newOwner`). Can only be called by the current owner."
      }
    },
    "version": 1
  },
  "userdoc": {
    "kind": "user",
    "methods": {
      "mint(address,uint256)": {
        "notice": "Creates `_amount` token to `_to`. Must only be called by the owner (MasterChef)."
      }
    },
    "version": 1
  },
  "storageLayout": {
    "storage": [
      {
        "astId": 1579,
        "contract": "contracts/mocks/MockDCAU.sol:MockDCAUXXX",
        "label": "_balances",
        "offset": 0,
        "slot": "0",
        "type": "t_mapping(t_address,t_uint256)"
      },
      {
        "astId": 1585,
        "contract": "contracts/mocks/MockDCAU.sol:MockDCAUXXX",
        "label": "_allowances",
        "offset": 0,
        "slot": "1",
        "type": "t_mapping(t_address,t_mapping(t_address,t_uint256))"
      },
      {
        "astId": 1587,
        "contract": "contracts/mocks/MockDCAU.sol:MockDCAUXXX",
        "label": "_totalSupply",
        "offset": 0,
        "slot": "2",
        "type": "t_uint256"
      },
      {
        "astId": 1589,
        "contract": "contracts/mocks/MockDCAU.sol:MockDCAUXXX",
        "label": "_name",
        "offset": 0,
        "slot": "3",
        "type": "t_string_storage"
      },
      {
        "astId": 1591,
        "contract": "contracts/mocks/MockDCAU.sol:MockDCAUXXX",
        "label": "_symbol",
        "offset": 0,
        "slot": "4",
        "type": "t_string_storage"
      },
      {
        "astId": 7,
        "contract": "contracts/mocks/MockDCAU.sol:MockDCAUXXX",
        "label": "_owner",
        "offset": 0,
        "slot": "5",
        "type": "t_address"
      },
      {
        "astId": 9971,
        "contract": "contracts/mocks/MockDCAU.sol:MockDCAUXXX",
        "label": "_initialMint",
        "offset": 0,
        "slot": "6",
        "type": "t_uint256"
      },
      {
        "astId": 9979,
        "contract": "contracts/mocks/MockDCAU.sol:MockDCAUXXX",
        "label": "_limitAmount",
        "offset": 0,
        "slot": "7",
        "type": "t_uint256"
      }
    ],
    "types": {
      "t_address": {
        "encoding": "inplace",
        "label": "address",
        "numberOfBytes": "20"
      },
      "t_mapping(t_address,t_mapping(t_address,t_uint256))": {
        "encoding": "mapping",
        "key": "t_address",
        "label": "mapping(address => mapping(address => uint256))",
        "numberOfBytes": "32",
        "value": "t_mapping(t_address,t_uint256)"
      },
      "t_mapping(t_address,t_uint256)": {
        "encoding": "mapping",
        "key": "t_address",
        "label": "mapping(address => uint256)",
        "numberOfBytes": "32",
        "value": "t_uint256"
      },
      "t_string_storage": {
        "encoding": "bytes",
        "label": "string",
        "numberOfBytes": "32"
      },
      "t_uint256": {
        "encoding": "inplace",
        "label": "uint256",
        "numberOfBytes": "32"
      }
    }
  }
}