{
  "address": "0x5c4714D4ACfC08bF6D12907428dD23DD291afceA",
  "abi": [
    {
      "anonymous": false,
      "inputs": [
        {
          "indexed": true,
          "internalType": "address",
          "name": "strat",
          "type": "address"
        },
        {
          "indexed": true,
          "internalType": "uint256",
          "name": "pid",
          "type": "uint256"
        }
      ],
      "name": "AddPool",
      "type": "event"
    },
    {
      "anonymous": false,
      "inputs": [
        {
          "indexed": true,
          "internalType": "address",
          "name": "user",
          "type": "address"
        },
        {
          "indexed": true,
          "internalType": "uint256",
          "name": "pid",
          "type": "uint256"
        },
        {
          "indexed": false,
          "internalType": "uint256",
          "name": "amount",
          "type": "uint256"
        }
      ],
      "name": "Deposit",
      "type": "event"
    },
    {
      "anonymous": false,
      "inputs": [
        {
          "indexed": true,
          "internalType": "address",
          "name": "operator",
          "type": "address"
        },
        {
          "indexed": true,
          "internalType": "bool",
          "name": "status",
          "type": "bool"
        }
      ],
      "name": "OperatorUpdated",
      "type": "event"
    },
    {
      "anonymous": false,
      "inputs": [
        {
          "indexed": true,
          "internalType": "address",
          "name": "previousOwner",
          "type": "address"
        },
        {
          "indexed": true,
          "internalType": "address",
          "name": "newOwner",
          "type": "address"
        }
      ],
      "name": "OwnershipTransferred",
      "type": "event"
    },
    {
      "anonymous": false,
      "inputs": [
        {
          "indexed": true,
          "internalType": "address",
          "name": "user",
          "type": "address"
        }
      ],
      "name": "ResetAllowance",
      "type": "event"
    },
    {
      "anonymous": false,
      "inputs": [
        {
          "indexed": true,
          "internalType": "address",
          "name": "user",
          "type": "address"
        },
        {
          "indexed": true,
          "internalType": "uint256",
          "name": "pid",
          "type": "uint256"
        }
      ],
      "name": "ResetSingleAllowance",
      "type": "event"
    },
    {
      "anonymous": false,
      "inputs": [
        {
          "indexed": true,
          "internalType": "address",
          "name": "user",
          "type": "address"
        },
        {
          "indexed": true,
          "internalType": "uint256",
          "name": "pid",
          "type": "uint256"
        },
        {
          "indexed": false,
          "internalType": "uint256",
          "name": "amount",
          "type": "uint256"
        }
      ],
      "name": "Withdraw",
      "type": "event"
    },
    {
      "inputs": [
        {
          "internalType": "address",
          "name": "_strat",
          "type": "address"
        }
      ],
      "name": "addPool",
      "outputs": [],
      "stateMutability": "nonpayable",
      "type": "function"
    },
    {
      "inputs": [
        {
          "internalType": "uint256",
          "name": "_pid",
          "type": "uint256"
        },
        {
          "internalType": "uint256",
          "name": "_wantAmt",
          "type": "uint256"
        }
      ],
      "name": "deposit",
      "outputs": [],
      "stateMutability": "nonpayable",
      "type": "function"
    },
    {
      "inputs": [
        {
          "internalType": "uint256",
          "name": "_pid",
          "type": "uint256"
        },
        {
          "internalType": "uint256",
          "name": "_wantAmt",
          "type": "uint256"
        },
        {
          "internalType": "address",
          "name": "_to",
          "type": "address"
        }
      ],
      "name": "depositTo",
      "outputs": [],
      "stateMutability": "nonpayable",
      "type": "function"
    },
    {
      "inputs": [
        {
          "internalType": "address",
          "name": "",
          "type": "address"
        }
      ],
      "name": "operators",
      "outputs": [
        {
          "internalType": "bool",
          "name": "",
          "type": "bool"
        }
      ],
      "stateMutability": "view",
      "type": "function"
    },
    {
      "inputs": [],
      "name": "owner",
      "outputs": [
        {
          "internalType": "address",
          "name": "",
          "type": "address"
        }
      ],
      "stateMutability": "view",
      "type": "function"
    },
    {
      "inputs": [
        {
          "internalType": "uint256",
          "name": "",
          "type": "uint256"
        }
      ],
      "name": "poolInfo",
      "outputs": [
        {
          "internalType": "contract IERC20",
          "name": "want",
          "type": "address"
        },
        {
          "internalType": "address",
          "name": "strat",
          "type": "address"
        }
      ],
      "stateMutability": "view",
      "type": "function"
    },
    {
      "inputs": [],
      "name": "poolLength",
      "outputs": [
        {
          "internalType": "uint256",
          "name": "",
          "type": "uint256"
        }
      ],
      "stateMutability": "view",
      "type": "function"
    },
    {
      "inputs": [],
      "name": "renounceOwnership",
      "outputs": [],
      "stateMutability": "nonpayable",
      "type": "function"
    },
    {
      "inputs": [],
      "name": "resetAllowances",
      "outputs": [],
      "stateMutability": "nonpayable",
      "type": "function"
    },
    {
      "inputs": [
        {
          "internalType": "uint256",
          "name": "_pid",
          "type": "uint256"
        }
      ],
      "name": "resetSingleAllowance",
      "outputs": [],
      "stateMutability": "nonpayable",
      "type": "function"
    },
    {
      "inputs": [
        {
          "internalType": "uint256",
          "name": "_pid",
          "type": "uint256"
        },
        {
          "internalType": "address",
          "name": "_user",
          "type": "address"
        }
      ],
      "name": "stakedWantTokens",
      "outputs": [
        {
          "internalType": "uint256",
          "name": "",
          "type": "uint256"
        }
      ],
      "stateMutability": "view",
      "type": "function"
    },
    {
      "inputs": [
        {
          "internalType": "address",
          "name": "newOwner",
          "type": "address"
        }
      ],
      "name": "transferOwnership",
      "outputs": [],
      "stateMutability": "nonpayable",
      "type": "function"
    },
    {
      "inputs": [
        {
          "internalType": "address",
          "name": "_operator",
          "type": "address"
        },
        {
          "internalType": "bool",
          "name": "_status",
          "type": "bool"
        }
      ],
      "name": "updateOperator",
      "outputs": [],
      "stateMutability": "nonpayable",
      "type": "function"
    },
    {
      "inputs": [
        {
          "internalType": "uint256",
          "name": "",
          "type": "uint256"
        },
        {
          "internalType": "address",
          "name": "",
          "type": "address"
        }
      ],
      "name": "userInfo",
      "outputs": [
        {
          "internalType": "uint256",
          "name": "shares",
          "type": "uint256"
        }
      ],
      "stateMutability": "view",
      "type": "function"
    },
    {
      "inputs": [
        {
          "internalType": "uint256",
          "name": "_pid",
          "type": "uint256"
        },
        {
          "internalType": "uint256",
          "name": "_wantAmt",
          "type": "uint256"
        }
      ],
      "name": "withdraw",
      "outputs": [],
      "stateMutability": "nonpayable",
      "type": "function"
    },
    {
      "inputs": [
        {
          "internalType": "uint256",
          "name": "_pid",
          "type": "uint256"
        }
      ],
      "name": "withdrawAll",
      "outputs": [],
      "stateMutability": "nonpayable",
      "type": "function"
    },
    {
      "inputs": [
        {
          "internalType": "uint256",
          "name": "_pid",
          "type": "uint256"
        },
        {
          "internalType": "uint256",
          "name": "_wantAmt",
          "type": "uint256"
        },
        {
          "internalType": "address",
          "name": "_to",
          "type": "address"
        }
      ],
      "name": "withdrawTo",
      "outputs": [],
      "stateMutability": "nonpayable",
      "type": "function"
    }
  ],
  "transactionHash": "0x2f7bfe4ba068571fbdfe7dcb31a4631cd093d40871b4fa9ee3516d1dbacaf7be",
  "args": [],
  "solcInputHash": "1cf95036643e9f56802b68e3c57a742c",
  "bytecode": "0x608060405234801561001057600080fd5b5061002161001c61002a565b61002e565b6001805561007e565b3390565b600080546001600160a01b038381166001600160a01b0319831681178455604051919092169283917f8be0079c531659141344cd1fd0a4f28419497f9722a3daafe3b4186f6b6457e09190a35050565b611c6f8061008d6000396000f3fe608060405234801561001057600080fd5b506004361061010b5760003560e01c8063715018a6116100a2578063958e2d3111610071578063958e2d31146102085780639a269e0c1461021b578063d914cd4b1461022e578063e2bbb15814610241578063f2fde38b146102545761010b565b8063715018a6146101c55780637b84daec146101cd5780638da5cb5b146101e057806393f1a40b146101f55761010b565b806323e1ad7d116100de57806323e1ad7d146101845780633505b09f14610197578063441a3e701461019f5780636d44a3b2146101b25761010b565b8063081e3eda1461011057806313e7c9d81461012e57806314cd70e41461014e5780631526fe2714610163575b600080fd5b610118610267565b6040516101259190611b42565b60405180910390f35b61014161013c36600461164e565b61026d565b604051610125919061180e565b61016161015c36600461174f565b610282565b005b6101766101713660046116da565b6102f9565b6040516101259291906117b7565b6101616101923660046116da565b610332565b610161610429565b6101616101ad36600461172e565b61053e565b6101616101c0366004611686565b610579565b61016161060c565b6101186101db36600461170a565b610657565b6101e86107eb565b60405161012591906117a3565b61011861020336600461170a565b6107fa565b6101616102163660046116da565b610817565b61016161022936600461174f565b610853565b61016161023c36600461164e565b6108b8565b61016161024f36600461172e565b610b9e565b61016161026236600461164e565b610bd1565b60035490565b60026020526000908152604090205460ff1681565b600260015414156102ae5760405162461bcd60e51b81526004016102a590611a6a565b60405180910390fd5b60026001819055336000908152602091909152604090205460ff166102e55760405162461bcd60e51b81526004016102a590611afe565b6102f0838383610c42565b50506001805550565b6003818154811061030957600080fd5b6000918252602090912060029091020180546001909101546001600160a01b0391821692501682565b61033a610fa5565b6001600160a01b031661034b6107eb565b6001600160a01b0316146103715760405162461bcd60e51b81526004016102a59061197d565b60006003828154811061039457634e487b7160e01b600052603260045260246000fd5b60009182526020822060016002909202019081015481549193506103c7926001600160a01b039283169290911690610fa9565b600181015481546103e7916001600160a01b0391821691166000196110d5565b816103f06107eb565b6001600160a01b03167f2c9bf56b214176331295043f946fec75ef4734c978c591c6d08fe7d45f9132d860405160405180910390a35050565b610431610fa5565b6001600160a01b03166104426107eb565b6001600160a01b0316146104685760405162461bcd60e51b81526004016102a59061197d565b60005b6003548110156104fe5760006003828154811061049857634e487b7160e01b600052603260045260246000fd5b60009182526020822060016002909202019081015481549193506104cb926001600160a01b039283169290911690610fa9565b600181015481546104eb916001600160a01b0391821691166000196110d5565b50806104f681611be5565b91505061046b565b506105076107eb565b6001600160a01b03167fe9c2678ff6b16779478ca0ff73f9face6adeb21fffd1b2ffd6ee79794c51294b60405160405180910390a2565b600260015414156105615760405162461bcd60e51b81526004016102a590611a6a565b6002600155610571828233610c42565b505060018055565b610581610fa5565b6001600160a01b03166105926107eb565b6001600160a01b0316146105b85760405162461bcd60e51b81526004016102a59061197d565b6001600160a01b038216600081815260026020526040808220805460ff191685151590811790915590519092917f966c160e1c4dbc7df8d69af4ace01e9297c3cf016397b7914971f2fbfa32672d91a35050565b610614610fa5565b6001600160a01b03166106256107eb565b6001600160a01b03161461064b5760405162461bcd60e51b81526004016102a59061197d565b6106556000611187565b565b6000806003848154811061067b57634e487b7160e01b600052603260045260246000fd5b60009182526020808320878452600480835260408086206001600160a01b03808b16885290855281872060016002909702909401958601548251632251caaf60e11b815292519698509396959316936344a3955e93828401939192909190829003018186803b1580156106ed57600080fd5b505afa158015610701573d6000803e3d6000fd5b505050506040513d601f19601f8201168201806040525081019061072591906116f2565b905060008360010160009054906101000a90046001600160a01b03166001600160a01b03166342da4eb36040518163ffffffff1660e01b815260040160206040518083038186803b15801561077957600080fd5b505afa15801561078d573d6000803e3d6000fd5b505050506040513d601f19601f820116820180604052508101906107b191906116f2565b9050816107c55760009450505050506107e5565b825482906107d4908390611b83565b6107de9190611b63565b9450505050505b92915050565b6000546001600160a01b031690565b600460209081526000928352604080842090915290825290205481565b6002600154141561083a5760405162461bcd60e51b81526004016102a590611a6a565b600260015561084c8160001933610c42565b5060018055565b600260015414156108765760405162461bcd60e51b81526004016102a590611a6a565b60026001819055336000908152602091909152604090205460ff166108ad5760405162461bcd60e51b81526004016102a590611afe565b6102f08383836111e4565b6108c0610fa5565b6001600160a01b03166108d16107eb565b6001600160a01b0316146108f75760405162461bcd60e51b81526004016102a59061197d565b6002600154141561091a5760405162461bcd60e51b81526004016102a590611a6a565b60026001556001600160a01b03811660009081526005602052604090205460ff16156109585760405162461bcd60e51b81526004016102a590611946565b806001600160a01b031663e7a036796040518163ffffffff1660e01b815260040160206040518083038186803b15801561099157600080fd5b505afa1580156109a5573d6000803e3d6000fd5b505050506040513d601f19601f820116820180604052508101906109c9919061166a565b6001600160a01b031663dd62ed3e30836040518363ffffffff1660e01b81526004016109f69291906117b7565b60206040518083038186803b158015610a0e57600080fd5b505afa158015610a22573d6000803e3d6000fd5b505050506040513d601f19601f82011682018060405250810190610a4691906116f2565b5060036040518060400160405280836001600160a01b031663e7a036796040518163ffffffff1660e01b815260040160206040518083038186803b158015610a8d57600080fd5b505afa158015610aa1573d6000803e3d6000fd5b505050506040513d601f19601f82011682018060405250810190610ac5919061166a565b6001600160a01b039081168252848116602092830181905284546001818101875560009687528487208651600290930201805492851673ffffffffffffffffffffffffffffffffffffffff199384161781559585015195810180549690941695909116949094179091558352600590526040909120805460ff191682179055600354610b549161019291611ba2565b600354610b6390600190611ba2565b6040516001600160a01b038316907ff5d252583cd714facf6cafc09e6ed202a7cb8f2ceec3d3b9102b12b0fe4d4be690600090a35060018055565b60026001541415610bc15760405162461bcd60e51b81526004016102a590611a6a565b60026001556105718282336111e4565b610bd9610fa5565b6001600160a01b0316610bea6107eb565b6001600160a01b031614610c105760405162461bcd60e51b81526004016102a59061197d565b6001600160a01b038116610c365760405162461bcd60e51b81526004016102a59061184c565b610c3f81611187565b50565b600060038481548110610c6557634e487b7160e01b600052603260045260246000fd5b60009182526020808320878452600480835260408086203387528452808620600295909502909201600181015483516342da4eb360e01b815293519197509495946001600160a01b0316936342da4eb3938084019391929190829003018186803b158015610cd257600080fd5b505afa158015610ce6573d6000803e3d6000fd5b505050506040513d601f19601f82011682018060405250810190610d0a91906116f2565b905060008360010160009054906101000a90046001600160a01b03166001600160a01b03166344a3955e6040518163ffffffff1660e01b815260040160206040518083038186803b158015610d5e57600080fd5b505afa158015610d72573d6000803e3d6000fd5b505050506040513d601f19601f82011682018060405250810190610d9691906116f2565b8354909150610db75760405162461bcd60e51b81526004016102a590611892565b60008111610dd75760405162461bcd60e51b81526004016102a5906119b2565b600081838560000154610dea9190611b83565b610df49190611b63565b905080871115610e02578096505b8615610f59576001850154604051632e1a7d4d60e01b81526000916001600160a01b031690632e1a7d4d90610e3b908b90600401611b42565b602060405180830381600087803b158015610e5557600080fd5b505af1158015610e69573d6000803e3d6000fd5b505050506040513d601f19601f82011682018060405250810190610e8d91906116f2565b8554909150811115610ea25760008555610eb2565b8454610eaf908290611ba2565b85555b85546040516370a0823160e01b81526000916001600160a01b0316906370a0823190610ee29030906004016117a3565b60206040518083038186803b158015610efa57600080fd5b505afa158015610f0e573d6000803e3d6000fd5b505050506040513d601f19601f82011682018060405250810190610f3291906116f2565b905088811015610f40578098505b8654610f56906001600160a01b0316898b611467565b50505b87336001600160a01b03167ff279e6a1f5e320cca91135676d9cb6e44ca8a08c0b88342bcdb1144f6511b56889604051610f939190611b42565b60405180910390a35050505050505050565b3390565b8015806110315750604051636eb1769f60e11b81526001600160a01b0384169063dd62ed3e90610fdf90309086906004016117b7565b60206040518083038186803b158015610ff757600080fd5b505afa15801561100b573d6000803e3d6000fd5b505050506040513d601f19601f8201168201806040525081019061102f91906116f2565b155b61104d5760405162461bcd60e51b81526004016102a590611aa1565b6110d08363095ea7b360e01b848460405160240161106c9291906117f5565b60408051601f198184030181529190526020810180517bffffffffffffffffffffffffffffffffffffffffffffffffffffffff167fffffffff0000000000000000000000000000000000000000000000000000000090931692909217909152611486565b505050565b600081846001600160a01b031663dd62ed3e30866040518363ffffffff1660e01b81526004016111069291906117b7565b60206040518083038186803b15801561111e57600080fd5b505afa158015611132573d6000803e3d6000fd5b505050506040513d601f19601f8201168201806040525081019061115691906116f2565b6111609190611b4b565b90506111818463095ea7b360e01b858460405160240161106c9291906117f5565b50505050565b600080546001600160a01b0383811673ffffffffffffffffffffffffffffffffffffffff19831681178455604051919092169283917f8be0079c531659141344cd1fd0a4f28419497f9722a3daafe3b4186f6b6457e09190a35050565b60006003848154811061120757634e487b7160e01b600052603260045260246000fd5b600091825260208083208784526004825260408085206001600160a01b0388168652909252922060029091029091019150831561141e5781546040516370a0823160e01b81526001600160a01b039091169060009082906370a08231906112729030906004016117a3565b60206040518083038186803b15801561128a57600080fd5b505afa15801561129e573d6000803e3d6000fd5b505050506040513d601f19601f820116820180604052508101906112c291906116f2565b90506112d96001600160a01b038316333089611515565b6040516370a0823160e01b815281906001600160a01b038416906370a08231906113079030906004016117a3565b60206040518083038186803b15801561131f57600080fd5b505afa158015611333573d6000803e3d6000fd5b505050506040513d601f19601f8201168201806040525081019061135791906116f2565b6113619190611ba2565b9550600086116113835760405162461bcd60e51b81526004016102a5906118c9565b600184015460405163b6b55f2560e01b81526000916001600160a01b03169063b6b55f25906113b6908a90600401611b42565b602060405180830381600087803b1580156113d057600080fd5b505af11580156113e4573d6000803e3d6000fd5b505050506040513d601f19601f8201168201806040525081019061140891906116f2565b8454909150611418908290611b4b565b84555050505b84836001600160a01b03167f90890809c654f11d6e72a28fa60149770a0d11ec6c92319d6ceb2bb0a4ea1a15866040516114589190611b42565b60405180910390a35050505050565b6110d08363a9059cbb60e01b848460405160240161106c9291906117f5565b60006114db826040518060400160405280602081526020017f5361666545524332303a206c6f772d6c6576656c2063616c6c206661696c6564815250856001600160a01b03166115369092919063ffffffff16565b8051909150156110d057808060200190518101906114f991906116be565b6110d05760405162461bcd60e51b81526004016102a590611a20565b611181846323b872dd60e01b85858560405160240161106c939291906117d1565b6060611545848460008561154f565b90505b9392505050565b6060824710156115715760405162461bcd60e51b81526004016102a590611900565b61157a8561160f565b6115965760405162461bcd60e51b81526004016102a5906119e9565b600080866001600160a01b031685876040516115b29190611787565b60006040518083038185875af1925050503d80600081146115ef576040519150601f19603f3d011682016040523d82523d6000602084013e6115f4565b606091505b5091509150611604828286611615565b979650505050505050565b3b151590565b60608315611624575081611548565b8251156116345782518084602001fd5b8160405162461bcd60e51b81526004016102a59190611819565b60006020828403121561165f578081fd5b813561154881611c16565b60006020828403121561167b578081fd5b815161154881611c16565b60008060408385031215611698578081fd5b82356116a381611c16565b915060208301356116b381611c2b565b809150509250929050565b6000602082840312156116cf578081fd5b815161154881611c2b565b6000602082840312156116eb578081fd5b5035919050565b600060208284031215611703578081fd5b5051919050565b6000806040838503121561171c578182fd5b8235915060208301356116b381611c16565b60008060408385031215611740578182fd5b50508035926020909101359150565b600080600060608486031215611763578081fd5b8335925060208401359150604084013561177c81611c16565b809150509250925092565b60008251611799818460208701611bb9565b9190910192915050565b6001600160a01b0391909116815260200190565b6001600160a01b0392831681529116602082015260400190565b6001600160a01b039384168152919092166020820152604081019190915260600190565b6001600160a01b03929092168252602082015260400190565b901515815260200190565b6000602082528251806020840152611838816040850160208701611bb9565b601f01601f19169190910160400192915050565b60208082526026908201527f4f776e61626c653a206e6577206f776e657220697320746865207a65726f206160408201526564647265737360d01b606082015260800190565b60208082526010908201527f757365722e736861726573206973203000000000000000000000000000000000604082015260600190565b60208082526019908201527f5765206f6e6c792061636365707420616d6f756e74203e203000000000000000604082015260600190565b60208082526026908201527f416464726573733a20696e73756666696369656e742062616c616e636520666f6040820152651c8818d85b1b60d21b606082015260800190565b60208082526011908201527f4578697374696e67207374726174656779000000000000000000000000000000604082015260600190565b6020808252818101527f4f776e61626c653a2063616c6c6572206973206e6f7420746865206f776e6572604082015260600190565b60208082526010908201527f736861726573546f74616c206973203000000000000000000000000000000000604082015260600190565b6020808252601d908201527f416464726573733a2063616c6c20746f206e6f6e2d636f6e7472616374000000604082015260600190565b6020808252602a908201527f5361666545524332303a204552433230206f7065726174696f6e20646964206e6040820152691bdd081cdd58d8d9595960b21b606082015260800190565b6020808252601f908201527f5265656e7472616e637947756172643a207265656e7472616e742063616c6c00604082015260600190565b60208082526036908201527f5361666545524332303a20617070726f76652066726f6d206e6f6e2d7a65726f60408201527f20746f206e6f6e2d7a65726f20616c6c6f77616e636500000000000000000000606082015260800190565b60208082526024908201527f4f70657261746f723a2063616c6c6572206973206e6f7420746865206f70657260408201526330ba37b960e11b606082015260800190565b90815260200190565b60008219821115611b5e57611b5e611c00565b500190565b600082611b7e57634e487b7160e01b81526012600452602481fd5b500490565b6000816000190483118215151615611b9d57611b9d611c00565b500290565b600082821015611bb457611bb4611c00565b500390565b60005b83811015611bd4578181015183820152602001611bbc565b838111156111815750506000910152565b6000600019821415611bf957611bf9611c00565b5060010190565b634e487b7160e01b600052601160045260246000fd5b6001600160a01b0381168114610c3f57600080fd5b8015158114610c3f57600080fdfea2646970667358221220e0e194d9d1bfa1aeb5d8966b2180acb2c4bd3bac91687ed26e086826922849ce64736f6c63430008000033",
  "devdoc": {
    "kind": "dev",
    "methods": {
      "addPool(address)": {
        "details": "Add a new want to the pool. Can only be called by the owner."
      },
      "owner()": {
        "details": "Returns the address of the current owner."
      },
      "renounceOwnership()": {
        "details": "Leaves the contract without owner. It will not be possible to call `onlyOwner` functions anymore. Can only be called by the current owner. NOTE: Renouncing ownership will leave the contract without an owner, thereby removing any functionality that is only available to the owner."
      },
      "transferOwnership(address)": {
        "details": "Transfers ownership of the contract to a new account (`newOwner`). Can only be called by the current owner."
      }
    },
    "version": 1
  },
  "userdoc": {
    "kind": "user",
    "methods": {},
    "version": 1
  },
  "storageLayout": {
    "storage": [
      {
        "astId": 7,
        "contract": "contracts/vault/VaultChef.sol:VaultChef",
        "label": "_owner",
        "offset": 0,
        "slot": "0",
        "type": "t_address"
      },
      {
        "astId": 206,
        "contract": "contracts/vault/VaultChef.sol:VaultChef",
        "label": "_status",
        "offset": 0,
        "slot": "1",
        "type": "t_uint256"
      },
      {
        "astId": 11250,
        "contract": "contracts/vault/VaultChef.sol:VaultChef",
        "label": "operators",
        "offset": 0,
        "slot": "2",
        "type": "t_mapping(t_address,t_bool)"
      },
      {
        "astId": 12177,
        "contract": "contracts/vault/VaultChef.sol:VaultChef",
        "label": "poolInfo",
        "offset": 0,
        "slot": "3",
        "type": "t_array(t_struct(PoolInfo)12173_storage)dyn_storage"
      },
      {
        "astId": 12184,
        "contract": "contracts/vault/VaultChef.sol:VaultChef",
        "label": "userInfo",
        "offset": 0,
        "slot": "4",
        "type": "t_mapping(t_uint256,t_mapping(t_address,t_struct(UserInfo)12167_storage))"
      },
      {
        "astId": 12188,
        "contract": "contracts/vault/VaultChef.sol:VaultChef",
        "label": "strats",
        "offset": 0,
        "slot": "5",
        "type": "t_mapping(t_address,t_bool)"
      }
    ],
    "types": {
      "t_address": {
        "encoding": "inplace",
        "label": "address",
        "numberOfBytes": "20"
      },
      "t_array(t_struct(PoolInfo)12173_storage)dyn_storage": {
        "base": "t_struct(PoolInfo)12173_storage",
        "encoding": "dynamic_array",
        "label": "struct VaultChef.PoolInfo[]",
        "numberOfBytes": "32"
      },
      "t_bool": {
        "encoding": "inplace",
        "label": "bool",
        "numberOfBytes": "1"
      },
      "t_contract(IERC20)2187": {
        "encoding": "inplace",
        "label": "contract IERC20",
        "numberOfBytes": "20"
      },
      "t_mapping(t_address,t_bool)": {
        "encoding": "mapping",
        "key": "t_address",
        "label": "mapping(address => bool)",
        "numberOfBytes": "32",
        "value": "t_bool"
      },
      "t_mapping(t_address,t_struct(UserInfo)12167_storage)": {
        "encoding": "mapping",
        "key": "t_address",
        "label": "mapping(address => struct VaultChef.UserInfo)",
        "numberOfBytes": "32",
        "value": "t_struct(UserInfo)12167_storage"
      },
      "t_mapping(t_uint256,t_mapping(t_address,t_struct(UserInfo)12167_storage))": {
        "encoding": "mapping",
        "key": "t_uint256",
        "label": "mapping(uint256 => mapping(address => struct VaultChef.UserInfo))",
        "numberOfBytes": "32",
        "value": "t_mapping(t_address,t_struct(UserInfo)12167_storage)"
      },
      "t_struct(PoolInfo)12173_storage": {
        "encoding": "inplace",
        "label": "struct VaultChef.PoolInfo",
        "members": [
          {
            "astId": 12170,
            "contract": "contracts/vault/VaultChef.sol:VaultChef",
            "label": "want",
            "offset": 0,
            "slot": "0",
            "type": "t_contract(IERC20)2187"
          },
          {
            "astId": 12172,
            "contract": "contracts/vault/VaultChef.sol:VaultChef",
            "label": "strat",
            "offset": 0,
            "slot": "1",
            "type": "t_address"
          }
        ],
        "numberOfBytes": "64"
      },
      "t_struct(UserInfo)12167_storage": {
        "encoding": "inplace",
        "label": "struct VaultChef.UserInfo",
        "members": [
          {
            "astId": 12166,
            "contract": "contracts/vault/VaultChef.sol:VaultChef",
            "label": "shares",
            "offset": 0,
            "slot": "0",
            "type": "t_uint256"
          }
        ],
        "numberOfBytes": "32"
      },
      "t_uint256": {
        "encoding": "inplace",
        "label": "uint256",
        "numberOfBytes": "32"
      }
    }
  }
}