{
  "address": "0x40F8b4E87389B25b7ADfAca3B1eeCE115a9036Bf",
  "abi": [
    {
      "inputs": [
        {
          "internalType": "address",
          "name": "_DCAU_TOKEN",
          "type": "address"
        },
        {
          "internalType": "address",
          "name": "_commissionTaker",
          "type": "address"
        },
        {
          "internalType": "address",
          "name": "_rewarder",
          "type": "address"
        }
      ],
      "stateMutability": "nonpayable",
      "type": "constructor"
    },
    {
      "anonymous": false,
      "inputs": [
        {
          "indexed": false,
          "internalType": "address",
          "name": "collectionContract",
          "type": "address"
        }
      ],
      "name": "CollectionRemoved",
      "type": "event"
    },
    {
      "anonymous": false,
      "inputs": [
        {
          "indexed": false,
          "internalType": "address",
          "name": "_commissionTaker",
          "type": "address"
        }
      ],
      "name": "CommissionTakerChanged",
      "type": "event"
    },
    {
      "anonymous": false,
      "inputs": [
        {
          "indexed": false,
          "internalType": "uint256",
          "name": "categoryId",
          "type": "uint256"
        },
        {
          "indexed": false,
          "internalType": "string",
          "name": "_categoryName",
          "type": "string"
        }
      ],
      "name": "NewCategoryAdded",
      "type": "event"
    },
    {
      "anonymous": false,
      "inputs": [
        {
          "indexed": false,
          "internalType": "address",
          "name": "collectionContract",
          "type": "address"
        },
        {
          "indexed": false,
          "internalType": "uint256",
          "name": "_category",
          "type": "uint256"
        }
      ],
      "name": "NewCollectionAdded",
      "type": "event"
    },
    {
      "anonymous": false,
      "inputs": [
        {
          "indexed": true,
          "internalType": "address",
          "name": "previousOwner",
          "type": "address"
        },
        {
          "indexed": true,
          "internalType": "address",
          "name": "newOwner",
          "type": "address"
        }
      ],
      "name": "OwnershipTransferred",
      "type": "event"
    },
    {
      "anonymous": false,
      "inputs": [
        {
          "indexed": true,
          "internalType": "address",
          "name": "user",
          "type": "address"
        },
        {
          "indexed": false,
          "internalType": "address",
          "name": "_rewarder",
          "type": "address"
        }
      ],
      "name": "RewarderSet",
      "type": "event"
    },
    {
      "anonymous": false,
      "inputs": [
        {
          "indexed": false,
          "internalType": "address",
          "name": "seller",
          "type": "address"
        },
        {
          "indexed": false,
          "internalType": "address",
          "name": "nftContract",
          "type": "address"
        },
        {
          "indexed": false,
          "internalType": "uint256",
          "name": "nftId",
          "type": "uint256"
        },
        {
          "indexed": false,
          "internalType": "uint256",
          "name": "price",
          "type": "uint256"
        },
        {
          "indexed": false,
          "internalType": "uint256",
          "name": "quantity",
          "type": "uint256"
        },
        {
          "indexed": false,
          "internalType": "uint256",
          "name": "category",
          "type": "uint256"
        },
        {
          "indexed": false,
          "internalType": "uint256",
          "name": "saleIndex",
          "type": "uint256"
        }
      ],
      "name": "TokenOnSale",
      "type": "event"
    },
    {
      "anonymous": false,
      "inputs": [
        {
          "indexed": false,
          "internalType": "uint256",
          "name": "saleIndex",
          "type": "uint256"
        },
        {
          "indexed": false,
          "internalType": "uint256",
          "name": "quantity",
          "type": "uint256"
        }
      ],
      "name": "TokenRemovedFromSale",
      "type": "event"
    },
    {
      "anonymous": false,
      "inputs": [
        {
          "indexed": false,
          "internalType": "address",
          "name": "buyer",
          "type": "address"
        },
        {
          "indexed": false,
          "internalType": "uint256",
          "name": "saleIndex",
          "type": "uint256"
        },
        {
          "indexed": false,
          "internalType": "uint256",
          "name": "_amount",
          "type": "uint256"
        }
      ],
      "name": "TokenSold",
      "type": "event"
    },
    {
      "inputs": [],
      "name": "BURN_ADDRESS",
      "outputs": [
        {
          "internalType": "address",
          "name": "",
          "type": "address"
        }
      ],
      "stateMutability": "view",
      "type": "function"
    },
    {
      "inputs": [],
      "name": "BURN_RATE",
      "outputs": [
        {
          "internalType": "uint256",
          "name": "",
          "type": "uint256"
        }
      ],
      "stateMutability": "view",
      "type": "function"
    },
    {
      "inputs": [],
      "name": "COMMISSION_RATE",
      "outputs": [
        {
          "internalType": "uint256",
          "name": "",
          "type": "uint256"
        }
      ],
      "stateMutability": "view",
      "type": "function"
    },
    {
      "inputs": [],
      "name": "DCAU_TOKEN",
      "outputs": [
        {
          "internalType": "address",
          "name": "",
          "type": "address"
        }
      ],
      "stateMutability": "view",
      "type": "function"
    },
    {
      "inputs": [],
      "name": "NEST_SUPPORTERS_RATE",
      "outputs": [
        {
          "internalType": "uint256",
          "name": "",
          "type": "uint256"
        }
      ],
      "stateMutability": "view",
      "type": "function"
    },
    {
      "inputs": [
        {
          "internalType": "string",
          "name": "_categoryName",
          "type": "string"
        }
      ],
      "name": "addNewCategory",
      "outputs": [],
      "stateMutability": "nonpayable",
      "type": "function"
    },
    {
      "inputs": [
        {
          "internalType": "address",
          "name": "collectionContract",
          "type": "address"
        },
        {
          "internalType": "uint256",
          "name": "_category",
          "type": "uint256"
        }
      ],
      "name": "addWhitelistedCollection",
      "outputs": [],
      "stateMutability": "nonpayable",
      "type": "function"
    },
    {
      "inputs": [
        {
          "internalType": "uint256",
          "name": "index",
          "type": "uint256"
        },
        {
          "internalType": "uint256",
          "name": "_amount",
          "type": "uint256"
        }
      ],
      "name": "buyNFT",
      "outputs": [],
      "stateMutability": "nonpayable",
      "type": "function"
    },
    {
      "inputs": [
        {
          "internalType": "uint256",
          "name": "",
          "type": "uint256"
        }
      ],
      "name": "categories",
      "outputs": [
        {
          "internalType": "string",
          "name": "",
          "type": "string"
        }
      ],
      "stateMutability": "view",
      "type": "function"
    },
    {
      "inputs": [],
      "name": "categoryLength",
      "outputs": [
        {
          "internalType": "uint256",
          "name": "",
          "type": "uint256"
        }
      ],
      "stateMutability": "view",
      "type": "function"
    },
    {
      "inputs": [
        {
          "internalType": "address",
          "name": "",
          "type": "address"
        }
      ],
      "name": "collectionCategory",
      "outputs": [
        {
          "internalType": "uint256",
          "name": "",
          "type": "uint256"
        }
      ],
      "stateMutability": "view",
      "type": "function"
    },
    {
      "inputs": [],
      "name": "commissionTaker",
      "outputs": [
        {
          "internalType": "address",
          "name": "",
          "type": "address"
        }
      ],
      "stateMutability": "view",
      "type": "function"
    },
    {
      "inputs": [
        {
          "internalType": "uint256",
          "name": "index",
          "type": "uint256"
        }
      ],
      "name": "getSale",
      "outputs": [
        {
          "internalType": "address",
          "name": "tokenContract",
          "type": "address"
        },
        {
          "internalType": "uint256",
          "name": "tokenId",
          "type": "uint256"
        },
        {
          "internalType": "uint128",
          "name": "unitPrice",
          "type": "uint128"
        },
        {
          "internalType": "uint128",
          "name": "quantity",
          "type": "uint128"
        },
        {
          "internalType": "address",
          "name": "seller",
          "type": "address"
        },
        {
          "internalType": "uint256",
          "name": "category",
          "type": "uint256"
        }
      ],
      "stateMutability": "view",
      "type": "function"
    },
    {
      "inputs": [],
      "name": "getSaleNFTLength",
      "outputs": [
        {
          "internalType": "uint256",
          "name": "",
          "type": "uint256"
        }
      ],
      "stateMutability": "view",
      "type": "function"
    },
    {
      "inputs": [
        {
          "internalType": "uint256",
          "name": "index",
          "type": "uint256"
        }
      ],
      "name": "getWhitelistedCollection",
      "outputs": [
        {
          "internalType": "address",
          "name": "",
          "type": "address"
        }
      ],
      "stateMutability": "view",
      "type": "function"
    },
    {
      "inputs": [
        {
          "internalType": "address",
          "name": "stakeContract",
          "type": "address"
        }
      ],
      "name": "isWhitelistedCollection",
      "outputs": [
        {
          "internalType": "bool",
          "name": "",
          "type": "bool"
        }
      ],
      "stateMutability": "view",
      "type": "function"
    },
    {
      "inputs": [],
      "name": "numCollections",
      "outputs": [
        {
          "internalType": "uint256",
          "name": "",
          "type": "uint256"
        }
      ],
      "stateMutability": "view",
      "type": "function"
    },
    {
      "inputs": [
        {
          "internalType": "address",
          "name": "",
          "type": "address"
        },
        {
          "internalType": "address",
          "name": "",
          "type": "address"
        },
        {
          "internalType": "uint256[]",
          "name": "",
          "type": "uint256[]"
        },
        {
          "internalType": "uint256[]",
          "name": "",
          "type": "uint256[]"
        },
        {
          "internalType": "bytes",
          "name": "",
          "type": "bytes"
        }
      ],
      "name": "onERC1155BatchReceived",
      "outputs": [
        {
          "internalType": "bytes4",
          "name": "",
          "type": "bytes4"
        }
      ],
      "stateMutability": "nonpayable",
      "type": "function"
    },
    {
      "inputs": [
        {
          "internalType": "address",
          "name": "",
          "type": "address"
        },
        {
          "internalType": "address",
          "name": "",
          "type": "address"
        },
        {
          "internalType": "uint256",
          "name": "",
          "type": "uint256"
        },
        {
          "internalType": "uint256",
          "name": "",
          "type": "uint256"
        },
        {
          "internalType": "bytes",
          "name": "",
          "type": "bytes"
        }
      ],
      "name": "onERC1155Received",
      "outputs": [
        {
          "internalType": "bytes4",
          "name": "",
          "type": "bytes4"
        }
      ],
      "stateMutability": "nonpayable",
      "type": "function"
    },
    {
      "inputs": [],
      "name": "onSaleNftAmount",
      "outputs": [
        {
          "internalType": "uint256",
          "name": "",
          "type": "uint256"
        }
      ],
      "stateMutability": "view",
      "type": "function"
    },
    {
      "inputs": [],
      "name": "owner",
      "outputs": [
        {
          "internalType": "address",
          "name": "",
          "type": "address"
        }
      ],
      "stateMutability": "view",
      "type": "function"
    },
    {
      "inputs": [
        {
          "internalType": "uint256",
          "name": "index",
          "type": "uint256"
        },
        {
          "internalType": "uint256",
          "name": "quantity",
          "type": "uint256"
        }
      ],
      "name": "removeNFT",
      "outputs": [],
      "stateMutability": "nonpayable",
      "type": "function"
    },
    {
      "inputs": [
        {
          "internalType": "address",
          "name": "collectionContract",
          "type": "address"
        }
      ],
      "name": "removeWhitelistedCollection",
      "outputs": [],
      "stateMutability": "nonpayable",
      "type": "function"
    },
    {
      "inputs": [],
      "name": "renounceOwnership",
      "outputs": [],
      "stateMutability": "nonpayable",
      "type": "function"
    },
    {
      "inputs": [],
      "name": "rewarder",
      "outputs": [
        {
          "internalType": "address",
          "name": "",
          "type": "address"
        }
      ],
      "stateMutability": "view",
      "type": "function"
    },
    {
      "inputs": [
        {
          "internalType": "address",
          "name": "_tokenContract",
          "type": "address"
        },
        {
          "internalType": "uint256",
          "name": "_tokenId",
          "type": "uint256"
        },
        {
          "internalType": "uint128",
          "name": "_unitPrice",
          "type": "uint128"
        },
        {
          "internalType": "uint128",
          "name": "_quantity",
          "type": "uint128"
        }
      ],
      "name": "saleNFT",
      "outputs": [],
      "stateMutability": "nonpayable",
      "type": "function"
    },
    {
      "inputs": [
        {
          "internalType": "address",
          "name": "_commissionTaker",
          "type": "address"
        }
      ],
      "name": "setCommissionTaker",
      "outputs": [],
      "stateMutability": "nonpayable",
      "type": "function"
    },
    {
      "inputs": [
        {
          "internalType": "address",
          "name": "_rewarder",
          "type": "address"
        }
      ],
      "name": "setRewarder",
      "outputs": [],
      "stateMutability": "nonpayable",
      "type": "function"
    },
    {
      "inputs": [
        {
          "internalType": "bytes4",
          "name": "interfaceId",
          "type": "bytes4"
        }
      ],
      "name": "supportsInterface",
      "outputs": [
        {
          "internalType": "bool",
          "name": "",
          "type": "bool"
        }
      ],
      "stateMutability": "view",
      "type": "function"
    },
    {
      "inputs": [
        {
          "internalType": "address",
          "name": "newOwner",
          "type": "address"
        }
      ],
      "name": "transferOwnership",
      "outputs": [],
      "stateMutability": "nonpayable",
      "type": "function"
    }
  ],
  "transactionHash": "0x1135d89b0c2472f76dac249dfa6d0f77d92584b123e93d424aed908a8929e48c",
  "args": [
    "0x7dd5DF8396B40948fF1373A29Ae097329D12B643",
    "0x6C641CE6A7216F12d28692f9d8b2BDcdE812eD2b",
    "0x6C641CE6A7216F12d28692f9d8b2BDcdE812eD2b"
  ],
  "solcInputHash": "6f23f00c911eaa1dad0700328b1dc8bd",
  "bytecode": "0x60a06040526000600b553480156200001657600080fd5b50604051620026c1380380620026c183398101604081905262000039916200027c565b6001600055620000526200004c62000163565b62000167565b6001600160a01b038316158015906200007357506001600160a01b03821615155b80156200008857506001600160a01b03811615155b620000b05760405162461bcd60e51b8152600401620000a790620002c5565b60405180910390fd5b6001600160601b0319606084901b16608052600880546001600160a01b038481166001600160a01b031992831617909255600c8054928416929091169190911790556000600981815560408051808201909152908152685265736f757263657360b81b6020808301918252600190935260049092525162000153917fabd6e7cb50984ff9c2f3e18a2660c3353dadf4e3291deeb275dae2cd1e44fe0591620001b9565b50506001600a55506200032e9050565b3390565b600180546001600160a01b038381166001600160a01b0319831681179093556040519116919082907f8be0079c531659141344cd1fd0a4f28419497f9722a3daafe3b4186f6b6457e090600090a35050565b828054620001c790620002f1565b90600052602060002090601f016020900481019282620001eb576000855562000236565b82601f106200020657805160ff191683800117855562000236565b8280016001018555821562000236579182015b828111156200023657825182559160200191906001019062000219565b506200024492915062000248565b5090565b5b8082111562000244576000815560010162000249565b80516001600160a01b03811681146200027757600080fd5b919050565b60008060006060848603121562000291578283fd5b6200029c846200025f565b9250620002ac602085016200025f565b9150620002bc604085016200025f565b90509250925092565b6020808252601290820152715a45524f20416464726573732076616c756560701b604082015260600190565b6002810460018216806200030657607f821691505b602082108114156200032857634e487b7160e01b600052602260045260246000fd5b50919050565b60805160601c61235862000369600039600081816106da01528181610712015281816107520152818161078e015261108201526123586000f3fe608060405234801561001057600080fd5b50600436106101da5760003560e01c8063b28d259d11610104578063dddf54c5116100a2578063f2fde38b11610071578063f2fde38b146103b2578063f846a8851461021d578063fccc2813146103c5578063fe658ee2146103cd576101da565b8063dddf54c514610387578063e7e6d4a11461038f578063ee724fcf14610397578063f23a6e611461039f576101da565b8063c5dc2441116100de578063c5dc244114610327578063c6cdbe5e1461033a578063d8f6d5961461035a578063dcc3e06e1461037f576101da565b8063b28d259d146102f7578063bc197c81146102ff578063c557ce701461031f576101da565b806362553e141161017c5780638da5cb5b1161014b5780638da5cb5b146102a95780639d40229a146102be5780639eab6ee9146102d1578063a3676d78146102e4576101da565b806362553e1414610268578063715018a61461027b5780638214ff3e1461028357806384a9df7714610296576101da565b80631d85bf03116101b85780631d85bf03146102325780632a61a002146102455780633a6462e41461024d57806351bf0d7714610260576101da565b806301ffc9a7146101df5780630f1d2cd1146102085780631a454ea61461021d575b600080fd5b6101f26101ed366004611a4f565b6103e0565b6040516101ff9190611cba565b60405180910390f35b61021b6102163660046119b3565b61040d565b005b610225610539565b6040516101ff91906121c3565b61021b610240366004611add565b61053e565b61022561090a565b61021b61025b366004611890565b61091b565b6102256109b9565b61021b610276366004611890565b6109be565b61021b610a94565b6101f2610291366004611890565b610adf565b61021b6102a4366004611a77565b610aec565b6102b1610ba4565b6040516101ff9190611b46565b61021b6102cc3660046119dc565b610bb3565b61021b6102df366004611890565b610df7565b6102256102f2366004611890565b610ed5565b610225610ee7565b61031261030d3660046118aa565b610eed565b6040516101ff9190611cc5565b6102b1610efe565b6102b1610335366004611ac5565b610f0d565b61034d610348366004611ac5565b610f1a565b6040516101ff9190611cda565b61036d610368366004611ac5565b610fb4565b6040516101ff96959493929190611c56565b6102b1611071565b6102b1611080565b6102256110a4565b6102256110aa565b6103126103ad366004611950565b6110b0565b61021b6103c0366004611890565b6110c1565b6102b1611132565b61021b6103db366004611add565b611138565b60006001600160e01b03198216630271189760e51b1480610405575061040582611344565b90505b919050565b61041561135d565b6001600160a01b0316610426610ba4565b6001600160a01b0316146104555760405162461bcd60e51b815260040161044c90611eb6565b60405180910390fd5b6001600160a01b03821661047b5760405162461bcd60e51b815260040161044c9061203a565b61048482610adf565b156104a15760405162461bcd60e51b815260040161044c90611e59565b600a548111156104c35760405162461bcd60e51b815260040161044c90611f7f565b6104ce600283611361565b506001600160a01b0382166000908152600560205260409020819055600b546104f890600161221d565b600b556040517f409c0365820d5a4c9b1ffaeaa88de8b0d9ad9f80dd5ecfad0c05beb58bb8098c9061052d9084908490611c3d565b60405180910390a15050565b60c881565b600260005414156105615760405162461bcd60e51b815260040161044c906120ed565b600260005581610571600761137f565b101561058f5760405162461bcd60e51b815260040161044c90612003565b6000828152600660205260409020600301546001600160a01b03166105c65760405162461bcd60e51b815260040161044c90611fcc565b60008281526006602052604090206002810154600160801b90046001600160801b03168211156106085760405162461bcd60e51b815260040161044c90611dd6565b600481015460028201546001600160a01b03909116906000906106359085906001600160801b0316612255565b9050600061271061064760c884612255565b6106519190612235565b9050600061271061066360c885612255565b61066d9190612235565b9050600061271061067f606486612255565b6106899190612235565b9050600081836106998688612274565b6106a39190612274565b6106ad9190612274565b9050600081116106cf5760405162461bcd60e51b815260040161044c906120a7565b8315610703576107037f00000000000000000000000000000000000000000000000000000000000000003361dead87611383565b821561074357600854610743907f00000000000000000000000000000000000000000000000000000000000000009033906001600160a01b031686611383565b811561078357600c54610783907f00000000000000000000000000000000000000000000000000000000000000009033906001600160a01b031685611383565b60038701546107bf907f00000000000000000000000000000000000000000000000000000000000000009033906001600160a01b031684611383565b8654604051637921219560e11b81526001600160a01b0388169163f242432a916107f29130913391908e90600401611c05565b600060405180830381600087803b15801561080c57600080fd5b505af1158015610820573d6000803e3d6000fd5b505050506002870154610844908990600160801b90046001600160801b0316612274565b6002880180546001600160801b03908116600160801b93821684021791829055919004166108bf576000898152600660205260408120818155600180820183905560028201929092556003810180546001600160a01b03199081169091556004909101805490911690556009546108bb9190612274565b6009555b7f35ea94addbc62df281ade49cc2ad9b3d9259166170cf702928b4ddc045f7256e338a8a6040516108f293929190611c99565b60405180910390a15050600160005550505050505050565b6000610916600761137f565b905090565b61092361135d565b6001600160a01b0316610934610ba4565b6001600160a01b03161461095a5760405162461bcd60e51b815260040161044c90611eb6565b600c80546001600160a01b0319166001600160a01b03838116919091179182905560405133927fbc338ad631c3856fd03e151bfc793b4f06d8b3ab462a4e631b5faf33cc4d86ba926109ae92911690611b46565b60405180910390a250565b606481565b6109c661135d565b6001600160a01b03166109d7610ba4565b6001600160a01b0316146109fd5760405162461bcd60e51b815260040161044c90611eb6565b610a0681610adf565b610a225760405162461bcd60e51b815260040161044c90611f22565b610a2d600282611488565b506001600160a01b038116600090815260056020526040812055600b54610a5690600190612274565b600b556040517fa0691bd707b2f65c33c8343d61c274df72c6b5007937dcfbc31aa5a0d0f6fe3c90610a89908390611b46565b60405180910390a150565b610a9c61135d565b6001600160a01b0316610aad610ba4565b6001600160a01b031614610ad35760405162461bcd60e51b815260040161044c90611eb6565b610add600061149d565b565b60006104056002836114ef565b610af461135d565b6001600160a01b0316610b05610ba4565b6001600160a01b031614610b2b5760405162461bcd60e51b815260040161044c90611eb6565b8060046000600a546001610b3f919061221d565b81526020019081526020016000209080519060200190610b609291906116d0565b50600a54610b6f90600161221d565b600a8190556040517fbf62b32abc5f51132062c531c4a6b975bd9e404358eb4c2b0c0ab34f2c04051391610a899184906121cc565b6001546001600160a01b031690565b60026000541415610bd65760405162461bcd60e51b815260040161044c906120ed565b6002600055610be484610adf565b610c005760405162461bcd60e51b815260040161044c90611eeb565b6000826001600160801b0316118015610c2257506000816001600160801b0316115b610c3e5760405162461bcd60e51b815260040161044c90611dfc565b6000610c4a600761137f565b604051637921219560e11b815290915085906001600160a01b0382169063f242432a90610c8190339030908a908990600401611b7e565b600060405180830381600087803b158015610c9b57600080fd5b505af1158015610caf573d6000803e3d6000fd5b5050506001600160a01b03808816600081815260056020908152604080832054815160c0810183528c81528084018281526001600160801b03808e168386019081528d821660608501908152336080860190815260a086019a8b528e8a52600690985295909720925183559051600180840191909155955160028301805495518316600160801b029183166fffffffffffffffffffffffffffffffff19909616959095179091161790925591516003820180549187166001600160a01b031992831617905593516004909101805491909516931692909217909255600954909250610d999161221d565b600955610da66007611504565b7f4ac2eebaedabbf847d47a8d98f62dce7cc8e9c5d96be919771938c3fbec7200f33888888888689604051610de19796959493929190611bbe565b60405180910390a1505060016000555050505050565b610dff61135d565b6001600160a01b0316610e10610ba4565b6001600160a01b031614610e365760405162461bcd60e51b815260040161044c90611eb6565b6008546001600160a01b0382811691161415610e645760405162461bcd60e51b815260040161044c90612166565b6001600160a01b038116610e8a5760405162461bcd60e51b815260040161044c90611ced565b600880546001600160a01b0319166001600160a01b0383161790556040517f380e1b1ef6644b91541604dce648aa3bcfd56a46d69cf4ffca30a72e68931bf090610a89908390611b46565b60056020526000908152604090205481565b60095481565b63bc197c8160e01b95945050505050565b6008546001600160a01b031681565b600061040560028361150d565b60046020526000908152604090208054610f33906122bb565b80601f0160208091040260200160405190810160405280929190818152602001828054610f5f906122bb565b8015610fac5780601f10610f8157610100808354040283529160200191610fac565b820191906000526020600020905b815481529060010190602001808311610f8f57829003601f168201915b505050505081565b600080600080600080610fc7600761137f565b871115610fe65760405162461bcd60e51b815260040161044c90611e33565b6000878152600660205260409020600301546001600160a01b031661101d5760405162461bcd60e51b815260040161044c90611fcc565b505050600093845250506006602052506040902060048101548154600283015460038401546001909401546001600160a01b039384169592946001600160801b0380841695600160801b9094041693921691565b600c546001600160a01b031681565b7f000000000000000000000000000000000000000000000000000000000000000081565b600b5481565b600a5481565b63f23a6e6160e01b95945050505050565b6110c961135d565b6001600160a01b03166110da610ba4565b6001600160a01b0316146111005760405162461bcd60e51b815260040161044c90611eb6565b6001600160a01b0381166111265760405162461bcd60e51b815260040161044c90611d33565b61112f8161149d565b50565b61dead81565b6002600054141561115b5760405162461bcd60e51b815260040161044c906120ed565b60026000558161116b600761137f565b10156111895760405162461bcd60e51b815260040161044c90612003565b6000828152600660205260409020600481015460038201546001600160a01b03918216911633146111cc5760405162461bcd60e51b815260040161044c90612124565b6002820154600160801b90046001600160801b03168311156112005760405162461bcd60e51b815260040161044c90611dd6565b8154604051637921219560e11b81526001600160a01b0383169163f242432a916112339130913391908990600401611c05565b600060405180830381600087803b15801561124d57600080fd5b505af1158015611261573d6000803e3d6000fd5b505050506002820154611285908490600160801b90046001600160801b0316612274565b6002830180546001600160801b03908116600160801b9382168402179182905591900416611300576000848152600660205260408120818155600180820183905560028201929092556003810180546001600160a01b03199081169091556004909101805490911690556009546112fc9190612274565b6009555b7fcfd1fd3ce11440720ebe8e37a973a790ed66a96cc2b9a23c1057fa184cd2603c84846040516113319291906121e5565b60405180910390a1505060016000555050565b6001600160e01b031981166301ffc9a760e01b14919050565b3390565b6000611376836001600160a01b038416611519565b90505b92915050565b5490565b600080856001600160a01b03166323b872dd8686866040516024016113aa93929190611b5a565b6040516020818303038152906040529060e01b6020820180517bffffffffffffffffffffffffffffffffffffffffffffffffffffffff83818316178352505050506040516113f89190611b2a565b6000604051808303816000865af19150503d8060008114611435576040519150601f19603f3d011682016040523d82523d6000602084013e61143a565b606091505b50915091508180156114645750805115806114645750808060200190518101906114649190611a28565b6114805760405162461bcd60e51b815260040161044c90611d79565b505050505050565b6000611376836001600160a01b038416611563565b600180546001600160a01b038381166001600160a01b0319831681179093556040519116919082907f8be0079c531659141344cd1fd0a4f28419497f9722a3daafe3b4186f6b6457e090600090a35050565b6000611376836001600160a01b038416611680565b80546001019055565b60006113768383611698565b60006115258383611680565b61155b57508154600181810184556000848152602080822090930184905584548482528286019093526040902091909155611379565b506000611379565b60008181526001830160205260408120548015611676576000611587600183612274565b855490915060009061159b90600190612274565b905081811461161c5760008660000182815481106115c957634e487b7160e01b600052603260045260246000fd5b90600052602060002001549050808760000184815481106115fa57634e487b7160e01b600052603260045260246000fd5b6000918252602080832090910192909255918252600188019052604090208390555b855486908061163b57634e487b7160e01b600052603160045260246000fd5b600190038181906000526020600020016000905590558560010160008681526020019081526020016000206000905560019350505050611379565b6000915050611379565b60009081526001919091016020526040902054151590565b60008260000182815481106116bd57634e487b7160e01b600052603260045260246000fd5b9060005260206000200154905092915050565b8280546116dc906122bb565b90600052602060002090601f0160209004810192826116fe5760008555611744565b82601f1061171757805160ff1916838001178555611744565b82800160010185558215611744579182015b82811115611744578251825591602001919060010190611729565b50611750929150611754565b5090565b5b808211156117505760008155600101611755565b600067ffffffffffffffff8311156117835761178361230c565b611796601f8401601f19166020016121f3565b90508281528383830111156117aa57600080fd5b828260208301376000602084830101529392505050565b80356001600160a01b038116811461040857600080fd5b600082601f8301126117e8578081fd5b8135602067ffffffffffffffff8211156118045761180461230c565b8082026118128282016121f3565b83815282810190868401838801850189101561182c578687fd5b8693505b8584101561184e578035835260019390930192918401918401611830565b50979650505050505050565b600082601f83011261186a578081fd5b61137683833560208501611769565b80356001600160801b038116811461040857600080fd5b6000602082840312156118a1578081fd5b611376826117c1565b600080600080600060a086880312156118c1578081fd5b6118ca866117c1565b94506118d8602087016117c1565b9350604086013567ffffffffffffffff808211156118f4578283fd5b61190089838a016117d8565b94506060880135915080821115611915578283fd5b61192189838a016117d8565b93506080880135915080821115611936578283fd5b506119438882890161185a565b9150509295509295909350565b600080600080600060a08688031215611967578081fd5b611970866117c1565b945061197e602087016117c1565b93506040860135925060608601359150608086013567ffffffffffffffff8111156119a7578182fd5b6119438882890161185a565b600080604083850312156119c5578182fd5b6119ce836117c1565b946020939093013593505050565b600080600080608085870312156119f1578384fd5b6119fa856117c1565b935060208501359250611a0f60408601611879565b9150611a1d60608601611879565b905092959194509250565b600060208284031215611a39578081fd5b81518015158114611a48578182fd5b9392505050565b600060208284031215611a60578081fd5b81356001600160e01b031981168114611a48578182fd5b600060208284031215611a88578081fd5b813567ffffffffffffffff811115611a9e578182fd5b8201601f81018413611aae578182fd5b611abd84823560208401611769565b949350505050565b600060208284031215611ad6578081fd5b5035919050565b60008060408385031215611aef578182fd5b50508035926020909101359150565b60008151808452611b1681602086016020860161228b565b601f01601f19169290920160200192915050565b60008251611b3c81846020870161228b565b9190910192915050565b6001600160a01b0391909116815260200190565b6001600160a01b039384168152919092166020820152604081019190915260600190565b6001600160a01b03948516815292909316602083015260408201526001600160801b03909116606082015260a06080820181905260009082015260c00190565b6001600160a01b03978816815295909616602086015260408501939093526001600160801b03918216606085015216608083015260a082015260c081019190915260e00190565b6001600160a01b0394851681529290931660208301526040820152606081019190915260a06080820181905260009082015260c00190565b6001600160a01b03929092168252602082015260400190565b6001600160a01b03968716815260208101959095526001600160801b0393841660408601529190921660608401529216608082015260a081019190915260c00190565b6001600160a01b039390931683526020830191909152604082015260600190565b901515815260200190565b6001600160e01b031991909116815260200190565b6000602082526113766020830184611afe565b60208082526026908201527f436f6d6d697373696f6e74616b65722063616e6e6f74206265207a65726f206160408201526564647265737360d01b606082015260800190565b60208082526026908201527f4f776e61626c653a206e6577206f776e657220697320746865207a65726f206160408201526564647265737360d01b606082015260800190565b60208082526031908201527f5472616e7366657248656c7065723a3a7472616e7366657246726f6d3a20747260408201527f616e7366657246726f6d206661696c6564000000000000000000000000000000606082015260800190565b6020808252600c908201526b4f7574206f662073746f636b60a01b604082015260600190565b60208082526014908201527f50726963652063616e6e6f74206265207a65726f000000000000000000000000604082015260600190565b6020808252600c908201526b4f7574206f6620617272617960a01b604082015260600190565b60208082526038908201527f61646457686974656c6973746564436f6c6c656374696f6e3a20636f6c6c656360408201527f74696f6e20616c72656164792077686974656c69737465640000000000000000606082015260800190565b6020808252818101527f4f776e61626c653a2063616c6c6572206973206e6f7420746865206f776e6572604082015260600190565b6020808252601b908201527f436f6c6c656374696f6e206e6f742077686974656c6973746564210000000000604082015260600190565b60208082526037908201527f72656d6f766557686974656c6973746564436f6c6c656374696f6e3a20636f6c60408201527f6c656374696f6e206e6f742077686974656c6973746564000000000000000000606082015260800190565b6020808252602d908201527f61646457686974656c6973746564436f6c6c656374696f6e3a204e6f74206c6960408201526c737465642063617465676f727960981b606082015260800190565b6020808252601d908201527f546869732073616c65206973206e6f206c6f6e67657220616374697665000000604082015260600190565b60208082526013908201527f4f7574206f66206172726179206c656e67746800000000000000000000000000604082015260600190565b60208082526047908201527f61646457686974656c6973746564436f6c6c656374696f6e3a20636f6c6c656360408201527f74696f6e436f6e74726163742063616e6e6f7420626520746865207a65726f206060820152666164647265737360c81b608082015260a00190565b60208082526026908201527f53656c6c657220616d6f756e74206d75737420626520626967676572207468616040820152656e207a65726f60d01b606082015260800190565b6020808252601f908201527f5265656e7472616e637947756172643a207265656e7472616e742063616c6c00604082015260600190565b60208082526022908201527f596f75206d757374206265207468652073656c6c6572206f662074686973204e604082015261119560f21b606082015260800190565b60208082526033908201527f4e657720636f6d6d697373696f6e2074616b6572206d7573742062652064696660408201527f666572656e742066726f6d206f6c64206f6e6500000000000000000000000000606082015260800190565b90815260200190565b600083825260406020830152611abd6040830184611afe565b918252602082015260400190565b60405181810167ffffffffffffffff811182821017156122155761221561230c565b604052919050565b60008219821115612230576122306122f6565b500190565b60008261225057634e487b7160e01b81526012600452602481fd5b500490565b600081600019048311821515161561226f5761226f6122f6565b500290565b600082821015612286576122866122f6565b500390565b60005b838110156122a657818101518382015260200161228e565b838111156122b5576000848401525b50505050565b6002810460018216806122cf57607f821691505b602082108114156122f057634e487b7160e01b600052602260045260246000fd5b50919050565b634e487b7160e01b600052601160045260246000fd5b634e487b7160e01b600052604160045260246000fdfea2646970667358221220db256ccc01a4b367dfef7d91dc251148b619152d0e9738a075d6a0144b67047864736f6c63430008000033",
  "devdoc": {
    "kind": "dev",
    "methods": {
      "owner()": {
        "details": "Returns the address of the current owner."
      },
      "renounceOwnership()": {
        "details": "Leaves the contract without owner. It will not be possible to call `onlyOwner` functions anymore. Can only be called by the current owner. NOTE: Renouncing ownership will leave the contract without an owner, thereby removing any functionality that is only available to the owner."
      },
      "supportsInterface(bytes4)": {
        "details": "See {IERC165-supportsInterface}."
      },
      "transferOwnership(address)": {
        "details": "Transfers ownership of the contract to a new account (`newOwner`). Can only be called by the current owner."
      }
    },
    "stateVariables": {
      "rewarder": {
        "details": "this contract will manage to reward NEST_SUPPORTERS fee to supporters"
      }
    },
    "version": 1
  },
  "userdoc": {
    "kind": "user",
    "methods": {},
    "version": 1
  },
  "storageLayout": {
    "storage": [
      {
        "astId": 206,
        "contract": "contracts/DCAUMiscNFTMarket.sol:DCAUMiscNFTMarket",
        "label": "_status",
        "offset": 0,
        "slot": "0",
        "type": "t_uint256"
      },
      {
        "astId": 7,
        "contract": "contracts/DCAUMiscNFTMarket.sol:DCAUMiscNFTMarket",
        "label": "_owner",
        "offset": 0,
        "slot": "1",
        "type": "t_address"
      },
      {
        "astId": 5210,
        "contract": "contracts/DCAUMiscNFTMarket.sol:DCAUMiscNFTMarket",
        "label": "collections",
        "offset": 0,
        "slot": "2",
        "type": "t_struct(AddressSet)4840_storage"
      },
      {
        "astId": 5214,
        "contract": "contracts/DCAUMiscNFTMarket.sol:DCAUMiscNFTMarket",
        "label": "categories",
        "offset": 0,
        "slot": "4",
        "type": "t_mapping(t_uint256,t_string_storage)"
      },
      {
        "astId": 5218,
        "contract": "contracts/DCAUMiscNFTMarket.sol:DCAUMiscNFTMarket",
        "label": "collectionCategory",
        "offset": 0,
        "slot": "5",
        "type": "t_mapping(t_address,t_uint256)"
      },
      {
        "astId": 5236,
        "contract": "contracts/DCAUMiscNFTMarket.sol:DCAUMiscNFTMarket",
        "label": "saleNFTList",
        "offset": 0,
        "slot": "6",
        "type": "t_mapping(t_uint256,t_struct(SaleNFT)5231_storage)"
      },
      {
        "astId": 5239,
        "contract": "contracts/DCAUMiscNFTMarket.sol:DCAUMiscNFTMarket",
        "label": "saleIds",
        "offset": 0,
        "slot": "7",
        "type": "t_struct(Counter)3909_storage"
      },
      {
        "astId": 5243,
        "contract": "contracts/DCAUMiscNFTMarket.sol:DCAUMiscNFTMarket",
        "label": "commissionTaker",
        "offset": 0,
        "slot": "8",
        "type": "t_address"
      },
      {
        "astId": 5245,
        "contract": "contracts/DCAUMiscNFTMarket.sol:DCAUMiscNFTMarket",
        "label": "onSaleNftAmount",
        "offset": 0,
        "slot": "9",
        "type": "t_uint256"
      },
      {
        "astId": 5247,
        "contract": "contracts/DCAUMiscNFTMarket.sol:DCAUMiscNFTMarket",
        "label": "categoryLength",
        "offset": 0,
        "slot": "10",
        "type": "t_uint256"
      },
      {
        "astId": 5250,
        "contract": "contracts/DCAUMiscNFTMarket.sol:DCAUMiscNFTMarket",
        "label": "numCollections",
        "offset": 0,
        "slot": "11",
        "type": "t_uint256"
      },
      {
        "astId": 5265,
        "contract": "contracts/DCAUMiscNFTMarket.sol:DCAUMiscNFTMarket",
        "label": "rewarder",
        "offset": 0,
        "slot": "12",
        "type": "t_address"
      }
    ],
    "types": {
      "t_address": {
        "encoding": "inplace",
        "label": "address",
        "numberOfBytes": "20"
      },
      "t_array(t_bytes32)dyn_storage": {
        "base": "t_bytes32",
        "encoding": "dynamic_array",
        "label": "bytes32[]",
        "numberOfBytes": "32"
      },
      "t_bytes32": {
        "encoding": "inplace",
        "label": "bytes32",
        "numberOfBytes": "32"
      },
      "t_mapping(t_address,t_uint256)": {
        "encoding": "mapping",
        "key": "t_address",
        "label": "mapping(address => uint256)",
        "numberOfBytes": "32",
        "value": "t_uint256"
      },
      "t_mapping(t_bytes32,t_uint256)": {
        "encoding": "mapping",
        "key": "t_bytes32",
        "label": "mapping(bytes32 => uint256)",
        "numberOfBytes": "32",
        "value": "t_uint256"
      },
      "t_mapping(t_uint256,t_string_storage)": {
        "encoding": "mapping",
        "key": "t_uint256",
        "label": "mapping(uint256 => string)",
        "numberOfBytes": "32",
        "value": "t_string_storage"
      },
      "t_mapping(t_uint256,t_struct(SaleNFT)5231_storage)": {
        "encoding": "mapping",
        "key": "t_uint256",
        "label": "mapping(uint256 => struct DCAUMiscNFTMarket.SaleNFT)",
        "numberOfBytes": "32",
        "value": "t_struct(SaleNFT)5231_storage"
      },
      "t_string_storage": {
        "encoding": "bytes",
        "label": "string",
        "numberOfBytes": "32"
      },
      "t_struct(AddressSet)4840_storage": {
        "encoding": "inplace",
        "label": "struct EnumerableSet.AddressSet",
        "members": [
          {
            "astId": 4839,
            "contract": "contracts/DCAUMiscNFTMarket.sol:DCAUMiscNFTMarket",
            "label": "_inner",
            "offset": 0,
            "slot": "0",
            "type": "t_struct(Set)4539_storage"
          }
        ],
        "numberOfBytes": "64"
      },
      "t_struct(Counter)3909_storage": {
        "encoding": "inplace",
        "label": "struct Counters.Counter",
        "members": [
          {
            "astId": 3908,
            "contract": "contracts/DCAUMiscNFTMarket.sol:DCAUMiscNFTMarket",
            "label": "_value",
            "offset": 0,
            "slot": "0",
            "type": "t_uint256"
          }
        ],
        "numberOfBytes": "32"
      },
      "t_struct(SaleNFT)5231_storage": {
        "encoding": "inplace",
        "label": "struct DCAUMiscNFTMarket.SaleNFT",
        "members": [
          {
            "astId": 5220,
            "contract": "contracts/DCAUMiscNFTMarket.sol:DCAUMiscNFTMarket",
            "label": "tokenId",
            "offset": 0,
            "slot": "0",
            "type": "t_uint256"
          },
          {
            "astId": 5222,
            "contract": "contracts/DCAUMiscNFTMarket.sol:DCAUMiscNFTMarket",
            "label": "category",
            "offset": 0,
            "slot": "1",
            "type": "t_uint256"
          },
          {
            "astId": 5224,
            "contract": "contracts/DCAUMiscNFTMarket.sol:DCAUMiscNFTMarket",
            "label": "unitPrice",
            "offset": 0,
            "slot": "2",
            "type": "t_uint128"
          },
          {
            "astId": 5226,
            "contract": "contracts/DCAUMiscNFTMarket.sol:DCAUMiscNFTMarket",
            "label": "quantity",
            "offset": 16,
            "slot": "2",
            "type": "t_uint128"
          },
          {
            "astId": 5228,
            "contract": "contracts/DCAUMiscNFTMarket.sol:DCAUMiscNFTMarket",
            "label": "seller",
            "offset": 0,
            "slot": "3",
            "type": "t_address"
          },
          {
            "astId": 5230,
            "contract": "contracts/DCAUMiscNFTMarket.sol:DCAUMiscNFTMarket",
            "label": "tokenContract",
            "offset": 0,
            "slot": "4",
            "type": "t_address"
          }
        ],
        "numberOfBytes": "160"
      },
      "t_struct(Set)4539_storage": {
        "encoding": "inplace",
        "label": "struct EnumerableSet.Set",
        "members": [
          {
            "astId": 4534,
            "contract": "contracts/DCAUMiscNFTMarket.sol:DCAUMiscNFTMarket",
            "label": "_values",
            "offset": 0,
            "slot": "0",
            "type": "t_array(t_bytes32)dyn_storage"
          },
          {
            "astId": 4538,
            "contract": "contracts/DCAUMiscNFTMarket.sol:DCAUMiscNFTMarket",
            "label": "_indexes",
            "offset": 0,
            "slot": "1",
            "type": "t_mapping(t_bytes32,t_uint256)"
          }
        ],
        "numberOfBytes": "64"
      },
      "t_uint128": {
        "encoding": "inplace",
        "label": "uint128",
        "numberOfBytes": "16"
      },
      "t_uint256": {
        "encoding": "inplace",
        "label": "uint256",
        "numberOfBytes": "32"
      }
    }
  }
}