{
  "address": "0x78BBA461A395B4C9Eda909D34fd5608fe6417B12",
  "abi": [
    {
      "inputs": [
        {
          "internalType": "address",
          "name": "devWallet",
          "type": "address"
        },
        {
          "internalType": "address",
          "name": "_stableToken",
          "type": "address"
        },
        {
          "internalType": "uint256",
          "name": "_publicSaleOpenTimestamp",
          "type": "uint256"
        }
      ],
      "stateMutability": "nonpayable",
      "type": "constructor"
    },
    {
      "anonymous": false,
      "inputs": [
        {
          "indexed": true,
          "internalType": "address",
          "name": "user",
          "type": "address"
        },
        {
          "indexed": true,
          "internalType": "address",
          "name": "whitelisted",
          "type": "address"
        },
        {
          "indexed": false,
          "internalType": "uint256",
          "name": "whitelistAmount",
          "type": "uint256"
        }
      ],
      "name": "AddWhitelist",
      "type": "event"
    },
    {
      "anonymous": false,
      "inputs": [
        {
          "indexed": true,
          "internalType": "address",
          "name": "owner",
          "type": "address"
        },
        {
          "indexed": true,
          "internalType": "address",
          "name": "approved",
          "type": "address"
        },
        {
          "indexed": true,
          "internalType": "uint256",
          "name": "tokenId",
          "type": "uint256"
        }
      ],
      "name": "Approval",
      "type": "event"
    },
    {
      "anonymous": false,
      "inputs": [
        {
          "indexed": true,
          "internalType": "address",
          "name": "owner",
          "type": "address"
        },
        {
          "indexed": true,
          "internalType": "address",
          "name": "operator",
          "type": "address"
        },
        {
          "indexed": false,
          "internalType": "bool",
          "name": "approved",
          "type": "bool"
        }
      ],
      "name": "ApprovalForAll",
      "type": "event"
    },
    {
      "anonymous": false,
      "inputs": [
        {
          "indexed": true,
          "internalType": "address",
          "name": "user",
          "type": "address"
        },
        {
          "indexed": false,
          "internalType": "uint256",
          "name": "cost",
          "type": "uint256"
        }
      ],
      "name": "ItemCostSet",
      "type": "event"
    },
    {
      "anonymous": false,
      "inputs": [
        {
          "indexed": true,
          "internalType": "address",
          "name": "previousOwner",
          "type": "address"
        },
        {
          "indexed": true,
          "internalType": "address",
          "name": "newOwner",
          "type": "address"
        }
      ],
      "name": "OwnershipTransferred",
      "type": "event"
    },
    {
      "anonymous": false,
      "inputs": [
        {
          "indexed": true,
          "internalType": "address",
          "name": "user",
          "type": "address"
        }
      ],
      "name": "SaleActivated",
      "type": "event"
    },
    {
      "anonymous": false,
      "inputs": [
        {
          "indexed": true,
          "internalType": "address",
          "name": "buyer",
          "type": "address"
        },
        {
          "indexed": true,
          "internalType": "uint256",
          "name": "tokenId",
          "type": "uint256"
        }
      ],
      "name": "Sold",
      "type": "event"
    },
    {
      "anonymous": false,
      "inputs": [
        {
          "indexed": true,
          "internalType": "address",
          "name": "from",
          "type": "address"
        },
        {
          "indexed": true,
          "internalType": "address",
          "name": "to",
          "type": "address"
        },
        {
          "indexed": true,
          "internalType": "uint256",
          "name": "tokenId",
          "type": "uint256"
        }
      ],
      "name": "Transfer",
      "type": "event"
    },
    {
      "inputs": [],
      "name": "CURRENT_SALE_ID",
      "outputs": [
        {
          "internalType": "uint256",
          "name": "_value",
          "type": "uint256"
        }
      ],
      "stateMutability": "view",
      "type": "function"
    },
    {
      "inputs": [],
      "name": "DEVWALLET",
      "outputs": [
        {
          "internalType": "address",
          "name": "",
          "type": "address"
        }
      ],
      "stateMutability": "view",
      "type": "function"
    },
    {
      "inputs": [],
      "name": "ITEMCOST",
      "outputs": [
        {
          "internalType": "uint256",
          "name": "",
          "type": "uint256"
        }
      ],
      "stateMutability": "view",
      "type": "function"
    },
    {
      "inputs": [],
      "name": "PUBLICSALETIMESTAMP",
      "outputs": [
        {
          "internalType": "uint256",
          "name": "",
          "type": "uint256"
        }
      ],
      "stateMutability": "view",
      "type": "function"
    },
    {
      "inputs": [],
      "name": "STABLETOKEN",
      "outputs": [
        {
          "internalType": "address",
          "name": "",
          "type": "address"
        }
      ],
      "stateMutability": "view",
      "type": "function"
    },
    {
      "inputs": [],
      "name": "TOKEN_IDS",
      "outputs": [
        {
          "internalType": "uint256",
          "name": "_value",
          "type": "uint256"
        }
      ],
      "stateMutability": "view",
      "type": "function"
    },
    {
      "inputs": [
        {
          "internalType": "address",
          "name": "",
          "type": "address"
        }
      ],
      "name": "WHITELIST",
      "outputs": [
        {
          "internalType": "bool",
          "name": "",
          "type": "bool"
        }
      ],
      "stateMutability": "view",
      "type": "function"
    },
    {
      "inputs": [
        {
          "internalType": "address",
          "name": "",
          "type": "address"
        }
      ],
      "name": "WHITELISTED_ADDRESSES_AMOUNT",
      "outputs": [
        {
          "internalType": "uint256",
          "name": "",
          "type": "uint256"
        }
      ],
      "stateMutability": "view",
      "type": "function"
    },
    {
      "inputs": [],
      "name": "activateSale",
      "outputs": [],
      "stateMutability": "nonpayable",
      "type": "function"
    },
    {
      "inputs": [
        {
          "internalType": "address",
          "name": "whitelistAddress",
          "type": "address"
        }
      ],
      "name": "addWhiteList",
      "outputs": [],
      "stateMutability": "nonpayable",
      "type": "function"
    },
    {
      "inputs": [
        {
          "internalType": "address",
          "name": "to",
          "type": "address"
        },
        {
          "internalType": "uint256",
          "name": "tokenId",
          "type": "uint256"
        }
      ],
      "name": "approve",
      "outputs": [],
      "stateMutability": "nonpayable",
      "type": "function"
    },
    {
      "inputs": [
        {
          "internalType": "address",
          "name": "owner",
          "type": "address"
        }
      ],
      "name": "balanceOf",
      "outputs": [
        {
          "internalType": "uint256",
          "name": "",
          "type": "uint256"
        }
      ],
      "stateMutability": "view",
      "type": "function"
    },
    {
      "inputs": [],
      "name": "buyDragonNest",
      "outputs": [],
      "stateMutability": "nonpayable",
      "type": "function"
    },
    {
      "inputs": [
        {
          "internalType": "uint256",
          "name": "tokenId",
          "type": "uint256"
        }
      ],
      "name": "getApproved",
      "outputs": [
        {
          "internalType": "address",
          "name": "",
          "type": "address"
        }
      ],
      "stateMutability": "view",
      "type": "function"
    },
    {
      "inputs": [
        {
          "internalType": "address",
          "name": "owner",
          "type": "address"
        },
        {
          "internalType": "address",
          "name": "operator",
          "type": "address"
        }
      ],
      "name": "isApprovedForAll",
      "outputs": [
        {
          "internalType": "bool",
          "name": "",
          "type": "bool"
        }
      ],
      "stateMutability": "view",
      "type": "function"
    },
    {
      "inputs": [
        {
          "internalType": "string",
          "name": "tokenURI",
          "type": "string"
        }
      ],
      "name": "mintItem",
      "outputs": [
        {
          "internalType": "uint256",
          "name": "",
          "type": "uint256"
        }
      ],
      "stateMutability": "nonpayable",
      "type": "function"
    },
    {
      "inputs": [],
      "name": "name",
      "outputs": [
        {
          "internalType": "string",
          "name": "",
          "type": "string"
        }
      ],
      "stateMutability": "view",
      "type": "function"
    },
    {
      "inputs": [],
      "name": "owner",
      "outputs": [
        {
          "internalType": "address",
          "name": "",
          "type": "address"
        }
      ],
      "stateMutability": "view",
      "type": "function"
    },
    {
      "inputs": [
        {
          "internalType": "uint256",
          "name": "tokenId",
          "type": "uint256"
        }
      ],
      "name": "ownerOf",
      "outputs": [
        {
          "internalType": "address",
          "name": "",
          "type": "address"
        }
      ],
      "stateMutability": "view",
      "type": "function"
    },
    {
      "inputs": [],
      "name": "renounceOwnership",
      "outputs": [],
      "stateMutability": "nonpayable",
      "type": "function"
    },
    {
      "inputs": [
        {
          "internalType": "address",
          "name": "from",
          "type": "address"
        },
        {
          "internalType": "address",
          "name": "to",
          "type": "address"
        },
        {
          "internalType": "uint256",
          "name": "tokenId",
          "type": "uint256"
        }
      ],
      "name": "safeTransferFrom",
      "outputs": [],
      "stateMutability": "nonpayable",
      "type": "function"
    },
    {
      "inputs": [
        {
          "internalType": "address",
          "name": "from",
          "type": "address"
        },
        {
          "internalType": "address",
          "name": "to",
          "type": "address"
        },
        {
          "internalType": "uint256",
          "name": "tokenId",
          "type": "uint256"
        },
        {
          "internalType": "bytes",
          "name": "_data",
          "type": "bytes"
        }
      ],
      "name": "safeTransferFrom",
      "outputs": [],
      "stateMutability": "nonpayable",
      "type": "function"
    },
    {
      "inputs": [
        {
          "internalType": "address",
          "name": "operator",
          "type": "address"
        },
        {
          "internalType": "bool",
          "name": "approved",
          "type": "bool"
        }
      ],
      "name": "setApprovalForAll",
      "outputs": [],
      "stateMutability": "nonpayable",
      "type": "function"
    },
    {
      "inputs": [
        {
          "internalType": "uint256",
          "name": "_cost",
          "type": "uint256"
        }
      ],
      "name": "setItemCost",
      "outputs": [],
      "stateMutability": "nonpayable",
      "type": "function"
    },
    {
      "inputs": [
        {
          "internalType": "bytes4",
          "name": "interfaceId",
          "type": "bytes4"
        }
      ],
      "name": "supportsInterface",
      "outputs": [
        {
          "internalType": "bool",
          "name": "",
          "type": "bool"
        }
      ],
      "stateMutability": "view",
      "type": "function"
    },
    {
      "inputs": [],
      "name": "symbol",
      "outputs": [
        {
          "internalType": "string",
          "name": "",
          "type": "string"
        }
      ],
      "stateMutability": "view",
      "type": "function"
    },
    {
      "inputs": [
        {
          "internalType": "uint256",
          "name": "tokenId",
          "type": "uint256"
        }
      ],
      "name": "tokenURI",
      "outputs": [
        {
          "internalType": "string",
          "name": "",
          "type": "string"
        }
      ],
      "stateMutability": "view",
      "type": "function"
    },
    {
      "inputs": [
        {
          "internalType": "address",
          "name": "from",
          "type": "address"
        },
        {
          "internalType": "address",
          "name": "to",
          "type": "address"
        },
        {
          "internalType": "uint256",
          "name": "tokenId",
          "type": "uint256"
        }
      ],
      "name": "transferFrom",
      "outputs": [],
      "stateMutability": "nonpayable",
      "type": "function"
    },
    {
      "inputs": [
        {
          "internalType": "address",
          "name": "newOwner",
          "type": "address"
        }
      ],
      "name": "transferOwnership",
      "outputs": [],
      "stateMutability": "nonpayable",
      "type": "function"
    }
  ],
  "transactionHash": "0xda532047b0e53f5a0503b207823c86ead0eb55206d466201bbb11a3c98b31398",
  "args": [
    "0x6C641CE6A7216F12d28692f9d8b2BDcdE812eD2b",
    "0x2a76583690dB7ED7D1f977100fB4b369c536195B",
    1637139209
  ],
  "solcInputHash": "56eb90207329585f2316b84e0cd3e4dc",
  "bytecode": "0x60e06040523480156200001157600080fd5b506040516200289438038062002894833981016040819052620000349162000287565b604080518082018252601681527f447261676f6e204e65737420537570706f72746572730000000000000000000060208083019182528351808501909452600484526344434e5360e01b9084015281519192916200009591600091620001c4565b508051620000ab906001906020840190620001c4565b505050620000c8620000c26200016e60201b60201c565b62000172565b60016008556001600160a01b038316620000ff5760405162461bcd60e51b8152600401620000f690620002fe565b60405180910390fd5b6001600160a01b038216620001285760405162461bcd60e51b8152600401620000f690620002fe565b4281116200014a5760405162461bcd60e51b8152600401620000f690620002c7565b6001600160601b0319606093841b811660a0529190921b1660805260c05262000372565b3390565b600780546001600160a01b038381166001600160a01b0319831681179093556040519116919082907f8be0079c531659141344cd1fd0a4f28419497f9722a3daafe3b4186f6b6457e090600090a35050565b828054620001d29062000335565b90600052602060002090601f016020900481019282620001f6576000855562000241565b82601f106200021157805160ff191683800117855562000241565b8280016001018555821562000241579182015b828111156200024157825182559160200191906001019062000224565b506200024f92915062000253565b5090565b5b808211156200024f576000815560010162000254565b80516001600160a01b03811681146200028257600080fd5b919050565b6000806000606084860312156200029c578283fd5b620002a7846200026a565b9250620002b7602085016200026a565b9150604084015190509250925092565b60208082526017908201527f6d757374206f70656e20696e2074686520667574757265000000000000000000604082015260600190565b60208082526015908201527f6d7573742062652076616c696420616464726573730000000000000000000000604082015260600190565b6002810460018216806200034a57607f821691505b602082108114156200036c57634e487b7160e01b600052602260045260246000fd5b50919050565b60805160601c60a05160601c60c0516124d0620003c46000396000818161064f01528181610755015261081201526000818161058e01526107080152600081816106df015261099601526124d06000f3fe608060405234801561001057600080fd5b50600436106101cf5760003560e01c8063715018a611610104578063bc1c864c116100a2578063e7cd4a0411610071578063e7cd4a0414610375578063e985e9c514610388578063f2fde38b1461039b578063fdc7e37a146103ae576101cf565b8063bc1c864c14610334578063c721f08d14610347578063c75458491461034f578063c87b56dd14610362576101cf565b80638e580f0a116100de5780638e580f0a146102fe57806395d89b4114610306578063a22cb4651461030e578063b88d4fde14610321576101cf565b8063715018a6146102e65780638b80118e146102ee5780638da5cb5b146102f6576101cf565b806323639f6b116101715780633f7a03f91161014b5780633f7a03f91461029a57806342842e0e146102ad5780636352211e146102c057806370a08231146102d3576101cf565b806323639f6b1461027757806323b872dd1461027f5780632a65997514610292576101cf565b8063095ea7b3116101ad578063095ea7b314610232578063122a09b21461024757806318bb6f141461025c5780631a95328f1461026f576101cf565b806301ffc9a7146101d457806306fdde03146101fd578063081812fc14610212575b600080fd5b6101e76101e23660046119c6565b6103b6565b6040516101f49190611b47565b60405180910390f35b6102056103fe565b6040516101f49190611b52565b610225610220366004611a44565b610490565b6040516101f49190611ad3565b610245610240366004611981565b6104dc565b005b61024f610574565b6040516101f4919061233b565b61024f61026a36600461184b565b61057a565b61022561058c565b6102456105b0565b61024561028d366004611897565b6107d8565b61024f610810565b6102456102a8366004611a44565b610834565b6102456102bb366004611897565b6108b5565b6102256102ce366004611a44565b6108d0565b61024f6102e136600461184b565b610905565b610245610949565b610225610994565b6102256109b8565b61024f6109c7565b6102056109cd565b61024561031c36600461194b565b6109dc565b61024561032f3660046118d2565b610aaa565b6101e761034236600461184b565b610ae9565b610245610afe565b61024f61035d3660046119fe565b610bbc565b610205610370366004611a44565b610c52565b61024561038336600461184b565b610d73565b6101e7610396366004611865565b610e91565b6102456103a936600461184b565b610ebf565b61024f610f30565b60006001600160e01b031982166380ac58cd60e01b14806103e757506001600160e01b03198216635b5e139f60e01b145b806103f657506103f682610f36565b90505b919050565b60606000805461040d906123ca565b80601f0160208091040260200160405190810160405280929190818152602001828054610439906123ca565b80156104865780601f1061045b57610100808354040283529160200191610486565b820191906000526020600020905b81548152906001019060200180831161046957829003601f168201915b5050505050905090565b600061049b82610f4f565b6104c05760405162461bcd60e51b81526004016104b79061202c565b60405180910390fd5b506000908152600460205260409020546001600160a01b031690565b60006104e7826108d0565b9050806001600160a01b0316836001600160a01b0316141561051b5760405162461bcd60e51b81526004016104b7906121c1565b806001600160a01b031661052d610f6c565b6001600160a01b03161480610549575061054981610396610f6c565b6105655760405162461bcd60e51b81526004016104b790611e08565b61056f8383610f70565b505050565b600b5481565b600d6020526000908152604090205481565b7f000000000000000000000000000000000000000000000000000000000000000081565b600260085414156105d35760405162461bcd60e51b81526004016104b790612296565b600260088190556105e56102e1610f6c565b106106025760405162461bcd60e51b81526004016104b790611dd1565b600e5460ff166106245760405162461bcd60e51b81526004016104b790612304565b6019610630600a610fde565b1061064d5760405162461bcd60e51b81526004016104b7906120ad565b7f00000000000000000000000000000000000000000000000000000000000000004210156106d057336000908152600c602052604090205460ff166106a45760405162461bcd60e51b81526004016104b790611d9a565b336000908152600d60205260409020546106d05760405162461bcd60e51b81526004016104b7906120e4565b6106da600a610fe2565b61072f7f0000000000000000000000000000000000000000000000000000000000000000610706610f6c565b7f0000000000000000000000000000000000000000000000000000000000000000600b54610feb565b610753303361073e600a610fde565b604051806020016040528060008152506110f0565b7f000000000000000000000000000000000000000000000000000000000000000042101561079c57336000908152600d60205260408120805491610796836123b3565b91905055505b6107a6600a610fde565b60405133907fae92ab4b6f8f401ead768d3273e6bb937a13e39827d19c6376e8fd4512a05d9a90600090a36001600855565b6107e96107e3610f6c565b82611123565b6108055760405162461bcd60e51b81526004016104b790612239565b61056f8383836111a0565b7f000000000000000000000000000000000000000000000000000000000000000081565b61083c610f6c565b6001600160a01b031661084d6109b8565b6001600160a01b0316146108735760405162461bcd60e51b81526004016104b790612078565b600b81905560405133907f9075886eb4f5c94041a2c18d656a1dd9839da28e5a5effd8f0a6cd4885894ad7906108aa90849061233b565b60405180910390a250565b61056f83838360405180602001604052806000815250610aaa565b6000818152600260205260408120546001600160a01b0316806103f65760405162461bcd60e51b81526004016104b790611ef4565b60006001600160a01b03821661092d5760405162461bcd60e51b81526004016104b790611eaa565b506001600160a01b031660009081526003602052604090205490565b610951610f6c565b6001600160a01b03166109626109b8565b6001600160a01b0316146109885760405162461bcd60e51b81526004016104b790612078565b61099260006112cd565b565b7f000000000000000000000000000000000000000000000000000000000000000081565b6007546001600160a01b031690565b600a5481565b60606001805461040d906123ca565b6109e4610f6c565b6001600160a01b0316826001600160a01b03161415610a155760405162461bcd60e51b81526004016104b790611d17565b8060056000610a22610f6c565b6001600160a01b03908116825260208083019390935260409182016000908120918716808252919093529120805460ff191692151592909217909155610a66610f6c565b6001600160a01b03167f17307eab39ab6107e8899845ad3d59bd9653f200f220920489ca2b5937696c3183604051610a9e9190611b47565b60405180910390a35050565b610abb610ab5610f6c565b83611123565b610ad75760405162461bcd60e51b81526004016104b790612239565b610ae3848484846110f0565b50505050565b600c6020526000908152604090205460ff1681565b610b06610f6c565b6001600160a01b0316610b176109b8565b6001600160a01b031614610b3d5760405162461bcd60e51b81526004016104b790612078565b600e5460ff1615610b605760405162461bcd60e51b81526004016104b790612202565b6000600b5411610b825760405162461bcd60e51b81526004016104b790611e65565b600e805460ff1916600117905560405133907f508b0ca7d8de9309bee7729ff435b1e1a3933b59d9cfa6aebe50eb6025e7cbe090600090a2565b6000610bc6610f6c565b6001600160a01b0316610bd76109b8565b6001600160a01b031614610bfd5760405162461bcd60e51b81526004016104b790612078565b6019610c096009610fde565b10610c265760405162461bcd60e51b81526004016104b7906122cd565b610c306009610fe2565b6000610c3c6009610fde565b9050610c48308261131f565b6103f681846113fe565b6060610c5d82610f4f565b610c795760405162461bcd60e51b81526004016104b790611fcf565b60008281526006602052604081208054610c92906123ca565b80601f0160208091040260200160405190810160405280929190818152602001828054610cbe906123ca565b8015610d0b5780601f10610ce057610100808354040283529160200191610d0b565b820191906000526020600020905b815481529060010190602001808311610cee57829003601f168201915b505050505090506000610d1c611442565b9050805160001415610d30575090506103f9565b815115610d62578082604051602001610d4a929190611aa4565b604051602081830303815290604052925050506103f9565b610d6b84611454565b949350505050565b610d7b610f6c565b6001600160a01b0316610d8c6109b8565b6001600160a01b031614610db25760405162461bcd60e51b81526004016104b790612078565b6002610dbd82610905565b6001600160a01b0383166000908152600d6020526040902054610de09190612344565b10610dfd5760405162461bcd60e51b81526004016104b790611c9c565b6001600160a01b0381166000908152600c60209081526040808320805460ff19166001179055600d9091528120805491610e3683612405565b90915550506001600160a01b0381166000818152600d60205260409081902054905133917fcaf0b877e2f2ce5b633c5bc90232b67249284943deca3613d346849e90ec178891610e86919061233b565b60405180910390a350565b6001600160a01b03918216600090815260056020908152604080832093909416825291909152205460ff1690565b610ec7610f6c565b6001600160a01b0316610ed86109b8565b6001600160a01b031614610efe5760405162461bcd60e51b81526004016104b790612078565b6001600160a01b038116610f245760405162461bcd60e51b81526004016104b790611bc2565b610f2d816112cd565b50565b60095481565b6001600160e01b031981166301ffc9a760e01b14919050565b6000908152600260205260409020546001600160a01b0316151590565b3390565b600081815260046020526040902080546001600160a01b0319166001600160a01b0384169081179091558190610fa5826108d0565b6001600160a01b03167f8c5be1e5ebec7d5bd14f71427d1e84f3dd0314c0f7b2291e5b200ac8c7c3b92560405160405180910390a45050565b5490565b80546001019055565b600080856001600160a01b03166323b872dd86868660405160240161101293929190611ae7565b6040516020818303038152906040529060e01b6020820180517bffffffffffffffffffffffffffffffffffffffffffffffffffffffff83818316178352505050506040516110609190611a88565b6000604051808303816000865af19150503d806000811461109d576040519150601f19603f3d011682016040523d82523d6000602084013e6110a2565b606091505b50915091508180156110cc5750805115806110cc5750808060200190518101906110cc91906119aa565b6110e85760405162461bcd60e51b81526004016104b790611c3f565b505050505050565b6110fb8484846111a0565b611107848484846114d7565b610ae35760405162461bcd60e51b81526004016104b790611b65565b600061112e82610f4f565b61114a5760405162461bcd60e51b81526004016104b790611d4e565b6000611155836108d0565b9050806001600160a01b0316846001600160a01b031614806111905750836001600160a01b031661118584610490565b6001600160a01b0316145b80610d6b5750610d6b8185610e91565b826001600160a01b03166111b3826108d0565b6001600160a01b0316146111d95760405162461bcd60e51b81526004016104b79061211b565b6001600160a01b0382166111ff5760405162461bcd60e51b81526004016104b790611cd3565b61120a83838361056f565b611215600082610f70565b6001600160a01b038316600090815260036020526040812080546001929061123e908490612370565b90915550506001600160a01b038216600090815260036020526040812080546001929061126c908490612344565b909155505060008181526002602052604080822080546001600160a01b0319166001600160a01b0386811691821790925591518493918716917fddf252ad1be2c89b69c2b068fc378daa952ba7f163c4a11628f55a4df523b3ef91a4505050565b600780546001600160a01b038381166001600160a01b0319831681179093556040519116919082907f8be0079c531659141344cd1fd0a4f28419497f9722a3daafe3b4186f6b6457e090600090a35050565b6001600160a01b0382166113455760405162461bcd60e51b81526004016104b790611f9a565b61134e81610f4f565b1561136b5760405162461bcd60e51b81526004016104b790611c08565b6113776000838361056f565b6001600160a01b03821660009081526003602052604081208054600192906113a0908490612344565b909155505060008181526002602052604080822080546001600160a01b0319166001600160a01b03861690811790915590518392907fddf252ad1be2c89b69c2b068fc378daa952ba7f163c4a11628f55a4df523b3ef908290a45050565b61140782610f4f565b6114235760405162461bcd60e51b81526004016104b790611f3d565b6000828152600660209081526040909120825161056f9284019061172b565b60408051602081019091526000815290565b606061145f82610f4f565b61147b5760405162461bcd60e51b81526004016104b790612164565b6000611485611442565b905060008151116114a557604051806020016040528060008152506114d0565b806114af846115f2565b6040516020016114c0929190611aa4565b6040516020818303038152906040525b9392505050565b60006114eb846001600160a01b0316611725565b156115e757836001600160a01b031663150b7a02611507610f6c565b8786866040518563ffffffff1660e01b81526004016115299493929190611b0b565b602060405180830381600087803b15801561154357600080fd5b505af1925050508015611573575060408051601f3d908101601f19168201909252611570918101906119e2565b60015b6115cd573d8080156115a1576040519150601f19603f3d011682016040523d82523d6000602084013e6115a6565b606091505b5080516115c55760405162461bcd60e51b81526004016104b790611b65565b805181602001fd5b6001600160e01b031916630a85bd0160e11b149050610d6b565b506001949350505050565b60608161161757506040805180820190915260018152600360fc1b60208201526103f9565b8160005b8115611641578061162b81612405565b915061163a9050600a8361235c565b915061161b565b60008167ffffffffffffffff81111561166a57634e487b7160e01b600052604160045260246000fd5b6040519080825280601f01601f191660200182016040528015611694576020820181803683370190505b5090505b8415610d6b576116a9600183612370565b91506116b6600a86612420565b6116c1906030612344565b60f81b8183815181106116e457634e487b7160e01b600052603260045260246000fd5b60200101907effffffffffffffffffffffffffffffffffffffffffffffffffffffffffffff1916908160001a90535061171e600a8661235c565b9450611698565b3b151590565b828054611737906123ca565b90600052602060002090601f016020900481019282611759576000855561179f565b82601f1061177257805160ff191683800117855561179f565b8280016001018555821561179f579182015b8281111561179f578251825591602001919060010190611784565b506117ab9291506117af565b5090565b5b808211156117ab57600081556001016117b0565b600067ffffffffffffffff808411156117df576117df612460565b604051601f8501601f19168101602001828111828210171561180357611803612460565b60405284815291508183850186101561181b57600080fd5b8484602083013760006020868301015250509392505050565b80356001600160a01b03811681146103f957600080fd5b60006020828403121561185c578081fd5b6114d082611834565b60008060408385031215611877578081fd5b61188083611834565b915061188e60208401611834565b90509250929050565b6000806000606084860312156118ab578081fd5b6118b484611834565b92506118c260208501611834565b9150604084013590509250925092565b600080600080608085870312156118e7578081fd5b6118f085611834565b93506118fe60208601611834565b925060408501359150606085013567ffffffffffffffff811115611920578182fd5b8501601f81018713611930578182fd5b61193f878235602084016117c4565b91505092959194509250565b6000806040838503121561195d578182fd5b61196683611834565b9150602083013561197681612476565b809150509250929050565b60008060408385031215611993578182fd5b61199c83611834565b946020939093013593505050565b6000602082840312156119bb578081fd5b81516114d081612476565b6000602082840312156119d7578081fd5b81356114d081612484565b6000602082840312156119f3578081fd5b81516114d081612484565b600060208284031215611a0f578081fd5b813567ffffffffffffffff811115611a25578182fd5b8201601f81018413611a35578182fd5b610d6b848235602084016117c4565b600060208284031215611a55578081fd5b5035919050565b60008151808452611a74816020860160208601612387565b601f01601f19169290920160200192915050565b60008251611a9a818460208701612387565b9190910192915050565b60008351611ab6818460208801612387565b835190830190611aca818360208801612387565b01949350505050565b6001600160a01b0391909116815260200190565b6001600160a01b039384168152919092166020820152604081019190915260600190565b60006001600160a01b03808716835280861660208401525083604083015260806060830152611b3d6080830184611a5c565b9695505050505050565b901515815260200190565b6000602082526114d06020830184611a5c565b60208082526032908201527f4552433732313a207472616e7366657220746f206e6f6e20455243373231526560408201527f63656976657220696d706c656d656e7465720000000000000000000000000000606082015260800190565b60208082526026908201527f4f776e61626c653a206e6577206f776e657220697320746865207a65726f206160408201526564647265737360d01b606082015260800190565b6020808252601c908201527f4552433732313a20746f6b656e20616c7265616479206d696e74656400000000604082015260600190565b60208082526031908201527f5472616e7366657248656c7065723a3a7472616e7366657246726f6d3a20747260408201527f616e7366657246726f6d206661696c6564000000000000000000000000000000606082015260800190565b6020808252601a908201527f616c726561647920686173203220696e20616c6c6f77616e6365000000000000604082015260600190565b60208082526024908201527f4552433732313a207472616e7366657220746f20746865207a65726f206164646040820152637265737360e01b606082015260800190565b60208082526019908201527f4552433732313a20617070726f766520746f2063616c6c657200000000000000604082015260600190565b6020808252602c908201527f4552433732313a206f70657261746f7220717565727920666f72206e6f6e657860408201526b34b9ba32b73a103a37b5b2b760a11b606082015260800190565b60208082526010908201527f4e6f7420696e2077686974656c69737400000000000000000000000000000000604082015260600190565b60208082526010908201527f447261676f6e3a466f7262696464656e00000000000000000000000000000000604082015260600190565b60208082526038908201527f4552433732313a20617070726f76652063616c6c6572206973206e6f74206f7760408201527f6e6572206e6f7220617070726f76656420666f7220616c6c0000000000000000606082015260800190565b60208082526025908201527f6974656d73206d7573742068617665206120707269636520746f20676f206f6e6040820152642073616c6560d81b606082015260800190565b6020808252602a908201527f4552433732313a2062616c616e636520717565727920666f7220746865207a65604082015269726f206164647265737360b01b606082015260800190565b60208082526029908201527f4552433732313a206f776e657220717565727920666f72206e6f6e657869737460408201526832b73a103a37b5b2b760b91b606082015260800190565b6020808252602e908201527f45524337323155524953746f726167653a2055524920736574206f66206e6f6e60408201527f6578697374656e7420746f6b656e000000000000000000000000000000000000606082015260800190565b6020808252818101527f4552433732313a206d696e7420746f20746865207a65726f2061646472657373604082015260600190565b60208082526031908201527f45524337323155524953746f726167653a2055524920717565727920666f722060408201527f6e6f6e6578697374656e7420746f6b656e000000000000000000000000000000606082015260800190565b6020808252602c908201527f4552433732313a20617070726f76656420717565727920666f72206e6f6e657860408201526b34b9ba32b73a103a37b5b2b760a11b606082015260800190565b6020808252818101527f4f776e61626c653a2063616c6c6572206973206e6f7420746865206f776e6572604082015260600190565b6020808252600f908201527f616c6c20746f6b656e7320736f6c640000000000000000000000000000000000604082015260600190565b60208082526018908201527f6d757374206861766520707572636861736573206c6566740000000000000000604082015260600190565b60208082526029908201527f4552433732313a207472616e73666572206f6620746f6b656e2074686174206960408201526839903737ba1037bbb760b91b606082015260800190565b6020808252602f908201527f4552433732314d657461646174613a2055524920717565727920666f72206e6f60408201527f6e6578697374656e7420746f6b656e0000000000000000000000000000000000606082015260800190565b60208082526021908201527f4552433732313a20617070726f76616c20746f2063757272656e74206f776e656040820152603960f91b606082015260800190565b60208082526016908201527f73616c6520697320616c72656164792061637469766500000000000000000000604082015260600190565b60208082526031908201527f4552433732313a207472616e736665722063616c6c6572206973206e6f74206f60408201527f776e6572206e6f7220617070726f766564000000000000000000000000000000606082015260800190565b6020808252601f908201527f5265656e7472616e637947756172643a207265656e7472616e742063616c6c00604082015260600190565b6020808252601b908201527f416c6c20746f6b656e732068617665206265656e206d696e7465640000000000604082015260600190565b60208082526013908201527f73616c65206d7573742062652061637469766500000000000000000000000000604082015260600190565b90815260200190565b6000821982111561235757612357612434565b500190565b60008261236b5761236b61244a565b500490565b60008282101561238257612382612434565b500390565b60005b838110156123a257818101518382015260200161238a565b83811115610ae35750506000910152565b6000816123c2576123c2612434565b506000190190565b6002810460018216806123de57607f821691505b602082108114156123ff57634e487b7160e01b600052602260045260246000fd5b50919050565b600060001982141561241957612419612434565b5060010190565b60008261242f5761242f61244a565b500690565b634e487b7160e01b600052601160045260246000fd5b634e487b7160e01b600052601260045260246000fd5b634e487b7160e01b600052604160045260246000fd5b8015158114610f2d57600080fd5b6001600160e01b031981168114610f2d57600080fdfea264697066735822122009a706dc4009edcda55f58020c064e5acfb1ce4206fe4f78496c76fc84be2a4e64736f6c63430008000033",
  "devdoc": {
    "kind": "dev",
    "methods": {
      "approve(address,uint256)": {
        "details": "See {IERC721-approve}."
      },
      "balanceOf(address)": {
        "details": "See {IERC721-balanceOf}."
      },
      "getApproved(uint256)": {
        "details": "See {IERC721-getApproved}."
      },
      "isApprovedForAll(address,address)": {
        "details": "See {IERC721-isApprovedForAll}."
      },
      "name()": {
        "details": "See {IERC721Metadata-name}."
      },
      "owner()": {
        "details": "Returns the address of the current owner."
      },
      "ownerOf(uint256)": {
        "details": "See {IERC721-ownerOf}."
      },
      "renounceOwnership()": {
        "details": "Leaves the contract without owner. It will not be possible to call `onlyOwner` functions anymore. Can only be called by the current owner. NOTE: Renouncing ownership will leave the contract without an owner, thereby removing any functionality that is only available to the owner."
      },
      "safeTransferFrom(address,address,uint256)": {
        "details": "See {IERC721-safeTransferFrom}."
      },
      "safeTransferFrom(address,address,uint256,bytes)": {
        "details": "See {IERC721-safeTransferFrom}."
      },
      "setApprovalForAll(address,bool)": {
        "details": "See {IERC721-setApprovalForAll}."
      },
      "supportsInterface(bytes4)": {
        "details": "See {IERC165-supportsInterface}."
      },
      "symbol()": {
        "details": "See {IERC721Metadata-symbol}."
      },
      "tokenURI(uint256)": {
        "details": "See {IERC721Metadata-tokenURI}."
      },
      "transferFrom(address,address,uint256)": {
        "details": "See {IERC721-transferFrom}."
      },
      "transferOwnership(address)": {
        "details": "Transfers ownership of the contract to a new account (`newOwner`). Can only be called by the current owner."
      }
    },
    "version": 1
  },
  "userdoc": {
    "kind": "user",
    "methods": {},
    "version": 1
  },
  "storageLayout": {
    "storage": [
      {
        "astId": 2478,
        "contract": "contracts/dragon/DragonNestSupporter.sol:DragonNestSupporter",
        "label": "_name",
        "offset": 0,
        "slot": "0",
        "type": "t_string_storage"
      },
      {
        "astId": 2480,
        "contract": "contracts/dragon/DragonNestSupporter.sol:DragonNestSupporter",
        "label": "_symbol",
        "offset": 0,
        "slot": "1",
        "type": "t_string_storage"
      },
      {
        "astId": 2484,
        "contract": "contracts/dragon/DragonNestSupporter.sol:DragonNestSupporter",
        "label": "_owners",
        "offset": 0,
        "slot": "2",
        "type": "t_mapping(t_uint256,t_address)"
      },
      {
        "astId": 2488,
        "contract": "contracts/dragon/DragonNestSupporter.sol:DragonNestSupporter",
        "label": "_balances",
        "offset": 0,
        "slot": "3",
        "type": "t_mapping(t_address,t_uint256)"
      },
      {
        "astId": 2492,
        "contract": "contracts/dragon/DragonNestSupporter.sol:DragonNestSupporter",
        "label": "_tokenApprovals",
        "offset": 0,
        "slot": "4",
        "type": "t_mapping(t_uint256,t_address)"
      },
      {
        "astId": 2498,
        "contract": "contracts/dragon/DragonNestSupporter.sol:DragonNestSupporter",
        "label": "_operatorApprovals",
        "offset": 0,
        "slot": "5",
        "type": "t_mapping(t_address,t_mapping(t_address,t_bool))"
      },
      {
        "astId": 3415,
        "contract": "contracts/dragon/DragonNestSupporter.sol:DragonNestSupporter",
        "label": "_tokenURIs",
        "offset": 0,
        "slot": "6",
        "type": "t_mapping(t_uint256,t_string_storage)"
      },
      {
        "astId": 7,
        "contract": "contracts/dragon/DragonNestSupporter.sol:DragonNestSupporter",
        "label": "_owner",
        "offset": 0,
        "slot": "7",
        "type": "t_address"
      },
      {
        "astId": 206,
        "contract": "contracts/dragon/DragonNestSupporter.sol:DragonNestSupporter",
        "label": "_status",
        "offset": 0,
        "slot": "8",
        "type": "t_uint256"
      },
      {
        "astId": 9035,
        "contract": "contracts/dragon/DragonNestSupporter.sol:DragonNestSupporter",
        "label": "TOKEN_IDS",
        "offset": 0,
        "slot": "9",
        "type": "t_struct(Counter)3909_storage"
      },
      {
        "astId": 9038,
        "contract": "contracts/dragon/DragonNestSupporter.sol:DragonNestSupporter",
        "label": "CURRENT_SALE_ID",
        "offset": 0,
        "slot": "10",
        "type": "t_struct(Counter)3909_storage"
      },
      {
        "astId": 9044,
        "contract": "contracts/dragon/DragonNestSupporter.sol:DragonNestSupporter",
        "label": "ITEMCOST",
        "offset": 0,
        "slot": "11",
        "type": "t_uint256"
      },
      {
        "astId": 9048,
        "contract": "contracts/dragon/DragonNestSupporter.sol:DragonNestSupporter",
        "label": "WHITELIST",
        "offset": 0,
        "slot": "12",
        "type": "t_mapping(t_address,t_bool)"
      },
      {
        "astId": 9052,
        "contract": "contracts/dragon/DragonNestSupporter.sol:DragonNestSupporter",
        "label": "WHITELISTED_ADDRESSES_AMOUNT",
        "offset": 0,
        "slot": "13",
        "type": "t_mapping(t_address,t_uint256)"
      },
      {
        "astId": 9054,
        "contract": "contracts/dragon/DragonNestSupporter.sol:DragonNestSupporter",
        "label": "_isSaleActive",
        "offset": 0,
        "slot": "14",
        "type": "t_bool"
      }
    ],
    "types": {
      "t_address": {
        "encoding": "inplace",
        "label": "address",
        "numberOfBytes": "20"
      },
      "t_bool": {
        "encoding": "inplace",
        "label": "bool",
        "numberOfBytes": "1"
      },
      "t_mapping(t_address,t_bool)": {
        "encoding": "mapping",
        "key": "t_address",
        "label": "mapping(address => bool)",
        "numberOfBytes": "32",
        "value": "t_bool"
      },
      "t_mapping(t_address,t_mapping(t_address,t_bool))": {
        "encoding": "mapping",
        "key": "t_address",
        "label": "mapping(address => mapping(address => bool))",
        "numberOfBytes": "32",
        "value": "t_mapping(t_address,t_bool)"
      },
      "t_mapping(t_address,t_uint256)": {
        "encoding": "mapping",
        "key": "t_address",
        "label": "mapping(address => uint256)",
        "numberOfBytes": "32",
        "value": "t_uint256"
      },
      "t_mapping(t_uint256,t_address)": {
        "encoding": "mapping",
        "key": "t_uint256",
        "label": "mapping(uint256 => address)",
        "numberOfBytes": "32",
        "value": "t_address"
      },
      "t_mapping(t_uint256,t_string_storage)": {
        "encoding": "mapping",
        "key": "t_uint256",
        "label": "mapping(uint256 => string)",
        "numberOfBytes": "32",
        "value": "t_string_storage"
      },
      "t_string_storage": {
        "encoding": "bytes",
        "label": "string",
        "numberOfBytes": "32"
      },
      "t_struct(Counter)3909_storage": {
        "encoding": "inplace",
        "label": "struct Counters.Counter",
        "members": [
          {
            "astId": 3908,
            "contract": "contracts/dragon/DragonNestSupporter.sol:DragonNestSupporter",
            "label": "_value",
            "offset": 0,
            "slot": "0",
            "type": "t_uint256"
          }
        ],
        "numberOfBytes": "32"
      },
      "t_uint256": {
        "encoding": "inplace",
        "label": "uint256",
        "numberOfBytes": "32"
      }
    }
  }
}