{
  "address": "0xD3067965605EE3F98D32860c3169FF6246F13826",
  "abi": [
    {
      "inputs": [],
      "stateMutability": "nonpayable",
      "type": "constructor"
    },
    {
      "anonymous": false,
      "inputs": [
        {
          "indexed": true,
          "internalType": "address",
          "name": "previousOwner",
          "type": "address"
        },
        {
          "indexed": true,
          "internalType": "address",
          "name": "newOwner",
          "type": "address"
        }
      ],
      "name": "OwnershipTransferred",
      "type": "event"
    },
    {
      "inputs": [
        {
          "internalType": "address",
          "name": "_character",
          "type": "address"
        },
        {
          "internalType": "uint256[]",
          "name": "attack",
          "type": "uint256[]"
        },
        {
          "internalType": "uint256[]",
          "name": "defense",
          "type": "uint256[]"
        },
        {
          "internalType": "uint256[]",
          "name": "speed",
          "type": "uint256[]"
        },
        {
          "internalType": "uint256[]",
          "name": "endurance",
          "type": "uint256[]"
        },
        {
          "internalType": "uint256[]",
          "name": "crafting",
          "type": "uint256[]"
        },
        {
          "internalType": "uint256[]",
          "name": "gathering",
          "type": "uint256[]"
        },
        {
          "internalType": "uint256[]",
          "name": "magic",
          "type": "uint256[]"
        },
        {
          "internalType": "uint256[]",
          "name": "rank",
          "type": "uint256[]"
        }
      ],
      "name": "bulkMint",
      "outputs": [],
      "stateMutability": "nonpayable",
      "type": "function"
    },
    {
      "inputs": [
        {
          "internalType": "address",
          "name": "",
          "type": "address"
        },
        {
          "internalType": "address",
          "name": "",
          "type": "address"
        },
        {
          "internalType": "uint256",
          "name": "",
          "type": "uint256"
        },
        {
          "internalType": "bytes",
          "name": "",
          "type": "bytes"
        }
      ],
      "name": "onERC721Received",
      "outputs": [
        {
          "internalType": "bytes4",
          "name": "",
          "type": "bytes4"
        }
      ],
      "stateMutability": "nonpayable",
      "type": "function"
    },
    {
      "inputs": [],
      "name": "owner",
      "outputs": [
        {
          "internalType": "address",
          "name": "",
          "type": "address"
        }
      ],
      "stateMutability": "view",
      "type": "function"
    },
    {
      "inputs": [],
      "name": "renounceOwnership",
      "outputs": [],
      "stateMutability": "nonpayable",
      "type": "function"
    },
    {
      "inputs": [
        {
          "internalType": "address",
          "name": "_character",
          "type": "address"
        },
        {
          "internalType": "address",
          "name": "_to",
          "type": "address"
        }
      ],
      "name": "transferCharacterOwnerShip",
      "outputs": [],
      "stateMutability": "nonpayable",
      "type": "function"
    },
    {
      "inputs": [
        {
          "internalType": "address",
          "name": "newOwner",
          "type": "address"
        }
      ],
      "name": "transferOwnership",
      "outputs": [],
      "stateMutability": "nonpayable",
      "type": "function"
    }
  ],
  "transactionHash": "0xc88231778518634139a8d0df28037a204bab5564817d73a39bc9d674e1e033e9",
  "args": [],
  "solcInputHash": "45e2e59d5c6be8a4f1c89813c62c1e03",
  "bytecode": "0x608060405234801561001057600080fd5b5061002161001c610026565b61002a565b61007a565b3390565b600080546001600160a01b038381166001600160a01b0319831681178455604051919092169283917f8be0079c531659141344cd1fd0a4f28419497f9722a3daafe3b4186f6b6457e09190a35050565b610ad9806100896000396000f3fe608060405234801561001057600080fd5b50600436106100725760003560e01c8063715018a611610050578063715018a6146100c85780638da5cb5b146100d0578063f2fde38b146100e557610072565b806312431f1514610077578063150b7a021461008c578063404ae703146100b5575b600080fd5b61008a6100853660046106a5565b6100f8565b005b61009f61009a3660046106d7565b6101a2565b6040516100ac9190610927565b60405180910390f35b61008a6100c336600461078f565b6101b2565b61008a6104ba565b6100d8610505565b6040516100ac91906108ef565b61008a6100f3366004610684565b610514565b610100610585565b6001600160a01b0316610111610505565b6001600160a01b0316146101405760405162461bcd60e51b8152600401610137906109d1565b60405180910390fd5b60405163f2fde38b60e01b81526001600160a01b0383169063f2fde38b9061016c9084906004016108ef565b600060405180830381600087803b15801561018657600080fd5b505af115801561019a573d6000803e3d6000fd5b505050505050565b630a85bd0160e11b949350505050565b6101ba610585565b6001600160a01b03166101cb610505565b6001600160a01b0316146101f15760405162461bcd60e51b8152600401610137906109d1565b86518851148015610203575085518851145b8015610210575084518851145b801561021d575083518551145b801561022a575082518451145b8015610237575081518351145b8015610244575080518251145b6102605760405162461bcd60e51b81526004016101379061099a565b87516000905b808210156104ad5760008b6001600160a01b03166347c8e7b28c858151811061029f57634e487b7160e01b600052603260045260246000fd5b60200260200101518c86815181106102c757634e487b7160e01b600052603260045260246000fd5b60200260200101518c87815181106102ef57634e487b7160e01b600052603260045260246000fd5b60200260200101518c888151811061031757634e487b7160e01b600052603260045260246000fd5b60200260200101518c898151811061033f57634e487b7160e01b600052603260045260246000fd5b60200260200101518c8a8151811061036757634e487b7160e01b600052603260045260246000fd5b60200260200101518c8b8151811061038f57634e487b7160e01b600052603260045260246000fd5b60200260200101518c8c815181106103b757634e487b7160e01b600052603260045260246000fd5b60200260200101516040518963ffffffff1660e01b81526004016103e2989796959493929190610a06565b602060405180830381600087803b1580156103fc57600080fd5b505af1158015610410573d6000803e3d6000fd5b505050506040513d601f19601f8201168201806040525081019061043491906108d7565b6040516323b872dd60e01b81529091506001600160a01b038d16906323b872dd9061046790309033908690600401610903565b600060405180830381600087803b15801561048157600080fd5b505af1158015610495573d6000803e3d6000fd5b505050505081806104a590610a66565b925050610266565b5050505050505050505050565b6104c2610585565b6001600160a01b03166104d3610505565b6001600160a01b0316146104f95760405162461bcd60e51b8152600401610137906109d1565b6105036000610589565b565b6000546001600160a01b031690565b61051c610585565b6001600160a01b031661052d610505565b6001600160a01b0316146105535760405162461bcd60e51b8152600401610137906109d1565b6001600160a01b0381166105795760405162461bcd60e51b815260040161013790610954565b61058281610589565b50565b3390565b600080546001600160a01b0383811673ffffffffffffffffffffffffffffffffffffffff19831681178455604051919092169283917f8be0079c531659141344cd1fd0a4f28419497f9722a3daafe3b4186f6b6457e09190a35050565b80356001600160a01b03811681146105fd57600080fd5b919050565b600082601f830112610612578081fd5b8135602067ffffffffffffffff82111561062e5761062e610a8d565b80820261063c828201610a3c565b838152828101908684018388018501891015610656578687fd5b8693505b8584101561067857803583526001939093019291840191840161065a565b50979650505050505050565b600060208284031215610695578081fd5b61069e826105e6565b9392505050565b600080604083850312156106b7578081fd5b6106c0836105e6565b91506106ce602084016105e6565b90509250929050565b600080600080608085870312156106ec578182fd5b6106f5856105e6565b935060206107048187016105e6565b935060408601359250606086013567ffffffffffffffff80821115610727578384fd5b818801915088601f83011261073a578384fd5b81358181111561074c5761074c610a8d565b61075e601f8201601f19168501610a3c565b91508082528984828501011115610773578485fd5b8084840185840137810190920192909252939692955090935050565b60008060008060008060008060006101208a8c0312156107ad578485fd5b6107b68a6105e6565b985060208a013567ffffffffffffffff808211156107d2578687fd5b6107de8d838e01610602565b995060408c01359150808211156107f3578687fd5b6107ff8d838e01610602565b985060608c0135915080821115610814578687fd5b6108208d838e01610602565b975060808c0135915080821115610835578687fd5b6108418d838e01610602565b965060a08c0135915080821115610856578586fd5b6108628d838e01610602565b955060c08c0135915080821115610877578485fd5b6108838d838e01610602565b945060e08c0135915080821115610898578384fd5b6108a48d838e01610602565b93506101008c01359150808211156108ba578283fd5b506108c78c828d01610602565b9150509295985092959850929598565b6000602082840312156108e8578081fd5b5051919050565b6001600160a01b0391909116815260200190565b6001600160a01b039384168152919092166020820152604081019190915260600190565b7fffffffff0000000000000000000000000000000000000000000000000000000091909116815260200190565b60208082526026908201527f4f776e61626c653a206e6577206f776e657220697320746865207a65726f206160408201526564647265737360d01b606082015260800190565b60208082526017908201527f4e6f7420657175616c20706172616d73206c656e677468000000000000000000604082015260600190565b6020808252818101527f4f776e61626c653a2063616c6c6572206973206e6f7420746865206f776e6572604082015260600190565b978852602088019690965260408701949094526060860192909252608085015260a084015260c083015260e08201526101000190565b60405181810167ffffffffffffffff81118282101715610a5e57610a5e610a8d565b604052919050565b6000600019821415610a8657634e487b7160e01b81526011600452602481fd5b5060010190565b634e487b7160e01b600052604160045260246000fdfea264697066735822122077fe065901543a1e090595c0cf00a60b7caf110e4670ed0c6e13769ecaafd3ed64736f6c63430008000033",
  "devdoc": {
    "kind": "dev",
    "methods": {
      "onERC721Received(address,address,uint256,bytes)": {
        "details": "See {IERC721Receiver-onERC721Received}. Always returns `IERC721Receiver.onERC721Received.selector`."
      },
      "owner()": {
        "details": "Returns the address of the current owner."
      },
      "renounceOwnership()": {
        "details": "Leaves the contract without owner. It will not be possible to call `onlyOwner` functions anymore. Can only be called by the current owner. NOTE: Renouncing ownership will leave the contract without an owner, thereby removing any functionality that is only available to the owner."
      },
      "transferOwnership(address)": {
        "details": "Transfers ownership of the contract to a new account (`newOwner`). Can only be called by the current owner."
      }
    },
    "version": 1
  },
  "userdoc": {
    "kind": "user",
    "methods": {
      "bulkMint(address,uint256[],uint256[],uint256[],uint256[],uint256[],uint256[],uint256[],uint256[])": {
        "notice": "Creates `_amount` token to `_to`. Must only be called by the owner (MasterChef)."
      }
    },
    "version": 1
  },
  "storageLayout": {
    "storage": [
      {
        "astId": 7,
        "contract": "contracts/mocks/DragonBulkMint.sol:DragonBulkMint",
        "label": "_owner",
        "offset": 0,
        "slot": "0",
        "type": "t_address"
      }
    ],
    "types": {
      "t_address": {
        "encoding": "inplace",
        "label": "address",
        "numberOfBytes": "20"
      }
    }
  }
}