{
  "address": "0xA9bf9e879524FDDaB92ccf5D1b85038931dd0Fc0",
  "abi": [
    {
      "inputs": [
        {
          "internalType": "string",
          "name": "uriUrl",
          "type": "string"
        }
      ],
      "stateMutability": "nonpayable",
      "type": "constructor"
    },
    {
      "anonymous": false,
      "inputs": [
        {
          "indexed": true,
          "internalType": "address",
          "name": "owner",
          "type": "address"
        },
        {
          "indexed": true,
          "internalType": "address",
          "name": "approved",
          "type": "address"
        },
        {
          "indexed": true,
          "internalType": "uint256",
          "name": "tokenId",
          "type": "uint256"
        }
      ],
      "name": "Approval",
      "type": "event"
    },
    {
      "anonymous": false,
      "inputs": [
        {
          "indexed": true,
          "internalType": "address",
          "name": "owner",
          "type": "address"
        },
        {
          "indexed": true,
          "internalType": "address",
          "name": "operator",
          "type": "address"
        },
        {
          "indexed": false,
          "internalType": "bool",
          "name": "approved",
          "type": "bool"
        }
      ],
      "name": "ApprovalForAll",
      "type": "event"
    },
    {
      "anonymous": false,
      "inputs": [
        {
          "indexed": true,
          "internalType": "address",
          "name": "_creator",
          "type": "address"
        },
        {
          "indexed": true,
          "internalType": "uint16",
          "name": "_type",
          "type": "uint16"
        },
        {
          "indexed": true,
          "internalType": "uint256",
          "name": "_tokenId",
          "type": "uint256"
        },
        {
          "indexed": false,
          "internalType": "address",
          "name": "_owner",
          "type": "address"
        },
        {
          "components": [
            {
              "internalType": "uint64",
              "name": "damage",
              "type": "uint64"
            },
            {
              "internalType": "uint64",
              "name": "defense",
              "type": "uint64"
            },
            {
              "internalType": "uint64",
              "name": "currentDurability",
              "type": "uint64"
            },
            {
              "internalType": "uint64",
              "name": "maxDurability",
              "type": "uint64"
            },
            {
              "internalType": "uint64",
              "name": "speed",
              "type": "uint64"
            },
            {
              "internalType": "uint64",
              "name": "endurance",
              "type": "uint64"
            },
            {
              "internalType": "uint64",
              "name": "luck",
              "type": "uint64"
            }
          ],
          "indexed": false,
          "internalType": "struct DragonEquipment.EquipmentStats",
          "name": "_stats",
          "type": "tuple"
        }
      ],
      "name": "EquipmentCreated",
      "type": "event"
    },
    {
      "anonymous": false,
      "inputs": [
        {
          "indexed": true,
          "internalType": "address",
          "name": "previousOwner",
          "type": "address"
        },
        {
          "indexed": true,
          "internalType": "address",
          "name": "newOwner",
          "type": "address"
        }
      ],
      "name": "OwnershipTransferred",
      "type": "event"
    },
    {
      "anonymous": false,
      "inputs": [
        {
          "indexed": true,
          "internalType": "address",
          "name": "from",
          "type": "address"
        },
        {
          "indexed": true,
          "internalType": "address",
          "name": "to",
          "type": "address"
        },
        {
          "indexed": true,
          "internalType": "uint256",
          "name": "tokenId",
          "type": "uint256"
        }
      ],
      "name": "Transfer",
      "type": "event"
    },
    {
      "inputs": [],
      "name": "EQUIPMENT_ARMS",
      "outputs": [
        {
          "internalType": "uint8",
          "name": "",
          "type": "uint8"
        }
      ],
      "stateMutability": "view",
      "type": "function"
    },
    {
      "inputs": [],
      "name": "EQUIPMENT_BACK",
      "outputs": [
        {
          "internalType": "uint8",
          "name": "",
          "type": "uint8"
        }
      ],
      "stateMutability": "view",
      "type": "function"
    },
    {
      "inputs": [],
      "name": "EQUIPMENT_BODY",
      "outputs": [
        {
          "internalType": "uint8",
          "name": "",
          "type": "uint8"
        }
      ],
      "stateMutability": "view",
      "type": "function"
    },
    {
      "inputs": [],
      "name": "EQUIPMENT_FEET",
      "outputs": [
        {
          "internalType": "uint8",
          "name": "",
          "type": "uint8"
        }
      ],
      "stateMutability": "view",
      "type": "function"
    },
    {
      "inputs": [],
      "name": "EQUIPMENT_FIRST_HAND",
      "outputs": [
        {
          "internalType": "uint8",
          "name": "",
          "type": "uint8"
        }
      ],
      "stateMutability": "view",
      "type": "function"
    },
    {
      "inputs": [],
      "name": "EQUIPMENT_GLOVES",
      "outputs": [
        {
          "internalType": "uint8",
          "name": "",
          "type": "uint8"
        }
      ],
      "stateMutability": "view",
      "type": "function"
    },
    {
      "inputs": [],
      "name": "EQUIPMENT_HEAD",
      "outputs": [
        {
          "internalType": "uint8",
          "name": "",
          "type": "uint8"
        }
      ],
      "stateMutability": "view",
      "type": "function"
    },
    {
      "inputs": [],
      "name": "EQUIPMENT_LEFT_RING",
      "outputs": [
        {
          "internalType": "uint8",
          "name": "",
          "type": "uint8"
        }
      ],
      "stateMutability": "view",
      "type": "function"
    },
    {
      "inputs": [],
      "name": "EQUIPMENT_LEGS",
      "outputs": [
        {
          "internalType": "uint8",
          "name": "",
          "type": "uint8"
        }
      ],
      "stateMutability": "view",
      "type": "function"
    },
    {
      "inputs": [],
      "name": "EQUIPMENT_NECK",
      "outputs": [
        {
          "internalType": "uint8",
          "name": "",
          "type": "uint8"
        }
      ],
      "stateMutability": "view",
      "type": "function"
    },
    {
      "inputs": [],
      "name": "EQUIPMENT_RIGHT_RING",
      "outputs": [
        {
          "internalType": "uint8",
          "name": "",
          "type": "uint8"
        }
      ],
      "stateMutability": "view",
      "type": "function"
    },
    {
      "inputs": [],
      "name": "EQUIPMENT_SECOND_HAND",
      "outputs": [
        {
          "internalType": "uint8",
          "name": "",
          "type": "uint8"
        }
      ],
      "stateMutability": "view",
      "type": "function"
    },
    {
      "inputs": [],
      "name": "EQUIPMENT_SHOULDERS",
      "outputs": [
        {
          "internalType": "uint8",
          "name": "",
          "type": "uint8"
        }
      ],
      "stateMutability": "view",
      "type": "function"
    },
    {
      "inputs": [],
      "name": "EQUIPMENT_TWO_HANDS",
      "outputs": [
        {
          "internalType": "uint8",
          "name": "",
          "type": "uint8"
        }
      ],
      "stateMutability": "view",
      "type": "function"
    },
    {
      "inputs": [],
      "name": "EQUIPMENT_UTILITY",
      "outputs": [
        {
          "internalType": "uint8",
          "name": "",
          "type": "uint8"
        }
      ],
      "stateMutability": "view",
      "type": "function"
    },
    {
      "inputs": [],
      "name": "EQUIPMENT_WAIST",
      "outputs": [
        {
          "internalType": "uint8",
          "name": "",
          "type": "uint8"
        }
      ],
      "stateMutability": "view",
      "type": "function"
    },
    {
      "inputs": [
        {
          "internalType": "address",
          "name": "toAdd",
          "type": "address"
        }
      ],
      "name": "addAuthorized",
      "outputs": [],
      "stateMutability": "nonpayable",
      "type": "function"
    },
    {
      "inputs": [
        {
          "internalType": "address",
          "name": "to",
          "type": "address"
        },
        {
          "internalType": "uint256",
          "name": "tokenId",
          "type": "uint256"
        }
      ],
      "name": "approve",
      "outputs": [],
      "stateMutability": "nonpayable",
      "type": "function"
    },
    {
      "inputs": [
        {
          "internalType": "address",
          "name": "",
          "type": "address"
        }
      ],
      "name": "authorized",
      "outputs": [
        {
          "internalType": "bool",
          "name": "",
          "type": "bool"
        }
      ],
      "stateMutability": "view",
      "type": "function"
    },
    {
      "inputs": [
        {
          "internalType": "address",
          "name": "owner",
          "type": "address"
        }
      ],
      "name": "balanceOf",
      "outputs": [
        {
          "internalType": "uint256",
          "name": "",
          "type": "uint256"
        }
      ],
      "stateMutability": "view",
      "type": "function"
    },
    {
      "inputs": [
        {
          "internalType": "uint256",
          "name": "_tokenId",
          "type": "uint256"
        },
        {
          "internalType": "uint256",
          "name": "_damageAmount",
          "type": "uint256"
        }
      ],
      "name": "damage",
      "outputs": [
        {
          "internalType": "bool",
          "name": "",
          "type": "bool"
        }
      ],
      "stateMutability": "nonpayable",
      "type": "function"
    },
    {
      "inputs": [
        {
          "internalType": "uint256",
          "name": "",
          "type": "uint256"
        }
      ],
      "name": "equipmentStats",
      "outputs": [
        {
          "internalType": "uint64",
          "name": "damage",
          "type": "uint64"
        },
        {
          "internalType": "uint64",
          "name": "defense",
          "type": "uint64"
        },
        {
          "internalType": "uint64",
          "name": "currentDurability",
          "type": "uint64"
        },
        {
          "internalType": "uint64",
          "name": "maxDurability",
          "type": "uint64"
        },
        {
          "internalType": "uint64",
          "name": "speed",
          "type": "uint64"
        },
        {
          "internalType": "uint64",
          "name": "endurance",
          "type": "uint64"
        },
        {
          "internalType": "uint64",
          "name": "luck",
          "type": "uint64"
        }
      ],
      "stateMutability": "view",
      "type": "function"
    },
    {
      "inputs": [
        {
          "internalType": "uint256",
          "name": "tokenId",
          "type": "uint256"
        }
      ],
      "name": "getApproved",
      "outputs": [
        {
          "internalType": "address",
          "name": "",
          "type": "address"
        }
      ],
      "stateMutability": "view",
      "type": "function"
    },
    {
      "inputs": [
        {
          "internalType": "address",
          "name": "owner",
          "type": "address"
        },
        {
          "internalType": "address",
          "name": "operator",
          "type": "address"
        }
      ],
      "name": "isApprovedForAll",
      "outputs": [
        {
          "internalType": "bool",
          "name": "",
          "type": "bool"
        }
      ],
      "stateMutability": "view",
      "type": "function"
    },
    {
      "inputs": [
        {
          "internalType": "address",
          "name": "_owner",
          "type": "address"
        },
        {
          "internalType": "uint16",
          "name": "_type",
          "type": "uint16"
        },
        {
          "internalType": "uint64",
          "name": "_damage",
          "type": "uint64"
        },
        {
          "internalType": "uint64",
          "name": "_defense",
          "type": "uint64"
        },
        {
          "internalType": "uint64",
          "name": "_durability",
          "type": "uint64"
        },
        {
          "internalType": "uint64",
          "name": "_speed",
          "type": "uint64"
        },
        {
          "internalType": "uint64",
          "name": "_endurance",
          "type": "uint64"
        },
        {
          "internalType": "uint64",
          "name": "_luck",
          "type": "uint64"
        }
      ],
      "name": "mintNewEquipment",
      "outputs": [
        {
          "internalType": "uint256",
          "name": "",
          "type": "uint256"
        }
      ],
      "stateMutability": "nonpayable",
      "type": "function"
    },
    {
      "inputs": [],
      "name": "name",
      "outputs": [
        {
          "internalType": "string",
          "name": "",
          "type": "string"
        }
      ],
      "stateMutability": "view",
      "type": "function"
    },
    {
      "inputs": [],
      "name": "owner",
      "outputs": [
        {
          "internalType": "address",
          "name": "",
          "type": "address"
        }
      ],
      "stateMutability": "view",
      "type": "function"
    },
    {
      "inputs": [
        {
          "internalType": "uint256",
          "name": "tokenId",
          "type": "uint256"
        }
      ],
      "name": "ownerOf",
      "outputs": [
        {
          "internalType": "address",
          "name": "",
          "type": "address"
        }
      ],
      "stateMutability": "view",
      "type": "function"
    },
    {
      "inputs": [
        {
          "internalType": "address",
          "name": "toRemove",
          "type": "address"
        }
      ],
      "name": "removeAuthorized",
      "outputs": [],
      "stateMutability": "nonpayable",
      "type": "function"
    },
    {
      "inputs": [],
      "name": "renounceOwnership",
      "outputs": [],
      "stateMutability": "nonpayable",
      "type": "function"
    },
    {
      "inputs": [
        {
          "internalType": "address",
          "name": "from",
          "type": "address"
        },
        {
          "internalType": "address",
          "name": "to",
          "type": "address"
        },
        {
          "internalType": "uint256",
          "name": "tokenId",
          "type": "uint256"
        }
      ],
      "name": "safeTransferFrom",
      "outputs": [],
      "stateMutability": "nonpayable",
      "type": "function"
    },
    {
      "inputs": [
        {
          "internalType": "address",
          "name": "from",
          "type": "address"
        },
        {
          "internalType": "address",
          "name": "to",
          "type": "address"
        },
        {
          "internalType": "uint256",
          "name": "tokenId",
          "type": "uint256"
        },
        {
          "internalType": "bytes",
          "name": "_data",
          "type": "bytes"
        }
      ],
      "name": "safeTransferFrom",
      "outputs": [],
      "stateMutability": "nonpayable",
      "type": "function"
    },
    {
      "inputs": [
        {
          "internalType": "address",
          "name": "operator",
          "type": "address"
        },
        {
          "internalType": "bool",
          "name": "approved",
          "type": "bool"
        }
      ],
      "name": "setApprovalForAll",
      "outputs": [],
      "stateMutability": "nonpayable",
      "type": "function"
    },
    {
      "inputs": [
        {
          "internalType": "bytes4",
          "name": "interfaceId",
          "type": "bytes4"
        }
      ],
      "name": "supportsInterface",
      "outputs": [
        {
          "internalType": "bool",
          "name": "",
          "type": "bool"
        }
      ],
      "stateMutability": "view",
      "type": "function"
    },
    {
      "inputs": [],
      "name": "symbol",
      "outputs": [
        {
          "internalType": "string",
          "name": "",
          "type": "string"
        }
      ],
      "stateMutability": "view",
      "type": "function"
    },
    {
      "inputs": [],
      "name": "tokenIds",
      "outputs": [
        {
          "internalType": "uint256",
          "name": "_value",
          "type": "uint256"
        }
      ],
      "stateMutability": "view",
      "type": "function"
    },
    {
      "inputs": [
        {
          "internalType": "uint256",
          "name": "tokenId",
          "type": "uint256"
        }
      ],
      "name": "tokenURI",
      "outputs": [
        {
          "internalType": "string",
          "name": "",
          "type": "string"
        }
      ],
      "stateMutability": "view",
      "type": "function"
    },
    {
      "inputs": [
        {
          "internalType": "address",
          "name": "from",
          "type": "address"
        },
        {
          "internalType": "address",
          "name": "to",
          "type": "address"
        },
        {
          "internalType": "uint256",
          "name": "tokenId",
          "type": "uint256"
        }
      ],
      "name": "transferFrom",
      "outputs": [],
      "stateMutability": "nonpayable",
      "type": "function"
    },
    {
      "inputs": [
        {
          "internalType": "address",
          "name": "newOwner",
          "type": "address"
        }
      ],
      "name": "transferOwnership",
      "outputs": [],
      "stateMutability": "nonpayable",
      "type": "function"
    },
    {
      "inputs": [
        {
          "internalType": "uint256",
          "name": "_tokenId",
          "type": "uint256"
        }
      ],
      "name": "typeOfItem",
      "outputs": [
        {
          "internalType": "uint16",
          "name": "",
          "type": "uint16"
        }
      ],
      "stateMutability": "view",
      "type": "function"
    },
    {
      "inputs": [
        {
          "internalType": "uint256",
          "name": "_type",
          "type": "uint256"
        }
      ],
      "name": "validateType",
      "outputs": [
        {
          "internalType": "bool",
          "name": "",
          "type": "bool"
        }
      ],
      "stateMutability": "pure",
      "type": "function"
    }
  ],
  "transactionHash": "0xf6867a7c7fcae410040e828e050b0f3c6df6456c8486e9c0ef498e2968bebdb9",
  "args": [
    "https://raw.githubusercontent.com/snowwhitedev/dragon-assets/master/equipments/"
  ],
  "solcInputHash": "e88d7966fa21b1a4dfbac904259f51ae",
  "bytecode": "0x60806040526001600960006101000a81548160ff021916908360ff1602179055506002600960016101000a81548160ff021916908360ff1602179055506003600960026101000a81548160ff021916908360ff1602179055506004600960036101000a81548160ff021916908360ff1602179055506005600960046101000a81548160ff021916908360ff1602179055506006600960056101000a81548160ff021916908360ff1602179055506007600960066101000a81548160ff021916908360ff1602179055506008600960076101000a81548160ff021916908360ff16021790555060098060086101000a81548160ff021916908360ff160217905550600a6009806101000a81548160ff021916908360ff160217905550600b6009600a6101000a81548160ff021916908360ff160217905550600c6009600b6101000a81548160ff021916908360ff160217905550600d6009600c6101000a81548160ff021916908360ff160217905550600e6009600d6101000a81548160ff021916908360ff160217905550600f6009600e6101000a81548160ff021916908360ff16021790555060106009600f6101000a81548160ff021916908360ff160217905550348015620001cf57600080fd5b50604051620027bf380380620027bf833981016040819052620001f2916200039a565b604080518082018252601081526f111c9859dbdb88115c5d5a5c1b595b9d60821b6020808301918252835180850190945260078452660444345515549560cc1b9084015281519192916200024991600091620002f4565b5080516200025f906001906020840190620002f4565b5050506200027c620002766200029e60201b60201c565b620002a2565b600160085580516200029690600b906020840190620002f4565b5050620004bc565b3390565b600680546001600160a01b038381166001600160a01b0319831681179093556040519116919082907f8be0079c531659141344cd1fd0a4f28419497f9722a3daafe3b4186f6b6457e090600090a35050565b828054620003029062000469565b90600052602060002090601f01602090048101928262000326576000855562000371565b82601f106200034157805160ff191683800117855562000371565b8280016001018555821562000371579182015b828111156200037157825182559160200191906001019062000354565b506200037f92915062000383565b5090565b5b808211156200037f576000815560010162000384565b60006020808385031215620003ad578182fd5b82516001600160401b0380821115620003c4578384fd5b818501915085601f830112620003d8578384fd5b815181811115620003ed57620003ed620004a6565b604051601f8201601f1916810185018381118282101715620004135762000413620004a6565b60405281815283820185018810156200042a578586fd5b8592505b818310156200044d57838301850151818401860152918401916200042e565b818311156200045e57858583830101525b979650505050505050565b6002810460018216806200047e57607f821691505b60208210811415620004a057634e487b7160e01b600052602260045260246000fd5b50919050565b634e487b7160e01b600052604160045260246000fd5b6122f380620004cc6000396000f3fe608060405234801561001057600080fd5b50600436106102635760003560e01c80637c1fadec11610156578063b58921f8116100d3578063cf1c316a11610097578063f2fde38b11610071578063f2fde38b146104ca578063f3fc7b24146104dd578063fa80555f146104f057610263565b8063cf1c316a1461049c578063e985e9c5146104af578063ebc8a182146104c257610263565b8063b58921f814610435578063b88d4fde1461045b578063b91816111461046e578063c365088a14610481578063c87b56dd1461048957610263565b8063962b5dab1161011a578063962b5dab146103ea57806396b089ff146103f25780639c4d7ad8146103fa578063a22cb4651461041a578063b46886da1461042d57610263565b80637c1fadec146103ac578063824ef146146103bf5780638da5cb5b146103d257806395d89b41146103da5780639614a1ef146103e257610263565b80634498e6f1116101e457806361e095b1116101a857806361e095b1146103615780636352211e1461036957806370a082311461037c578063714cff561461039c578063715018a6146103a457610263565b80634498e6f11461032e578063485d7d94146103365780634c3decd11461034957806354b9e50e146103515780635a4cd56b1461035957610263565b80630e9842561161022b5780630e984256146102f057806316828305146102f857806323b872dd1461030057806327512c651461031357806342842e0e1461031b57610263565b806301ffc9a71461026857806306fdde0314610291578063081812fc146102a6578063095ea7b3146102c657806309a8b060146102db575b600080fd5b61027b610276366004611a59565b6104f8565b6040516102889190611c0d565b60405180910390f35b610299610540565b6040516102889190611c18565b6102b96102b4366004611a91565b6105d2565b6040516102889190611b33565b6102d96102d4366004611a30565b61061e565b005b6102e36106b6565b604051610288919061217e565b6102e36106ca565b6102e36106e2565b6102d961030e366004611851565b6106eb565b6102e3610723565b6102d9610329366004611851565b610731565b6102e361074c565b6102d9610344366004611805565b610765565b6102e36107db565b6102e36107f5565b6102e3610807565b6102e361081d565b6102b9610377366004611a91565b61082d565b61038f61038a366004611805565b610862565b6040516102889190612133565b61038f6108a6565b6102d96108ac565b61027b6103ba366004611a91565b6108f7565b61038f6103cd366004611992565b61091b565b6102b9610c37565b610299610c46565b6102e3610c55565b6102e3610c68565b6102e3610c84565b61040d610408366004611a91565b610c93565b6040516102889190612124565b6102d9610428366004611958565b610ca9565b6102e3610d77565b610448610443366004611a91565b610d88565b604051610288979695949392919061213c565b6102d961046936600461188c565b610de2565b61027b61047c366004611805565b610e21565b6102e3610e36565b610299610497366004611a91565b610e4d565b6102d96104aa366004611805565b610ed0565b61027b6104bd36600461181f565b610f33565b6102e3610f61565b6102d96104d8366004611805565b610f76565b61027b6104eb366004611aa9565b610fe7565b6102e36110e6565b60006001600160e01b031982166380ac58cd60e01b148061052957506001600160e01b03198216635b5e139f60e01b145b80610538575061053882611101565b90505b919050565b60606000805461054f906121fb565b80601f016020809104026020016040519081016040528092919081815260200182805461057b906121fb565b80156105c85780601f1061059d576101008083540402835291602001916105c8565b820191906000526020600020905b8154815290600101906020018083116105ab57829003601f168201915b5050505050905090565b60006105dd8261111a565b6106025760405162461bcd60e51b81526004016105f990611ef1565b60405180910390fd5b506000908152600460205260409020546001600160a01b031690565b60006106298261082d565b9050806001600160a01b0316836001600160a01b0316141561065d5760405162461bcd60e51b81526004016105f99061204f565b806001600160a01b031661066f611137565b6001600160a01b0316148061068b575061068b816104bd611137565b6106a75760405162461bcd60e51b81526004016105f990611dcc565b6106b1838361113b565b505050565b600954670100000000000000900460ff1681565b6009546b010000000000000000000000900460ff1681565b60095460ff1681565b6106fc6106f6611137565b826111a9565b6107185760405162461bcd60e51b81526004016105f990612090565b6106b183838361122e565b600954610100900460ff1681565b6106b183838360405180602001604052806000815250610de2565b6009546c01000000000000000000000000900460ff1681565b61076d611137565b6001600160a01b031661077e610c37565b6001600160a01b0316146107a45760405162461bcd60e51b81526004016105f990611f74565b6001600160a01b0381163314156107ba57600080fd5b6001600160a01b03166000908152600760205260409020805460ff19169055565b6009546d0100000000000000000000000000900460ff1681565b60095465010000000000900460ff1681565b6009546901000000000000000000900460ff1681565b6009546301000000900460ff1681565b6000818152600260205260408120546001600160a01b0316806105385760405162461bcd60e51b81526004016105f990611e73565b60006001600160a01b03821661088a5760405162461bcd60e51b81526004016105f990611e29565b506001600160a01b031660009081526003602052604090205490565b600a5481565b6108b4611137565b6001600160a01b03166108c5610c37565b6001600160a01b0316146108eb5760405162461bcd60e51b81526004016105f990611f74565b6108f5600061135b565b565b60008115806109065750601082115b156109135750600061053b565b506001919050565b3360009081526007602052604081205460ff168061094857503361093d610c37565b6001600160a01b0316145b61095157600080fd5b600260085414156109745760405162461bcd60e51b81526004016105f9906120ed565b600260085561098661ffff89166108f7565b6109a25760405162461bcd60e51b81526004016105f990611f3d565b6109ac600a6113ad565b60006109b8600a6113b6565b90506109c48a826113ba565b88600c600083815260200190815260200160002060006101000a81548161ffff021916908361ffff1602179055506040518060e001604052808967ffffffffffffffff1681526020018867ffffffffffffffff1681526020018767ffffffffffffffff1681526020018767ffffffffffffffff1681526020018667ffffffffffffffff1681526020018567ffffffffffffffff1681526020018467ffffffffffffffff16815250600d600083815260200190815260200160002060008201518160000160006101000a81548167ffffffffffffffff021916908367ffffffffffffffff16021790555060208201518160000160086101000a81548167ffffffffffffffff021916908367ffffffffffffffff16021790555060408201518160000160106101000a81548167ffffffffffffffff021916908367ffffffffffffffff16021790555060608201518160000160186101000a81548167ffffffffffffffff021916908367ffffffffffffffff16021790555060808201518160010160006101000a81548167ffffffffffffffff021916908367ffffffffffffffff16021790555060a08201518160010160086101000a81548167ffffffffffffffff021916908367ffffffffffffffff16021790555060c08201518160010160106101000a81548167ffffffffffffffff021916908367ffffffffffffffff160217905550905050808961ffff16336001600160a01b03167ff3a8257be9be64cd32234ad0e686d138ecd36da532b9ba4b1e78e5a3a7edd9dd8d600d6000878152602001908152602001600020604051610c1d929190611b83565b60405180910390a460016008559998505050505050505050565b6006546001600160a01b031690565b60606001805461054f906121fb565b6009546601000000000000900460ff1681565b6009546f01000000000000000000000000000000900460ff1681565b60095462010000900460ff1681565b6000908152600c602052604090205461ffff1690565b610cb1611137565b6001600160a01b0316826001600160a01b03161415610ce25760405162461bcd60e51b81526004016105f990611d49565b8060056000610cef611137565b6001600160a01b03908116825260208083019390935260409182016000908120918716808252919093529120805460ff191692151592909217909155610d33611137565b6001600160a01b03167f17307eab39ab6107e8899845ad3d59bd9653f200f220920489ca2b5937696c3183604051610d6b9190611c0d565b60405180910390a35050565b600954640100000000900460ff1681565b600d602052600090815260409020805460019091015467ffffffffffffffff8083169268010000000000000000808204831693600160801b808404851694600160c01b909404841693828116938304811692919091041687565b610df3610ded611137565b836111a9565b610e0f5760405162461bcd60e51b81526004016105f990612090565b610e1b84848484611499565b50505050565b60076020526000908152604090205460ff1681565b6009546a0100000000000000000000900460ff1681565b6060610e588261111a565b610e745760405162461bcd60e51b81526004016105f990611ff2565b6000610e7e6114cc565b90506000815111610e9e5760405180602001604052806000815250610ec9565b80610ea8846114db565b604051602001610eb9929190611b04565b6040516020818303038152906040525b9392505050565b610ed8611137565b6001600160a01b0316610ee9610c37565b6001600160a01b031614610f0f5760405162461bcd60e51b81526004016105f990611f74565b6001600160a01b03166000908152600760205260409020805460ff19166001179055565b6001600160a01b03918216600090815260056020908152604080832093909416825291909152205460ff1690565b60095468010000000000000000900460ff1681565b610f7e611137565b6001600160a01b0316610f8f610c37565b6001600160a01b031614610fb55760405162461bcd60e51b81526004016105f990611f74565b6001600160a01b038116610fdb5760405162461bcd60e51b81526004016105f990611c88565b610fe48161135b565b50565b3360009081526007602052604081205460ff1680611014575033611009610c37565b6001600160a01b0316145b61101d57600080fd5b600260085414156110405760405162461bcd60e51b81526004016105f9906120ed565b60026008556000838152600d6020526040902054600160801b900467ffffffffffffffff1682811161107f576110758461160e565b60019150506110db565b61108983826121b8565b6000858152600d60205260408120805467ffffffffffffffff93909316600160801b027fffffffffffffffff0000000000000000ffffffffffffffffffffffffffffffff909316929092179091559150505b600160085592915050565b6009546e010000000000000000000000000000900460ff1681565b6001600160e01b031981166301ffc9a760e01b14919050565b6000908152600260205260409020546001600160a01b0316151590565b3390565b600081815260046020526040902080546001600160a01b0319166001600160a01b03841690811790915581906111708261082d565b6001600160a01b03167f8c5be1e5ebec7d5bd14f71427d1e84f3dd0314c0f7b2291e5b200ac8c7c3b92560405160405180910390a45050565b60006111b48261111a565b6111d05760405162461bcd60e51b81526004016105f990611d80565b60006111db8361082d565b9050806001600160a01b0316846001600160a01b031614806112165750836001600160a01b031661120b846105d2565b6001600160a01b0316145b8061122657506112268185610f33565b949350505050565b826001600160a01b03166112418261082d565b6001600160a01b0316146112675760405162461bcd60e51b81526004016105f990611fa9565b6001600160a01b03821661128d5760405162461bcd60e51b81526004016105f990611d05565b6112988383836106b1565b6112a360008261113b565b6001600160a01b03831660009081526003602052604081208054600192906112cc9084906121b8565b90915550506001600160a01b03821660009081526003602052604081208054600192906112fa90849061218c565b909155505060008181526002602052604080822080546001600160a01b0319166001600160a01b0386811691821790925591518493918716917fddf252ad1be2c89b69c2b068fc378daa952ba7f163c4a11628f55a4df523b3ef91a4505050565b600680546001600160a01b038381166001600160a01b0319831681179093556040519116919082907f8be0079c531659141344cd1fd0a4f28419497f9722a3daafe3b4186f6b6457e090600090a35050565b80546001019055565b5490565b6001600160a01b0382166113e05760405162461bcd60e51b81526004016105f990611ebc565b6113e98161111a565b156114065760405162461bcd60e51b81526004016105f990611cce565b611412600083836106b1565b6001600160a01b038216600090815260036020526040812080546001929061143b90849061218c565b909155505060008181526002602052604080822080546001600160a01b0319166001600160a01b03861690811790915590518392907fddf252ad1be2c89b69c2b068fc378daa952ba7f163c4a11628f55a4df523b3ef908290a45050565b6114a484848461122e565b6114b0848484846116b5565b610e1b5760405162461bcd60e51b81526004016105f990611c2b565b6060600b805461054f906121fb565b60608161150057506040805180820190915260018152600360fc1b602082015261053b565b8160005b811561152a578061151481612236565b91506115239050600a836121a4565b9150611504565b60008167ffffffffffffffff81111561155357634e487b7160e01b600052604160045260246000fd5b6040519080825280601f01601f19166020018201604052801561157d576020820181803683370190505b5090505b8415611226576115926001836121b8565b915061159f600a86612251565b6115aa90603061218c565b60f81b8183815181106115cd57634e487b7160e01b600052603260045260246000fd5b60200101907effffffffffffffffffffffffffffffffffffffffffffffffffffffffffffff1916908160001a905350611607600a866121a4565b9450611581565b60006116198261082d565b9050611627816000846106b1565b61163260008361113b565b6001600160a01b038116600090815260036020526040812080546001929061165b9084906121b8565b909155505060008281526002602052604080822080546001600160a01b0319169055518391906001600160a01b038416907fddf252ad1be2c89b69c2b068fc378daa952ba7f163c4a11628f55a4df523b3ef908390a45050565b60006116c9846001600160a01b03166117d0565b156117c557836001600160a01b031663150b7a026116e5611137565b8786866040518563ffffffff1660e01b81526004016117079493929190611b47565b602060405180830381600087803b15801561172157600080fd5b505af1925050508015611751575060408051601f3d908101601f1916820190925261174e91810190611a75565b60015b6117ab573d80801561177f576040519150601f19603f3d011682016040523d82523d6000602084013e611784565b606091505b5080516117a35760405162461bcd60e51b81526004016105f990611c2b565b805181602001fd5b6001600160e01b031916630a85bd0160e11b149050611226565b506001949350505050565b3b151590565b80356001600160a01b038116811461053b57600080fd5b803567ffffffffffffffff8116811461053b57600080fd5b600060208284031215611816578081fd5b610ec9826117d6565b60008060408385031215611831578081fd5b61183a836117d6565b9150611848602084016117d6565b90509250929050565b600080600060608486031215611865578081fd5b61186e846117d6565b925061187c602085016117d6565b9150604084013590509250925092565b600080600080608085870312156118a1578081fd5b6118aa856117d6565b935060206118b98187016117d6565b935060408601359250606086013567ffffffffffffffff808211156118dc578384fd5b818801915088601f8301126118ef578384fd5b81358181111561190157611901612291565b604051601f8201601f191681018501838111828210171561192457611924612291565b60405281815283820185018b101561193a578586fd5b81858501868301379081019093019390935250939692955090935050565b6000806040838503121561196a578182fd5b611973836117d6565b915060208301358015158114611987578182fd5b809150509250929050565b600080600080600080600080610100898b0312156119ae578384fd5b6119b7896117d6565b9750602089013561ffff811681146119cd578485fd5b96506119db60408a016117ed565b95506119e960608a016117ed565b94506119f760808a016117ed565b9350611a0560a08a016117ed565b9250611a1360c08a016117ed565b9150611a2160e08a016117ed565b90509295985092959890939650565b60008060408385031215611a42578182fd5b611a4b836117d6565b946020939093013593505050565b600060208284031215611a6a578081fd5b8135610ec9816122a7565b600060208284031215611a86578081fd5b8151610ec9816122a7565b600060208284031215611aa2578081fd5b5035919050565b60008060408385031215611abb578182fd5b50508035926020909101359150565b60008151808452611ae28160208601602086016121cf565b601f01601f19169290920160200192915050565b67ffffffffffffffff169052565b60008351611b168184602088016121cf565b835190830190611b2a8183602088016121cf565b01949350505050565b6001600160a01b0391909116815260200190565b60006001600160a01b03808716835280861660208401525083604083015260806060830152611b796080830184611aca565b9695505050505050565b6000610100820190506001600160a01b0384168252825467ffffffffffffffff8082166020850152808260401c166040850152808260801c1660608501528160c01c608085015260018501549150611be060a08501828416611af6565b611bf260c08501828460401c16611af6565b611c0460e08501828460801c16611af6565b50509392505050565b901515815260200190565b600060208252610ec96020830184611aca565b60208082526032908201527f4552433732313a207472616e7366657220746f206e6f6e20455243373231526560408201527f63656976657220696d706c656d656e7465720000000000000000000000000000606082015260800190565b60208082526026908201527f4f776e61626c653a206e6577206f776e657220697320746865207a65726f206160408201526564647265737360d01b606082015260800190565b6020808252601c908201527f4552433732313a20746f6b656e20616c7265616479206d696e74656400000000604082015260600190565b60208082526024908201527f4552433732313a207472616e7366657220746f20746865207a65726f206164646040820152637265737360e01b606082015260800190565b60208082526019908201527f4552433732313a20617070726f766520746f2063616c6c657200000000000000604082015260600190565b6020808252602c908201527f4552433732313a206f70657261746f7220717565727920666f72206e6f6e657860408201526b34b9ba32b73a103a37b5b2b760a11b606082015260800190565b60208082526038908201527f4552433732313a20617070726f76652063616c6c6572206973206e6f74206f7760408201527f6e6572206e6f7220617070726f76656420666f7220616c6c0000000000000000606082015260800190565b6020808252602a908201527f4552433732313a2062616c616e636520717565727920666f7220746865207a65604082015269726f206164647265737360b01b606082015260800190565b60208082526029908201527f4552433732313a206f776e657220717565727920666f72206e6f6e657869737460408201526832b73a103a37b5b2b760b91b606082015260800190565b6020808252818101527f4552433732313a206d696e7420746f20746865207a65726f2061646472657373604082015260600190565b6020808252602c908201527f4552433732313a20617070726f76656420717565727920666f72206e6f6e657860408201526b34b9ba32b73a103a37b5b2b760a11b606082015260800190565b6020808252601e908201527f447261676f6e3a20496e76616c69642065717569706d656e7420747970650000604082015260600190565b6020808252818101527f4f776e61626c653a2063616c6c6572206973206e6f7420746865206f776e6572604082015260600190565b60208082526029908201527f4552433732313a207472616e73666572206f6620746f6b656e2074686174206960408201526839903737ba1037bbb760b91b606082015260800190565b6020808252602f908201527f4552433732314d657461646174613a2055524920717565727920666f72206e6f60408201527f6e6578697374656e7420746f6b656e0000000000000000000000000000000000606082015260800190565b60208082526021908201527f4552433732313a20617070726f76616c20746f2063757272656e74206f776e656040820152603960f91b606082015260800190565b60208082526031908201527f4552433732313a207472616e736665722063616c6c6572206973206e6f74206f60408201527f776e6572206e6f7220617070726f766564000000000000000000000000000000606082015260800190565b6020808252601f908201527f5265656e7472616e637947756172643a207265656e7472616e742063616c6c00604082015260600190565b61ffff91909116815260200190565b90815260200190565b67ffffffffffffffff978816815295871660208701529386166040860152918516606085015284166080840152831660a083015290911660c082015260e00190565b60ff91909116815260200190565b6000821982111561219f5761219f612265565b500190565b6000826121b3576121b361227b565b500490565b6000828210156121ca576121ca612265565b500390565b60005b838110156121ea5781810151838201526020016121d2565b83811115610e1b5750506000910152565b60028104600182168061220f57607f821691505b6020821081141561223057634e487b7160e01b600052602260045260246000fd5b50919050565b600060001982141561224a5761224a612265565b5060010190565b6000826122605761226061227b565b500690565b634e487b7160e01b600052601160045260246000fd5b634e487b7160e01b600052601260045260246000fd5b634e487b7160e01b600052604160045260246000fd5b6001600160e01b031981168114610fe457600080fdfea2646970667358221220a1ff20c40c660fc55b0b518dfbccfc9bea606f850abf59603fc8de07731344d064736f6c63430008000033",
  "devdoc": {
    "kind": "dev",
    "methods": {
      "approve(address,uint256)": {
        "details": "See {IERC721-approve}."
      },
      "balanceOf(address)": {
        "details": "See {IERC721-balanceOf}."
      },
      "constructor": {
        "details": "constructor param uriUrl should be ennded with '/'"
      },
      "getApproved(uint256)": {
        "details": "See {IERC721-getApproved}."
      },
      "isApprovedForAll(address,address)": {
        "details": "See {IERC721-isApprovedForAll}."
      },
      "name()": {
        "details": "See {IERC721Metadata-name}."
      },
      "owner()": {
        "details": "Returns the address of the current owner."
      },
      "ownerOf(uint256)": {
        "details": "See {IERC721-ownerOf}."
      },
      "renounceOwnership()": {
        "details": "Leaves the contract without owner. It will not be possible to call `onlyOwner` functions anymore. Can only be called by the current owner. NOTE: Renouncing ownership will leave the contract without an owner, thereby removing any functionality that is only available to the owner."
      },
      "safeTransferFrom(address,address,uint256)": {
        "details": "See {IERC721-safeTransferFrom}."
      },
      "safeTransferFrom(address,address,uint256,bytes)": {
        "details": "See {IERC721-safeTransferFrom}."
      },
      "setApprovalForAll(address,bool)": {
        "details": "See {IERC721-setApprovalForAll}."
      },
      "supportsInterface(bytes4)": {
        "details": "See {IERC165-supportsInterface}."
      },
      "symbol()": {
        "details": "See {IERC721Metadata-symbol}."
      },
      "tokenURI(uint256)": {
        "details": "See {IERC721Metadata-tokenURI}."
      },
      "transferFrom(address,address,uint256)": {
        "details": "See {IERC721-transferFrom}."
      },
      "transferOwnership(address)": {
        "details": "Transfers ownership of the contract to a new account (`newOwner`). Can only be called by the current owner."
      }
    },
    "version": 1
  },
  "userdoc": {
    "kind": "user",
    "methods": {},
    "version": 1
  },
  "storageLayout": {
    "storage": [
      {
        "astId": 2478,
        "contract": "contracts/dragon/DragonEquipment.sol:DragonEquipment",
        "label": "_name",
        "offset": 0,
        "slot": "0",
        "type": "t_string_storage"
      },
      {
        "astId": 2480,
        "contract": "contracts/dragon/DragonEquipment.sol:DragonEquipment",
        "label": "_symbol",
        "offset": 0,
        "slot": "1",
        "type": "t_string_storage"
      },
      {
        "astId": 2484,
        "contract": "contracts/dragon/DragonEquipment.sol:DragonEquipment",
        "label": "_owners",
        "offset": 0,
        "slot": "2",
        "type": "t_mapping(t_uint256,t_address)"
      },
      {
        "astId": 2488,
        "contract": "contracts/dragon/DragonEquipment.sol:DragonEquipment",
        "label": "_balances",
        "offset": 0,
        "slot": "3",
        "type": "t_mapping(t_address,t_uint256)"
      },
      {
        "astId": 2492,
        "contract": "contracts/dragon/DragonEquipment.sol:DragonEquipment",
        "label": "_tokenApprovals",
        "offset": 0,
        "slot": "4",
        "type": "t_mapping(t_uint256,t_address)"
      },
      {
        "astId": 2498,
        "contract": "contracts/dragon/DragonEquipment.sol:DragonEquipment",
        "label": "_operatorApprovals",
        "offset": 0,
        "slot": "5",
        "type": "t_mapping(t_address,t_mapping(t_address,t_bool))"
      },
      {
        "astId": 7,
        "contract": "contracts/dragon/DragonEquipment.sol:DragonEquipment",
        "label": "_owner",
        "offset": 0,
        "slot": "6",
        "type": "t_address"
      },
      {
        "astId": 11699,
        "contract": "contracts/dragon/DragonEquipment.sol:DragonEquipment",
        "label": "authorized",
        "offset": 0,
        "slot": "7",
        "type": "t_mapping(t_address,t_bool)"
      },
      {
        "astId": 206,
        "contract": "contracts/dragon/DragonEquipment.sol:DragonEquipment",
        "label": "_status",
        "offset": 0,
        "slot": "8",
        "type": "t_uint256"
      },
      {
        "astId": 9156,
        "contract": "contracts/dragon/DragonEquipment.sol:DragonEquipment",
        "label": "EQUIPMENT_BODY",
        "offset": 0,
        "slot": "9",
        "type": "t_uint8"
      },
      {
        "astId": 9160,
        "contract": "contracts/dragon/DragonEquipment.sol:DragonEquipment",
        "label": "EQUIPMENT_FIRST_HAND",
        "offset": 1,
        "slot": "9",
        "type": "t_uint8"
      },
      {
        "astId": 9164,
        "contract": "contracts/dragon/DragonEquipment.sol:DragonEquipment",
        "label": "EQUIPMENT_SECOND_HAND",
        "offset": 2,
        "slot": "9",
        "type": "t_uint8"
      },
      {
        "astId": 9168,
        "contract": "contracts/dragon/DragonEquipment.sol:DragonEquipment",
        "label": "EQUIPMENT_TWO_HANDS",
        "offset": 3,
        "slot": "9",
        "type": "t_uint8"
      },
      {
        "astId": 9172,
        "contract": "contracts/dragon/DragonEquipment.sol:DragonEquipment",
        "label": "EQUIPMENT_LEFT_RING",
        "offset": 4,
        "slot": "9",
        "type": "t_uint8"
      },
      {
        "astId": 9176,
        "contract": "contracts/dragon/DragonEquipment.sol:DragonEquipment",
        "label": "EQUIPMENT_RIGHT_RING",
        "offset": 5,
        "slot": "9",
        "type": "t_uint8"
      },
      {
        "astId": 9180,
        "contract": "contracts/dragon/DragonEquipment.sol:DragonEquipment",
        "label": "EQUIPMENT_HEAD",
        "offset": 6,
        "slot": "9",
        "type": "t_uint8"
      },
      {
        "astId": 9184,
        "contract": "contracts/dragon/DragonEquipment.sol:DragonEquipment",
        "label": "EQUIPMENT_NECK",
        "offset": 7,
        "slot": "9",
        "type": "t_uint8"
      },
      {
        "astId": 9188,
        "contract": "contracts/dragon/DragonEquipment.sol:DragonEquipment",
        "label": "EQUIPMENT_BACK",
        "offset": 8,
        "slot": "9",
        "type": "t_uint8"
      },
      {
        "astId": 9192,
        "contract": "contracts/dragon/DragonEquipment.sol:DragonEquipment",
        "label": "EQUIPMENT_SHOULDERS",
        "offset": 9,
        "slot": "9",
        "type": "t_uint8"
      },
      {
        "astId": 9196,
        "contract": "contracts/dragon/DragonEquipment.sol:DragonEquipment",
        "label": "EQUIPMENT_ARMS",
        "offset": 10,
        "slot": "9",
        "type": "t_uint8"
      },
      {
        "astId": 9200,
        "contract": "contracts/dragon/DragonEquipment.sol:DragonEquipment",
        "label": "EQUIPMENT_GLOVES",
        "offset": 11,
        "slot": "9",
        "type": "t_uint8"
      },
      {
        "astId": 9204,
        "contract": "contracts/dragon/DragonEquipment.sol:DragonEquipment",
        "label": "EQUIPMENT_LEGS",
        "offset": 12,
        "slot": "9",
        "type": "t_uint8"
      },
      {
        "astId": 9208,
        "contract": "contracts/dragon/DragonEquipment.sol:DragonEquipment",
        "label": "EQUIPMENT_FEET",
        "offset": 13,
        "slot": "9",
        "type": "t_uint8"
      },
      {
        "astId": 9212,
        "contract": "contracts/dragon/DragonEquipment.sol:DragonEquipment",
        "label": "EQUIPMENT_WAIST",
        "offset": 14,
        "slot": "9",
        "type": "t_uint8"
      },
      {
        "astId": 9216,
        "contract": "contracts/dragon/DragonEquipment.sol:DragonEquipment",
        "label": "EQUIPMENT_UTILITY",
        "offset": 15,
        "slot": "9",
        "type": "t_uint8"
      },
      {
        "astId": 8920,
        "contract": "contracts/dragon/DragonEquipment.sol:DragonEquipment",
        "label": "tokenIds",
        "offset": 0,
        "slot": "10",
        "type": "t_struct(Counter)3909_storage"
      },
      {
        "astId": 8922,
        "contract": "contracts/dragon/DragonEquipment.sol:DragonEquipment",
        "label": "_uriUrl",
        "offset": 0,
        "slot": "11",
        "type": "t_string_storage"
      },
      {
        "astId": 8926,
        "contract": "contracts/dragon/DragonEquipment.sol:DragonEquipment",
        "label": "_itemType",
        "offset": 0,
        "slot": "12",
        "type": "t_mapping(t_uint256,t_uint16)"
      },
      {
        "astId": 8931,
        "contract": "contracts/dragon/DragonEquipment.sol:DragonEquipment",
        "label": "equipmentStats",
        "offset": 0,
        "slot": "13",
        "type": "t_mapping(t_uint256,t_struct(EquipmentStats)8946_storage)"
      }
    ],
    "types": {
      "t_address": {
        "encoding": "inplace",
        "label": "address",
        "numberOfBytes": "20"
      },
      "t_bool": {
        "encoding": "inplace",
        "label": "bool",
        "numberOfBytes": "1"
      },
      "t_mapping(t_address,t_bool)": {
        "encoding": "mapping",
        "key": "t_address",
        "label": "mapping(address => bool)",
        "numberOfBytes": "32",
        "value": "t_bool"
      },
      "t_mapping(t_address,t_mapping(t_address,t_bool))": {
        "encoding": "mapping",
        "key": "t_address",
        "label": "mapping(address => mapping(address => bool))",
        "numberOfBytes": "32",
        "value": "t_mapping(t_address,t_bool)"
      },
      "t_mapping(t_address,t_uint256)": {
        "encoding": "mapping",
        "key": "t_address",
        "label": "mapping(address => uint256)",
        "numberOfBytes": "32",
        "value": "t_uint256"
      },
      "t_mapping(t_uint256,t_address)": {
        "encoding": "mapping",
        "key": "t_uint256",
        "label": "mapping(uint256 => address)",
        "numberOfBytes": "32",
        "value": "t_address"
      },
      "t_mapping(t_uint256,t_struct(EquipmentStats)8946_storage)": {
        "encoding": "mapping",
        "key": "t_uint256",
        "label": "mapping(uint256 => struct DragonEquipment.EquipmentStats)",
        "numberOfBytes": "32",
        "value": "t_struct(EquipmentStats)8946_storage"
      },
      "t_mapping(t_uint256,t_uint16)": {
        "encoding": "mapping",
        "key": "t_uint256",
        "label": "mapping(uint256 => uint16)",
        "numberOfBytes": "32",
        "value": "t_uint16"
      },
      "t_string_storage": {
        "encoding": "bytes",
        "label": "string",
        "numberOfBytes": "32"
      },
      "t_struct(Counter)3909_storage": {
        "encoding": "inplace",
        "label": "struct Counters.Counter",
        "members": [
          {
            "astId": 3908,
            "contract": "contracts/dragon/DragonEquipment.sol:DragonEquipment",
            "label": "_value",
            "offset": 0,
            "slot": "0",
            "type": "t_uint256"
          }
        ],
        "numberOfBytes": "32"
      },
      "t_struct(EquipmentStats)8946_storage": {
        "encoding": "inplace",
        "label": "struct DragonEquipment.EquipmentStats",
        "members": [
          {
            "astId": 8933,
            "contract": "contracts/dragon/DragonEquipment.sol:DragonEquipment",
            "label": "damage",
            "offset": 0,
            "slot": "0",
            "type": "t_uint64"
          },
          {
            "astId": 8935,
            "contract": "contracts/dragon/DragonEquipment.sol:DragonEquipment",
            "label": "defense",
            "offset": 8,
            "slot": "0",
            "type": "t_uint64"
          },
          {
            "astId": 8937,
            "contract": "contracts/dragon/DragonEquipment.sol:DragonEquipment",
            "label": "currentDurability",
            "offset": 16,
            "slot": "0",
            "type": "t_uint64"
          },
          {
            "astId": 8939,
            "contract": "contracts/dragon/DragonEquipment.sol:DragonEquipment",
            "label": "maxDurability",
            "offset": 24,
            "slot": "0",
            "type": "t_uint64"
          },
          {
            "astId": 8941,
            "contract": "contracts/dragon/DragonEquipment.sol:DragonEquipment",
            "label": "speed",
            "offset": 0,
            "slot": "1",
            "type": "t_uint64"
          },
          {
            "astId": 8943,
            "contract": "contracts/dragon/DragonEquipment.sol:DragonEquipment",
            "label": "endurance",
            "offset": 8,
            "slot": "1",
            "type": "t_uint64"
          },
          {
            "astId": 8945,
            "contract": "contracts/dragon/DragonEquipment.sol:DragonEquipment",
            "label": "luck",
            "offset": 16,
            "slot": "1",
            "type": "t_uint64"
          }
        ],
        "numberOfBytes": "64"
      },
      "t_uint16": {
        "encoding": "inplace",
        "label": "uint16",
        "numberOfBytes": "2"
      },
      "t_uint256": {
        "encoding": "inplace",
        "label": "uint256",
        "numberOfBytes": "32"
      },
      "t_uint64": {
        "encoding": "inplace",
        "label": "uint64",
        "numberOfBytes": "8"
      },
      "t_uint8": {
        "encoding": "inplace",
        "label": "uint8",
        "numberOfBytes": "1"
      }
    }
  }
}