{
  "address": "0xd89Af40284004C13739495D2e2Cf45F57F6bec60",
  "abi": [
    {
      "inputs": [
        {
          "internalType": "string",
          "name": "name",
          "type": "string"
        },
        {
          "internalType": "string",
          "name": "symbol",
          "type": "string"
        },
        {
          "internalType": "uint256",
          "name": "supply",
          "type": "uint256"
        }
      ],
      "stateMutability": "nonpayable",
      "type": "constructor"
    },
    {
      "anonymous": false,
      "inputs": [
        {
          "indexed": true,
          "internalType": "address",
          "name": "owner",
          "type": "address"
        },
        {
          "indexed": true,
          "internalType": "address",
          "name": "spender",
          "type": "address"
        },
        {
          "indexed": false,
          "internalType": "uint256",
          "name": "value",
          "type": "uint256"
        }
      ],
      "name": "Approval",
      "type": "event"
    },
    {
      "anonymous": false,
      "inputs": [
        {
          "indexed": true,
          "internalType": "address",
          "name": "from",
          "type": "address"
        },
        {
          "indexed": true,
          "internalType": "address",
          "name": "to",
          "type": "address"
        },
        {
          "indexed": false,
          "internalType": "uint256",
          "name": "value",
          "type": "uint256"
        }
      ],
      "name": "Transfer",
      "type": "event"
    },
    {
      "inputs": [
        {
          "internalType": "address",
          "name": "owner",
          "type": "address"
        },
        {
          "internalType": "address",
          "name": "spender",
          "type": "address"
        }
      ],
      "name": "allowance",
      "outputs": [
        {
          "internalType": "uint256",
          "name": "",
          "type": "uint256"
        }
      ],
      "stateMutability": "view",
      "type": "function"
    },
    {
      "inputs": [
        {
          "internalType": "address",
          "name": "spender",
          "type": "address"
        },
        {
          "internalType": "uint256",
          "name": "amount",
          "type": "uint256"
        }
      ],
      "name": "approve",
      "outputs": [
        {
          "internalType": "bool",
          "name": "",
          "type": "bool"
        }
      ],
      "stateMutability": "nonpayable",
      "type": "function"
    },
    {
      "inputs": [
        {
          "internalType": "address",
          "name": "account",
          "type": "address"
        }
      ],
      "name": "balanceOf",
      "outputs": [
        {
          "internalType": "uint256",
          "name": "",
          "type": "uint256"
        }
      ],
      "stateMutability": "view",
      "type": "function"
    },
    {
      "inputs": [],
      "name": "decimals",
      "outputs": [
        {
          "internalType": "uint8",
          "name": "",
          "type": "uint8"
        }
      ],
      "stateMutability": "view",
      "type": "function"
    },
    {
      "inputs": [
        {
          "internalType": "address",
          "name": "spender",
          "type": "address"
        },
        {
          "internalType": "uint256",
          "name": "subtractedValue",
          "type": "uint256"
        }
      ],
      "name": "decreaseAllowance",
      "outputs": [
        {
          "internalType": "bool",
          "name": "",
          "type": "bool"
        }
      ],
      "stateMutability": "nonpayable",
      "type": "function"
    },
    {
      "inputs": [],
      "name": "faucetLimit",
      "outputs": [
        {
          "internalType": "uint256",
          "name": "",
          "type": "uint256"
        }
      ],
      "stateMutability": "view",
      "type": "function"
    },
    {
      "inputs": [
        {
          "internalType": "uint256",
          "name": "_amount",
          "type": "uint256"
        }
      ],
      "name": "faucetToken",
      "outputs": [],
      "stateMutability": "nonpayable",
      "type": "function"
    },
    {
      "inputs": [
        {
          "internalType": "address",
          "name": "spender",
          "type": "address"
        },
        {
          "internalType": "uint256",
          "name": "addedValue",
          "type": "uint256"
        }
      ],
      "name": "increaseAllowance",
      "outputs": [
        {
          "internalType": "bool",
          "name": "",
          "type": "bool"
        }
      ],
      "stateMutability": "nonpayable",
      "type": "function"
    },
    {
      "inputs": [],
      "name": "name",
      "outputs": [
        {
          "internalType": "string",
          "name": "",
          "type": "string"
        }
      ],
      "stateMutability": "view",
      "type": "function"
    },
    {
      "inputs": [],
      "name": "symbol",
      "outputs": [
        {
          "internalType": "string",
          "name": "",
          "type": "string"
        }
      ],
      "stateMutability": "view",
      "type": "function"
    },
    {
      "inputs": [],
      "name": "totalSupply",
      "outputs": [
        {
          "internalType": "uint256",
          "name": "",
          "type": "uint256"
        }
      ],
      "stateMutability": "view",
      "type": "function"
    },
    {
      "inputs": [
        {
          "internalType": "address",
          "name": "recipient",
          "type": "address"
        },
        {
          "internalType": "uint256",
          "name": "amount",
          "type": "uint256"
        }
      ],
      "name": "transfer",
      "outputs": [
        {
          "internalType": "bool",
          "name": "",
          "type": "bool"
        }
      ],
      "stateMutability": "nonpayable",
      "type": "function"
    },
    {
      "inputs": [
        {
          "internalType": "address",
          "name": "sender",
          "type": "address"
        },
        {
          "internalType": "address",
          "name": "recipient",
          "type": "address"
        },
        {
          "internalType": "uint256",
          "name": "amount",
          "type": "uint256"
        }
      ],
      "name": "transferFrom",
      "outputs": [
        {
          "internalType": "bool",
          "name": "",
          "type": "bool"
        }
      ],
      "stateMutability": "nonpayable",
      "type": "function"
    }
  ],
  "transactionHash": "0xbdc253b5e522ce743350fb2333e591eb5ee97059fd08b9d731ba1630be1214b2",
  "args": [
    "Wrapped Ether",
    "WETH.e",
    "1000000000000000000000000000"
  ],
  "solcInputHash": "02df91ed10cb7a39aca338a8d8f67231",
  "bytecode": "0x60806040523480156200001157600080fd5b5060405162000f9838038062000f988339810160408190526200003491620002b9565b8251839083906200004d90600390602085019062000168565b5080516200006390600490602084019062000168565b5050506200007833826200008160201b60201c565b505050620003e1565b6001600160a01b038216620000b35760405162461bcd60e51b8152600401620000aa9062000329565b60405180910390fd5b620000c16000838362000163565b8060026000828254620000d5919062000369565b90915550506001600160a01b038216600090815260208190526040812080548392906200010490849062000369565b90915550506040516001600160a01b038316906000907fddf252ad1be2c89b69c2b068fc378daa952ba7f163c4a11628f55a4df523b3ef906200014990859062000360565b60405180910390a36200015f6000838362000163565b5050565b505050565b82805462000176906200038e565b90600052602060002090601f0160209004810192826200019a5760008555620001e5565b82601f10620001b557805160ff1916838001178555620001e5565b82800160010185558215620001e5579182015b82811115620001e5578251825591602001919060010190620001c8565b50620001f3929150620001f7565b5090565b5b80821115620001f35760008155600101620001f8565b600082601f8301126200021f578081fd5b81516001600160401b03808211156200023c576200023c620003cb565b6040516020601f8401601f1916820181018381118382101715620002645762000264620003cb565b60405283825285840181018710156200027b578485fd5b8492505b838310156200029e57858301810151828401820152918201916200027f565b83831115620002af57848185840101525b5095945050505050565b600080600060608486031215620002ce578283fd5b83516001600160401b0380821115620002e5578485fd5b620002f3878388016200020e565b9450602086015191508082111562000309578384fd5b5062000318868287016200020e565b925050604084015190509250925092565b6020808252601f908201527f45524332303a206d696e7420746f20746865207a65726f206164647265737300604082015260600190565b90815260200190565b600082198211156200038957634e487b7160e01b81526011600452602481fd5b500190565b600281046001821680620003a357607f821691505b60208210811415620003c557634e487b7160e01b600052602260045260246000fd5b50919050565b634e487b7160e01b600052604160045260246000fd5b610ba780620003f16000396000f3fe608060405234801561001057600080fd5b50600436106100df5760003560e01c80636544e4391161008c57806395d89b411161006657806395d89b41146101a2578063a457c2d7146101aa578063a9059cbb146101bd578063dd62ed3e146101d0576100df565b80636544e4391461017257806370a082311461017a5780637f846d461461018d576100df565b806323b872dd116100bd57806323b872dd14610137578063313ce5671461014a578063395093511461015f576100df565b806306fdde03146100e4578063095ea7b31461010257806318160ddd14610122575b600080fd5b6100ec6101e3565b6040516100f99190610859565b60405180910390f35b61011561011036600461080d565b610275565b6040516100f9919061084e565b61012a610292565b6040516100f99190610afb565b6101156101453660046107d2565b610298565b610152610331565b6040516100f99190610b04565b61011561016d36600461080d565b610336565b61012a61038a565b61012a61018836600461077f565b610398565b6101a061019b366004610836565b6103b7565b005b6100ec6103ee565b6101156101b836600461080d565b6103fd565b6101156101cb36600461080d565b610476565b61012a6101de3660046107a0565b61048a565b6060600380546101f290610b36565b80601f016020809104026020016040519081016040528092919081815260200182805461021e90610b36565b801561026b5780601f106102405761010080835404028352916020019161026b565b820191906000526020600020905b81548152906001019060200180831161024e57829003601f168201915b5050505050905090565b60006102896102826104b5565b84846104b9565b50600192915050565b60025490565b60006102a584848461056d565b6001600160a01b0384166000908152600160205260408120816102c66104b5565b6001600160a01b03166001600160a01b03168152602001908152602001600020549050828110156103125760405162461bcd60e51b8152600401610309906109ae565b60405180910390fd5b6103268561031e6104b5565b8584036104b9565b506001949350505050565b601290565b60006102896103436104b5565b8484600160006103516104b5565b6001600160a01b03908116825260208083019390935260409182016000908120918b16815292529020546103859190610b12565b6104b9565b6969e10de76676d080000081565b6001600160a01b0381166000908152602081905260409020545b919050565b6969e10de76676d08000008111156103e15760405162461bcd60e51b8152600401610309906108ef565b6103eb3382610697565b50565b6060600480546101f290610b36565b6000806001600061040c6104b5565b6001600160a01b03908116825260208083019390935260409182016000908120918816815292529020549050828110156104585760405162461bcd60e51b815260040161030990610a7f565b61046c6104636104b5565b858584036104b9565b5060019392505050565b60006102896104836104b5565b848461056d565b6001600160a01b03918216600090815260016020908152604080832093909416825291909152205490565b3390565b6001600160a01b0383166104df5760405162461bcd60e51b815260040161030990610a3b565b6001600160a01b0382166105055760405162461bcd60e51b815260040161030990610926565b6001600160a01b0380841660008181526001602090815260408083209487168084529490915290819020849055517f8c5be1e5ebec7d5bd14f71427d1e84f3dd0314c0f7b2291e5b200ac8c7c3b92590610560908590610afb565b60405180910390a3505050565b6001600160a01b0383166105935760405162461bcd60e51b8152600401610309906109f6565b6001600160a01b0382166105b95760405162461bcd60e51b8152600401610309906108ac565b6105c4838383610763565b6001600160a01b038316600090815260208190526040902054818110156105fd5760405162461bcd60e51b815260040161030990610968565b6001600160a01b03808516600090815260208190526040808220858503905591851681529081208054849290610634908490610b12565b92505081905550826001600160a01b0316846001600160a01b03167fddf252ad1be2c89b69c2b068fc378daa952ba7f163c4a11628f55a4df523b3ef8460405161067e9190610afb565b60405180910390a3610691848484610763565b50505050565b6001600160a01b0382166106bd5760405162461bcd60e51b815260040161030990610ac4565b6106c960008383610763565b80600260008282546106db9190610b12565b90915550506001600160a01b03821660009081526020819052604081208054839290610708908490610b12565b90915550506040516001600160a01b038316906000907fddf252ad1be2c89b69c2b068fc378daa952ba7f163c4a11628f55a4df523b3ef9061074b908590610afb565b60405180910390a361075f60008383610763565b5050565b505050565b80356001600160a01b03811681146103b257600080fd5b600060208284031215610790578081fd5b61079982610768565b9392505050565b600080604083850312156107b2578081fd5b6107bb83610768565b91506107c960208401610768565b90509250929050565b6000806000606084860312156107e6578081fd5b6107ef84610768565b92506107fd60208501610768565b9150604084013590509250925092565b6000806040838503121561081f578182fd5b61082883610768565b946020939093013593505050565b600060208284031215610847578081fd5b5035919050565b901515815260200190565b6000602080835283518082850152825b8181101561088557858101830151858201604001528201610869565b818111156108965783604083870101525b50601f01601f1916929092016040019392505050565b60208082526023908201527f45524332303a207472616e7366657220746f20746865207a65726f206164647260408201526265737360e81b606082015260800190565b60208082526018908201527f46617563657420616d6f756e74206c696d69746174696f6e0000000000000000604082015260600190565b60208082526022908201527f45524332303a20617070726f766520746f20746865207a65726f206164647265604082015261737360f01b606082015260800190565b60208082526026908201527f45524332303a207472616e7366657220616d6f756e7420657863656564732062604082015265616c616e636560d01b606082015260800190565b60208082526028908201527f45524332303a207472616e7366657220616d6f756e74206578636565647320616040820152676c6c6f77616e636560c01b606082015260800190565b60208082526025908201527f45524332303a207472616e736665722066726f6d20746865207a65726f206164604082015264647265737360d81b606082015260800190565b60208082526024908201527f45524332303a20617070726f76652066726f6d20746865207a65726f206164646040820152637265737360e01b606082015260800190565b60208082526025908201527f45524332303a2064656372656173656420616c6c6f77616e63652062656c6f77604082015264207a65726f60d81b606082015260800190565b6020808252601f908201527f45524332303a206d696e7420746f20746865207a65726f206164647265737300604082015260600190565b90815260200190565b60ff91909116815260200190565b60008219821115610b3157634e487b7160e01b81526011600452602481fd5b500190565b600281046001821680610b4a57607f821691505b60208210811415610b6b57634e487b7160e01b600052602260045260246000fd5b5091905056fea264697066735822122087c1d58c931a4e1b94a207795b8b556a59a0d99e9e1fbc4a6381988b5487fd8664736f6c63430008000033",
  "devdoc": {
    "kind": "dev",
    "methods": {
      "allowance(address,address)": {
        "details": "See {IERC20-allowance}."
      },
      "approve(address,uint256)": {
        "details": "See {IERC20-approve}. Requirements: - `spender` cannot be the zero address."
      },
      "balanceOf(address)": {
        "details": "See {IERC20-balanceOf}."
      },
      "decimals()": {
        "details": "Returns the number of decimals used to get its user representation. For example, if `decimals` equals `2`, a balance of `505` tokens should be displayed to a user as `5.05` (`505 / 10 ** 2`). Tokens usually opt for a value of 18, imitating the relationship between Ether and Wei. This is the value {ERC20} uses, unless this function is overridden; NOTE: This information is only used for _display_ purposes: it in no way affects any of the arithmetic of the contract, including {IERC20-balanceOf} and {IERC20-transfer}."
      },
      "decreaseAllowance(address,uint256)": {
        "details": "Atomically decreases the allowance granted to `spender` by the caller. This is an alternative to {approve} that can be used as a mitigation for problems described in {IERC20-approve}. Emits an {Approval} event indicating the updated allowance. Requirements: - `spender` cannot be the zero address. - `spender` must have allowance for the caller of at least `subtractedValue`."
      },
      "increaseAllowance(address,uint256)": {
        "details": "Atomically increases the allowance granted to `spender` by the caller. This is an alternative to {approve} that can be used as a mitigation for problems described in {IERC20-approve}. Emits an {Approval} event indicating the updated allowance. Requirements: - `spender` cannot be the zero address."
      },
      "name()": {
        "details": "Returns the name of the token."
      },
      "symbol()": {
        "details": "Returns the symbol of the token, usually a shorter version of the name."
      },
      "totalSupply()": {
        "details": "See {IERC20-totalSupply}."
      },
      "transfer(address,uint256)": {
        "details": "See {IERC20-transfer}. Requirements: - `recipient` cannot be the zero address. - the caller must have a balance of at least `amount`."
      },
      "transferFrom(address,address,uint256)": {
        "details": "See {IERC20-transferFrom}. Emits an {Approval} event indicating the updated allowance. This is not required by the EIP. See the note at the beginning of {ERC20}. Requirements: - `sender` and `recipient` cannot be the zero address. - `sender` must have a balance of at least `amount`. - the caller must have allowance for ``sender``'s tokens of at least `amount`."
      }
    },
    "version": 1
  },
  "userdoc": {
    "kind": "user",
    "methods": {},
    "version": 1
  },
  "storageLayout": {
    "storage": [
      {
        "astId": 1595,
        "contract": "contracts/mocks/MockWETH.sol:MockWETH",
        "label": "_balances",
        "offset": 0,
        "slot": "0",
        "type": "t_mapping(t_address,t_uint256)"
      },
      {
        "astId": 1601,
        "contract": "contracts/mocks/MockWETH.sol:MockWETH",
        "label": "_allowances",
        "offset": 0,
        "slot": "1",
        "type": "t_mapping(t_address,t_mapping(t_address,t_uint256))"
      },
      {
        "astId": 1603,
        "contract": "contracts/mocks/MockWETH.sol:MockWETH",
        "label": "_totalSupply",
        "offset": 0,
        "slot": "2",
        "type": "t_uint256"
      },
      {
        "astId": 1605,
        "contract": "contracts/mocks/MockWETH.sol:MockWETH",
        "label": "_name",
        "offset": 0,
        "slot": "3",
        "type": "t_string_storage"
      },
      {
        "astId": 1607,
        "contract": "contracts/mocks/MockWETH.sol:MockWETH",
        "label": "_symbol",
        "offset": 0,
        "slot": "4",
        "type": "t_string_storage"
      }
    ],
    "types": {
      "t_address": {
        "encoding": "inplace",
        "label": "address",
        "numberOfBytes": "20"
      },
      "t_mapping(t_address,t_mapping(t_address,t_uint256))": {
        "encoding": "mapping",
        "key": "t_address",
        "label": "mapping(address => mapping(address => uint256))",
        "numberOfBytes": "32",
        "value": "t_mapping(t_address,t_uint256)"
      },
      "t_mapping(t_address,t_uint256)": {
        "encoding": "mapping",
        "key": "t_address",
        "label": "mapping(address => uint256)",
        "numberOfBytes": "32",
        "value": "t_uint256"
      },
      "t_string_storage": {
        "encoding": "bytes",
        "label": "string",
        "numberOfBytes": "32"
      },
      "t_uint256": {
        "encoding": "inplace",
        "label": "uint256",
        "numberOfBytes": "32"
      }
    }
  }
}