{
  "address": "0xd435461f7521b7647D2ad39F8DD4903C2e7f407d",
  "abi": [
    {
      "inputs": [
        {
          "internalType": "address[]",
          "name": "_initialWalletPath",
          "type": "address[]"
        },
        {
          "internalType": "address",
          "name": "_vaultChefAddress",
          "type": "address"
        },
        {
          "internalType": "address",
          "name": "_masterchefAddress",
          "type": "address"
        },
        {
          "internalType": "address",
          "name": "_uniRouterAddress",
          "type": "address"
        },
        {
          "internalType": "uint256",
          "name": "_pid",
          "type": "uint256"
        },
        {
          "internalType": "address",
          "name": "_wantAddress",
          "type": "address"
        },
        {
          "internalType": "address",
          "name": "_earnedAddress",
          "type": "address"
        },
        {
          "internalType": "address[]",
          "name": "_earnedToWmaticPath",
          "type": "address[]"
        },
        {
          "internalType": "address[]",
          "name": "_earnedToDcauPath",
          "type": "address[]"
        },
        {
          "internalType": "address[]",
          "name": "_earnedToToken0Path",
          "type": "address[]"
        },
        {
          "internalType": "address[]",
          "name": "_earnedToToken1Path",
          "type": "address[]"
        }
      ],
      "stateMutability": "nonpayable",
      "type": "constructor"
    },
    {
      "anonymous": false,
      "inputs": [
        {
          "indexed": true,
          "internalType": "address",
          "name": "previousOwner",
          "type": "address"
        },
        {
          "indexed": true,
          "internalType": "address",
          "name": "newOwner",
          "type": "address"
        }
      ],
      "name": "OwnershipTransferred",
      "type": "event"
    },
    {
      "anonymous": false,
      "inputs": [
        {
          "indexed": true,
          "internalType": "address",
          "name": "_gov",
          "type": "address"
        }
      ],
      "name": "Panic",
      "type": "event"
    },
    {
      "anonymous": false,
      "inputs": [
        {
          "indexed": false,
          "internalType": "address",
          "name": "account",
          "type": "address"
        }
      ],
      "name": "Paused",
      "type": "event"
    },
    {
      "anonymous": false,
      "inputs": [
        {
          "indexed": true,
          "internalType": "address",
          "name": "_gov",
          "type": "address"
        }
      ],
      "name": "ResetAllowances",
      "type": "event"
    },
    {
      "anonymous": false,
      "inputs": [
        {
          "indexed": true,
          "internalType": "address",
          "name": "_oldGov",
          "type": "address"
        },
        {
          "indexed": true,
          "internalType": "address",
          "name": "_newGov",
          "type": "address"
        }
      ],
      "name": "SetGov",
      "type": "event"
    },
    {
      "anonymous": false,
      "inputs": [
        {
          "indexed": false,
          "internalType": "uint256",
          "name": "_controllerFee",
          "type": "uint256"
        },
        {
          "indexed": false,
          "internalType": "uint256",
          "name": "_rewardRate",
          "type": "uint256"
        },
        {
          "indexed": false,
          "internalType": "uint256",
          "name": "_buyBackRate",
          "type": "uint256"
        },
        {
          "indexed": false,
          "internalType": "uint256",
          "name": "_withdrawFeeFactor",
          "type": "uint256"
        },
        {
          "indexed": false,
          "internalType": "uint256",
          "name": "_slippageFactor",
          "type": "uint256"
        }
      ],
      "name": "SetSettings",
      "type": "event"
    },
    {
      "anonymous": false,
      "inputs": [
        {
          "indexed": true,
          "internalType": "address",
          "name": "_gov",
          "type": "address"
        }
      ],
      "name": "UnPanic",
      "type": "event"
    },
    {
      "anonymous": false,
      "inputs": [
        {
          "indexed": false,
          "internalType": "address",
          "name": "account",
          "type": "address"
        }
      ],
      "name": "Unpaused",
      "type": "event"
    },
    {
      "inputs": [],
      "name": "HasPanicked",
      "outputs": [
        {
          "internalType": "bool",
          "name": "",
          "type": "bool"
        }
      ],
      "stateMutability": "view",
      "type": "function"
    },
    {
      "inputs": [],
      "name": "buyBackAddress",
      "outputs": [
        {
          "internalType": "address",
          "name": "",
          "type": "address"
        }
      ],
      "stateMutability": "view",
      "type": "function"
    },
    {
      "inputs": [],
      "name": "buyBackRate",
      "outputs": [
        {
          "internalType": "uint256",
          "name": "",
          "type": "uint256"
        }
      ],
      "stateMutability": "view",
      "type": "function"
    },
    {
      "inputs": [],
      "name": "controllerFee",
      "outputs": [
        {
          "internalType": "uint256",
          "name": "",
          "type": "uint256"
        }
      ],
      "stateMutability": "view",
      "type": "function"
    },
    {
      "inputs": [],
      "name": "convertDustToEarned",
      "outputs": [],
      "stateMutability": "nonpayable",
      "type": "function"
    },
    {
      "inputs": [],
      "name": "dcauAddress",
      "outputs": [
        {
          "internalType": "address",
          "name": "",
          "type": "address"
        }
      ],
      "stateMutability": "view",
      "type": "function"
    },
    {
      "inputs": [
        {
          "internalType": "uint256",
          "name": "_wantAmt",
          "type": "uint256"
        }
      ],
      "name": "deposit",
      "outputs": [
        {
          "internalType": "uint256",
          "name": "",
          "type": "uint256"
        }
      ],
      "stateMutability": "nonpayable",
      "type": "function"
    },
    {
      "inputs": [],
      "name": "earn",
      "outputs": [],
      "stateMutability": "nonpayable",
      "type": "function"
    },
    {
      "inputs": [],
      "name": "earnedAddress",
      "outputs": [
        {
          "internalType": "address",
          "name": "",
          "type": "address"
        }
      ],
      "stateMutability": "view",
      "type": "function"
    },
    {
      "inputs": [
        {
          "internalType": "uint256",
          "name": "",
          "type": "uint256"
        }
      ],
      "name": "earnedToDcauPath",
      "outputs": [
        {
          "internalType": "address",
          "name": "",
          "type": "address"
        }
      ],
      "stateMutability": "view",
      "type": "function"
    },
    {
      "inputs": [
        {
          "internalType": "uint256",
          "name": "",
          "type": "uint256"
        }
      ],
      "name": "earnedToToken0Path",
      "outputs": [
        {
          "internalType": "address",
          "name": "",
          "type": "address"
        }
      ],
      "stateMutability": "view",
      "type": "function"
    },
    {
      "inputs": [
        {
          "internalType": "uint256",
          "name": "",
          "type": "uint256"
        }
      ],
      "name": "earnedToToken1Path",
      "outputs": [
        {
          "internalType": "address",
          "name": "",
          "type": "address"
        }
      ],
      "stateMutability": "view",
      "type": "function"
    },
    {
      "inputs": [
        {
          "internalType": "uint256",
          "name": "",
          "type": "uint256"
        }
      ],
      "name": "earnedToWmaticPath",
      "outputs": [
        {
          "internalType": "address",
          "name": "",
          "type": "address"
        }
      ],
      "stateMutability": "view",
      "type": "function"
    },
    {
      "inputs": [],
      "name": "feeAddress",
      "outputs": [
        {
          "internalType": "address",
          "name": "",
          "type": "address"
        }
      ],
      "stateMutability": "view",
      "type": "function"
    },
    {
      "inputs": [],
      "name": "feeMax",
      "outputs": [
        {
          "internalType": "uint256",
          "name": "",
          "type": "uint256"
        }
      ],
      "stateMutability": "view",
      "type": "function"
    },
    {
      "inputs": [],
      "name": "feeMaxTotal",
      "outputs": [
        {
          "internalType": "uint256",
          "name": "",
          "type": "uint256"
        }
      ],
      "stateMutability": "view",
      "type": "function"
    },
    {
      "inputs": [],
      "name": "govAddress",
      "outputs": [
        {
          "internalType": "address",
          "name": "",
          "type": "address"
        }
      ],
      "stateMutability": "view",
      "type": "function"
    },
    {
      "inputs": [],
      "name": "lastEarnBlock",
      "outputs": [
        {
          "internalType": "uint256",
          "name": "",
          "type": "uint256"
        }
      ],
      "stateMutability": "view",
      "type": "function"
    },
    {
      "inputs": [],
      "name": "masterchefAddress",
      "outputs": [
        {
          "internalType": "address",
          "name": "",
          "type": "address"
        }
      ],
      "stateMutability": "view",
      "type": "function"
    },
    {
      "inputs": [],
      "name": "owner",
      "outputs": [
        {
          "internalType": "address",
          "name": "",
          "type": "address"
        }
      ],
      "stateMutability": "view",
      "type": "function"
    },
    {
      "inputs": [],
      "name": "panic",
      "outputs": [],
      "stateMutability": "nonpayable",
      "type": "function"
    },
    {
      "inputs": [],
      "name": "pause",
      "outputs": [],
      "stateMutability": "nonpayable",
      "type": "function"
    },
    {
      "inputs": [],
      "name": "paused",
      "outputs": [
        {
          "internalType": "bool",
          "name": "",
          "type": "bool"
        }
      ],
      "stateMutability": "view",
      "type": "function"
    },
    {
      "inputs": [],
      "name": "pid",
      "outputs": [
        {
          "internalType": "uint256",
          "name": "",
          "type": "uint256"
        }
      ],
      "stateMutability": "view",
      "type": "function"
    },
    {
      "inputs": [],
      "name": "renounceOwnership",
      "outputs": [],
      "stateMutability": "nonpayable",
      "type": "function"
    },
    {
      "inputs": [],
      "name": "resetAllowances",
      "outputs": [],
      "stateMutability": "nonpayable",
      "type": "function"
    },
    {
      "inputs": [],
      "name": "rewardRate",
      "outputs": [
        {
          "internalType": "uint256",
          "name": "",
          "type": "uint256"
        }
      ],
      "stateMutability": "view",
      "type": "function"
    },
    {
      "inputs": [
        {
          "internalType": "address",
          "name": "_govAddress",
          "type": "address"
        }
      ],
      "name": "setGov",
      "outputs": [],
      "stateMutability": "nonpayable",
      "type": "function"
    },
    {
      "inputs": [
        {
          "internalType": "uint256",
          "name": "_controllerFee",
          "type": "uint256"
        },
        {
          "internalType": "uint256",
          "name": "_rewardRate",
          "type": "uint256"
        },
        {
          "internalType": "uint256",
          "name": "_buyBackRate",
          "type": "uint256"
        },
        {
          "internalType": "uint256",
          "name": "_withdrawFeeFactor",
          "type": "uint256"
        },
        {
          "internalType": "uint256",
          "name": "_slippageFactor",
          "type": "uint256"
        }
      ],
      "name": "setSettings",
      "outputs": [],
      "stateMutability": "nonpayable",
      "type": "function"
    },
    {
      "inputs": [],
      "name": "sharesTotal",
      "outputs": [
        {
          "internalType": "uint256",
          "name": "",
          "type": "uint256"
        }
      ],
      "stateMutability": "view",
      "type": "function"
    },
    {
      "inputs": [],
      "name": "slippageFactor",
      "outputs": [
        {
          "internalType": "uint256",
          "name": "",
          "type": "uint256"
        }
      ],
      "stateMutability": "view",
      "type": "function"
    },
    {
      "inputs": [],
      "name": "slippageFactorUL",
      "outputs": [
        {
          "internalType": "uint256",
          "name": "",
          "type": "uint256"
        }
      ],
      "stateMutability": "view",
      "type": "function"
    },
    {
      "inputs": [],
      "name": "token0Address",
      "outputs": [
        {
          "internalType": "address",
          "name": "",
          "type": "address"
        }
      ],
      "stateMutability": "view",
      "type": "function"
    },
    {
      "inputs": [],
      "name": "token1Address",
      "outputs": [
        {
          "internalType": "address",
          "name": "",
          "type": "address"
        }
      ],
      "stateMutability": "view",
      "type": "function"
    },
    {
      "inputs": [],
      "name": "totalInUnderlying",
      "outputs": [
        {
          "internalType": "uint256",
          "name": "",
          "type": "uint256"
        }
      ],
      "stateMutability": "view",
      "type": "function"
    },
    {
      "inputs": [
        {
          "internalType": "address",
          "name": "newOwner",
          "type": "address"
        }
      ],
      "name": "transferOwnership",
      "outputs": [],
      "stateMutability": "nonpayable",
      "type": "function"
    },
    {
      "inputs": [],
      "name": "uniRouterAddress",
      "outputs": [
        {
          "internalType": "address",
          "name": "",
          "type": "address"
        }
      ],
      "stateMutability": "view",
      "type": "function"
    },
    {
      "inputs": [],
      "name": "unpause",
      "outputs": [],
      "stateMutability": "nonpayable",
      "type": "function"
    },
    {
      "inputs": [],
      "name": "vaultChefAddress",
      "outputs": [
        {
          "internalType": "address",
          "name": "",
          "type": "address"
        }
      ],
      "stateMutability": "view",
      "type": "function"
    },
    {
      "inputs": [],
      "name": "wantAddress",
      "outputs": [
        {
          "internalType": "address",
          "name": "",
          "type": "address"
        }
      ],
      "stateMutability": "view",
      "type": "function"
    },
    {
      "inputs": [],
      "name": "wantLockedTotal",
      "outputs": [
        {
          "internalType": "uint256",
          "name": "",
          "type": "uint256"
        }
      ],
      "stateMutability": "view",
      "type": "function"
    },
    {
      "inputs": [
        {
          "internalType": "uint256",
          "name": "_wantAmt",
          "type": "uint256"
        }
      ],
      "name": "withdraw",
      "outputs": [
        {
          "internalType": "uint256",
          "name": "",
          "type": "uint256"
        }
      ],
      "stateMutability": "nonpayable",
      "type": "function"
    },
    {
      "inputs": [],
      "name": "withdrawFeeAddress",
      "outputs": [
        {
          "internalType": "address",
          "name": "",
          "type": "address"
        }
      ],
      "stateMutability": "view",
      "type": "function"
    },
    {
      "inputs": [],
      "name": "withdrawFeeFactor",
      "outputs": [
        {
          "internalType": "uint256",
          "name": "",
          "type": "uint256"
        }
      ],
      "stateMutability": "view",
      "type": "function"
    },
    {
      "inputs": [],
      "name": "withdrawFeeFactorLL",
      "outputs": [
        {
          "internalType": "uint256",
          "name": "",
          "type": "uint256"
        }
      ],
      "stateMutability": "view",
      "type": "function"
    },
    {
      "inputs": [],
      "name": "withdrawFeeFactorMax",
      "outputs": [
        {
          "internalType": "uint256",
          "name": "",
          "type": "uint256"
        }
      ],
      "stateMutability": "view",
      "type": "function"
    }
  ],
  "transactionHash": "0x4cedf4e354957669432bf5619d5582393409de3a7d436bcd28e5a6d46f03af7b",
  "args": [
    [
      "0x165003a2163465F3E27cEdA9708A150dD1D3b1CB",
      "0x6C641CE6A7216F12d28692f9d8b2BDcdE812eD2b",
      "0x6C641CE6A7216F12d28692f9d8b2BDcdE812eD2b"
    ],
    "0x5f576581C54Fc09E2C6e350a65dc781978C87199",
    "0x5B4DAddd5FC57c81A04358dec86c77d9d9d9A0fc",
    "0x7a250d5630B4cF539739dF2C5dAcb4c659F2488D",
    3,
    "0xb500aa687c59919b8031d885129178315f47e320",
    "0x165003a2163465F3E27cEdA9708A150dD1D3b1CB",
    [
      "0x165003a2163465F3E27cEdA9708A150dD1D3b1CB",
      "0xc778417e063141139fce010982780140aa0cd5ab"
    ],
    [
      "0x165003a2163465F3E27cEdA9708A150dD1D3b1CB",
      "0x165003a2163465F3E27cEdA9708A150dD1D3b1CB"
    ],
    [
      "0x165003a2163465F3E27cEdA9708A150dD1D3b1CB",
      "0x165003a2163465F3E27cEdA9708A150dD1D3b1CB"
    ],
    [
      "0x165003a2163465F3E27cEdA9708A150dD1D3b1CB",
      "0xA41F61747BcdA7E3c945054c3da111d364E031Aa"
    ]
  ],
  "solcInputHash": "1cf95036643e9f56802b68e3c57a742c",
  "bytecode": "0x608060405243600a556032600c556096600e556126ac600f556103b66010556013805460ff191690553480156200003557600080fd5b5060405162003e8038038062003e80833981016040819052620000589162000c88565b6200006c6200006662000535565b62000539565b600180556002805460ff191690558a51600314620000a75760405162461bcd60e51b81526004016200009e9062001063565b60405180910390fd5b60006001600160a01b03168b600081518110620000d457634e487b7160e01b600052603260045260246000fd5b60200260200101516001600160a01b03161415801562000130575060006001600160a01b03168b6001815181106200011c57634e487b7160e01b600052603260045260246000fd5b60200260200101516001600160a01b031614155b801562000179575060006001600160a01b03168b6002815181106200016557634e487b7160e01b600052603260045260246000fd5b60200260200101516001600160a01b031614155b620001985760405162461bcd60e51b81526004016200009e9062001017565b6001600160a01b03861615801590620001b957506001600160a01b03851615155b620001d85760405162461bcd60e51b81526004016200009e9062000f85565b846001600160a01b0316866001600160a01b031614156200020d5760405162461bcd60e51b81526004016200009e9062000ef1565b600980546001600160a01b031916331790558a518b906000906200024157634e487b7160e01b600052603260045260246000fd5b6020026020010151600560006101000a8154816001600160a01b0302191690836001600160a01b031602179055508a6001815181106200029157634e487b7160e01b600052603260045260246000fd5b6020026020010151600660006101000a8154816001600160a01b0302191690836001600160a01b031602179055508a600281518110620002e157634e487b7160e01b600052603260045260246000fd5b602090810291909101810151600780546001600160a01b03199081166001600160a01b03938416179091556008805482168e84161790556017805482168d8416179055600480549091168b831617815560028054610100600160a81b0319166101008b85168102919091179182905560408051630dfe168160e01b815290519190920490931693630dfe168193828401939192909190829003018186803b1580156200038c57600080fd5b505afa158015620003a1573d6000803e3d6000fd5b505050506040513d601f19601f82011682018060405250810190620003c7919062000c6b565b601360016101000a8154816001600160a01b0302191690836001600160a01b03160217905550600260019054906101000a90046001600160a01b03166001600160a01b031663d21220a76040518163ffffffff1660e01b815260040160206040518083038186803b1580156200043c57600080fd5b505afa15801562000451573d6000803e3d6000fd5b505050506040513d601f19601f8201168201806040525081019062000477919062000c6b565b601480546001600160a01b03199081166001600160a01b03938416179091556018899055600380549091169187169190911790558351620004c090601190602087019062000b28565b508251620004d690601290602086019062000b28565b508151620004ec90601590602085019062000b28565b5080516200050290601690602084019062000b28565b506008546200051a906001600160a01b031662000589565b6200052462000606565b5050505050505050505050620011f9565b3390565b600080546001600160a01b038381166001600160a01b0319831681178455604051919092169283917f8be0079c531659141344cd1fd0a4f28419497f9722a3daafe3b4186f6b6457e09190a35050565b6200059362000535565b6001600160a01b0316620005a662000780565b6001600160a01b031614620005cf5760405162461bcd60e51b81526004016200009e9062000fe2565b6001600160a01b038116620005f85760405162461bcd60e51b81526004016200009e9062000eab565b620006038162000539565b50565b60175460025462000637916001600160a01b036101009092048216911660006200078f602090811b620017af17901c565b60175460025462000669916001600160a01b03610100909204821691166000196200089d602090811b620018db17901c565b60045460035462000695916001600160a01b03918216911660006200078f602090811b620017af17901c565b600454600354620006c2916001600160a01b0391821691166000196200089d602090811b620018db17901c565b600454601354620006f3916001600160a01b036101009092048216911660006200078f602090811b620017af17901c565b60045460135462000725916001600160a01b03610100909204821691166000196200089d602090811b620018db17901c565b60045460145462000751916001600160a01b03918216911660006200078f602090811b620017af17901c565b6004546014546200077e916001600160a01b0391821691166000196200089d602090811b620018db17901c565b565b6000546001600160a01b031690565b8015806200081e5750604051636eb1769f60e11b81526001600160a01b0384169063dd62ed3e90620007c8903090869060040162000e43565b60206040518083038186803b158015620007e157600080fd5b505afa158015620007f6573d6000803e3d6000fd5b505050506040513d601f19601f820116820180604052508101906200081c919062000e0c565b155b6200083d5760405162461bcd60e51b81526004016200009e9062001132565b620008988363095ea7b360e01b84846040516024016200085f92919062000e5d565b60408051808303601f190181529190526020810180516001600160e01b0319939093166001600160e01b03938416179052906200095a16565b505050565b600081846001600160a01b031663dd62ed3e30866040518363ffffffff1660e01b8152600401620008d092919062000e43565b60206040518083038186803b158015620008e957600080fd5b505afa158015620008fe573d6000803e3d6000fd5b505050506040513d601f19601f8201168201806040525081019062000924919062000e0c565b6200093091906200118f565b9050620009548463095ea7b360e01b85846040516024016200085f92919062000e5d565b50505050565b6000620009b6826040518060400160405280602081526020017f5361666545524332303a206c6f772d6c6576656c2063616c6c206661696c6564815250856001600160a01b0316620009f660201b6200198d179092919060201c565b805190915015620008985780806020019051810190620009d7919062000dea565b620008985760405162461bcd60e51b81526004016200009e90620010e8565b606062000a07848460008562000a11565b90505b9392505050565b60608247101562000a365760405162461bcd60e51b81526004016200009e9062000f3f565b62000a418562000ae0565b62000a605760405162461bcd60e51b81526004016200009e90620010b1565b600080866001600160a01b0316858760405162000a7e919062000e25565b60006040518083038185875af1925050503d806000811462000abd576040519150601f19603f3d011682016040523d82523d6000602084013e62000ac2565b606091505b50909250905062000ad582828662000aea565b979650505050505050565b803b15155b919050565b6060831562000afb57508162000a0a565b82511562000b0c5782518084602001fd5b8160405162461bcd60e51b81526004016200009e919062000e76565b82805482825590600052602060002090810192821562000b80579160200282015b8281111562000b8057825182546001600160a01b0319166001600160a01b0390911617825560209092019160019091019062000b49565b5062000b8e92915062000b92565b5090565b5b8082111562000b8e576000815560010162000b93565b80516001600160a01b038116811462000ae557600080fd5b600082601f83011262000bd2578081fd5b815160206001600160401b038083111562000bf15762000bf1620011e3565b8183026040518382820101818110848211171562000c135762000c13620011e3565b6040528481528381019250868401828801850189101562000c32578687fd5b8692505b8583101562000c5f5762000c4a8162000ba9565b84529284019260019290920191840162000c36565b50979650505050505050565b60006020828403121562000c7d578081fd5b62000a0a8262000ba9565b60008060008060008060008060008060006101608c8e03121562000caa578687fd5b8b516001600160401b0381111562000cc0578788fd5b62000cce8e828f0162000bc1565b9b505062000cdf60208d0162000ba9565b995062000cef60408d0162000ba9565b985062000cff60608d0162000ba9565b975060808c0151965062000d1660a08d0162000ba9565b955062000d2660c08d0162000ba9565b60e08d01519095506001600160401b0381111562000d42578485fd5b62000d508e828f0162000bc1565b6101008e015190955090506001600160401b0381111562000d6f578384fd5b62000d7d8e828f0162000bc1565b6101208e015190945090506001600160401b0381111562000d9c578283fd5b62000daa8e828f0162000bc1565b6101408e015190935090506001600160401b0381111562000dc9578182fd5b62000dd78e828f0162000bc1565b9150509295989b509295989b9093969950565b60006020828403121562000dfc578081fd5b8151801515811462000a0a578182fd5b60006020828403121562000e1e578081fd5b5051919050565b6000825162000e39818460208701620011b4565b9190910192915050565b6001600160a01b0392831681529116602082015260400190565b6001600160a01b03929092168252602082015260400190565b600060208252825180602084015262000e97816040850160208701620011b4565b601f01601f19169190910160400192915050565b60208082526026908201527f4f776e61626c653a206e6577206f776e657220697320746865207a65726f206160408201526564647265737360d01b606082015260800190565b6020808252602e908201527f57616e7420746f6b656e2073686f756c64206e6f7420626520657175616c207460408201526d379032b0b93732b2103a37b5b2b760911b606082015260800190565b60208082526026908201527f416464726573733a20696e73756666696369656e742062616c616e636520666f6040820152651c8818d85b1b60d21b606082015260800190565b60208082526035908201527f57616e7420746f6b656e206f72206561726e656420746f6b656e2073686f756c60408201527f64206e6f74206265205a45524f20616464726573730000000000000000000000606082015260800190565b6020808252818101527f4f776e61626c653a2063616c6c6572206973206e6f7420746865206f776e6572604082015260600190565b6020808252602c908201527f416e79206f66205f696e697469616c57616c6c6574506174682073686f756c6460408201526b206e6f74206265205a45524f60a01b606082015260800190565b6020808252602e908201527f506172616d65746572205f696e697469616c57616c6c657450617468206c656e60408201526d6774682073686f7564206265203360901b606082015260800190565b6020808252601d908201527f416464726573733a2063616c6c20746f206e6f6e2d636f6e7472616374000000604082015260600190565b6020808252602a908201527f5361666545524332303a204552433230206f7065726174696f6e20646964206e6040820152691bdd081cdd58d8d9595960b21b606082015260800190565b60208082526036908201527f5361666545524332303a20617070726f76652066726f6d206e6f6e2d7a65726f60408201527f20746f206e6f6e2d7a65726f20616c6c6f77616e636500000000000000000000606082015260800190565b60008219821115620011af57634e487b7160e01b81526011600452602481fd5b500190565b60005b83811015620011d1578181015183820152602001620011b7565b83811115620009545750506000910152565b634e487b7160e01b600052604160045260246000fd5b612c7780620012096000396000f3fe608060405234801561001057600080fd5b50600436106102e95760003560e01c80637b0a47ee1161018c578063c11c2e92116100ee578063e719847411610097578063f2fde38b11610071578063f2fde38b146104d0578063ffbd3b1f146104e3578063ffbe9f1e146103c9576102e9565b8063e7198474146104b8578063e7a03679146104c0578063f1068454146104c8576102e9565b8063cfad57a2116100c8578063cfad57a214610495578063d389800f146104a8578063d7cb416f146104b0576102e9565b8063c11c2e9214610472578063c8e3d18b1461047a578063cead67c01461048d576102e9565b8063866b20181161015057806396e9aff81161012a57806396e9aff814610444578063b6b55f2514610457578063b74cd2421461046a576102e9565b8063866b20181461042c5780638da5cb5b146104345780638fefda061461043c576102e9565b80637b0a47ee146103f95780637ff36fbe146104015780638456cb591461040957806384fa32ac1461041157806385f02dd614610424576102e9565b8063412753581161025057806367057b6c116101f9578063715018a6116101d3578063715018a6146103e1578063783478ad146103e9578063784def8c146103f1576102e9565b806367057b6c146103c957806368f54162146103d1578063693a090b146103d9576102e9565b806346008a071161022a57806346008a07146103b15780634700d305146103b95780635c975abb146103c1576102e9565b8063412753581461039957806342da4eb3146103a157806344a3955e146103a9576102e9565b80632e1a7d4d116102b25780633505b09f1161028c5780633505b09f1461037f5780633f4ba83a1461038957806340c34b5814610391576102e9565b80632e1a7d4d146103515780632eda6f5b146103645780633220d73214610377576102e9565b806256fbaa146102ee5780630fa4e01e1461030c5780631666fc7f14610321578063178a8d0714610329578063260ab48c14610331575b600080fd5b6102f66104eb565b60405161030391906126b9565b60405180910390f35b6103146104f4565b6040516103039190612ad5565b6103146104fa565b610314610589565b61034461033f3660046124ec565b61058f565b6040516103039190612605565b61031461035f3660046124ec565b6105b9565b6103446103723660046124ec565b610857565b610344610867565b610387610876565b005b6103876108d5565b610344610968565b610344610977565b610314610986565b610314610a23565b610344610a29565b610387610a38565b6102f6610ab4565b610314610abd565b610314610ac3565b610344610ac9565b610387610ad8565b610344610b23565b610344610b29565b610314610b38565b610344610b3e565b610387610b52565b61038761041f36600461256c565b610b84565b610314610caa565b610314610cb0565b610344610cb6565b610314610cc5565b6103446104523660046124ec565b610ccb565b6103146104653660046124ec565b610cdb565b610314610f1f565b610387610f25565b6103446104883660046124ec565b611255565b610344611265565b6103876104a33660046123eb565b611274565b6103876112f7565b610344611700565b61034461170f565b61034461171e565b610314611732565b6103876104de3660046123eb565b611738565b6103146117a9565b60135460ff1681565b600a5481565b6017546018546040516393f1a40b60e01b815260009283926001600160a01b03909116916393f1a40b91610532913090600401612ade565b604080518083038186803b15801561054957600080fd5b505afa15801561055d573d6000803e3d6000fd5b505050506040513d601f19601f82011682018060405250810190610581919061251c565b509150505b90565b600e5481565b6011818154811061059f57600080fd5b6000918252602090912001546001600160a01b0316905081565b60006105c36119a6565b6001600160a01b03166105d4610cb6565b6001600160a01b0316146106035760405162461bcd60e51b81526004016105fa9061292d565b60405180910390fd5b600260015414156106265760405162461bcd60e51b81526004016105fa90612a0a565b6002600155816106485760405162461bcd60e51b81526004016105fa90612962565b6000610652610986565b6002546040516370a0823160e01b81529192506000916101009091046001600160a01b0316906370a082319061068c903090600401612605565b60206040518083038186803b1580156106a457600080fd5b505afa1580156106b8573d6000803e3d6000fd5b505050506040513d601f19601f820116820180604052508101906106dc9190612504565b90508084111561077f576106f86106f38286612bd2565b6119aa565b6002546040516370a0823160e01b81526101009091046001600160a01b0316906370a082319061072c903090600401612605565b60206040518083038186803b15801561074457600080fd5b505afa158015610758573d6000803e3d6000fd5b505050506040513d601f19601f8201168201806040525081019061077c9190612504565b90505b838181111561078b5750805b600083600b548761079c9190612bb3565b6107a69190612b93565b9050600b548111156107b75750600b545b80600b546107c59190612bd2565b600b55600f54600090612710906107dc9082612bd2565b6107e69085612bb3565b6107f09190612b93565b905080156108275760065460025461081a916001600160a01b036101009092048216911683611a12565b6108248184612bd2565b92505b600854600254610849916001600160a01b036101009092048216911685611a12565b506001805595945050505050565b6012818154811061059f57600080fd5b6008546001600160a01b031681565b6009546001600160a01b031633146108a05760405162461bcd60e51b81526004016105fa906127e2565b6108a8611a31565b60405133907f07a306d96c243284946e55743fe8bc35109c65f66d9e27955810577aac4828d690600090a2565b6009546001600160a01b031633146108ff5760405162461bcd60e51b81526004016105fa906127e2565b60135460ff16156109225760405162461bcd60e51b81526004016105fa906128eb565b61092a611b39565b610932611a31565b61093a611ba7565b5060405133907fcd362254255a88720afce533b7c0def89b2fa7145e7cbd1fafac32da507ca00b90600090a2565b6017546001600160a01b031681565b6007546001600160a01b031681565b60006109906104fa565b6002546040516370a0823160e01b81526101009091046001600160a01b0316906370a08231906109c4903090600401612605565b60206040518083038186803b1580156109dc57600080fd5b505afa1580156109f0573d6000803e3d6000fd5b505050506040513d601f19601f82011682018060405250810190610a149190612504565b610a1e9190612b7b565b905090565b600b5481565b6009546001600160a01b031681565b6009546001600160a01b03163314610a625760405162461bcd60e51b81526004016105fa906127e2565b6013805460ff19166001179055610a77611c74565b610a7f611ccf565b610a87611d51565b60405133907fa0281c9359a6afac738fb86a45f94a2482ed1f0bfbdf7ce5ef88046acf47160c90600090a2565b60025460ff1690565b61271081565b600f5481565b6004546001600160a01b031681565b610ae06119a6565b6001600160a01b0316610af1610cb6565b6001600160a01b031614610b175760405162461bcd60e51b81526004016105fa9061292d565b610b216000611db0565b565b61dead81565b6006546001600160a01b031681565b600d5481565b60135461010090046001600160a01b031681565b6009546001600160a01b03163314610b7c5760405162461bcd60e51b81526004016105fa906127e2565b610b21611c74565b6009546001600160a01b03163314610bae5760405162461bcd60e51b81526004016105fa906127e2565b6103e883610bbc8688612b7b565b610bc69190612b7b565b1115610be45760405162461bcd60e51b81526004016105fa90612a9e565b6126ac821015610c065760405162461bcd60e51b81526004016105fa90612765565b612710821115610c285760405162461bcd60e51b81526004016105fa9061272e565b6103e3811115610c4a5760405162461bcd60e51b81526004016105fa90612800565b600c859055600d849055600e839055600f82905560108190556040517fc67e0b149a57a70fa44a531a46c2c6d8e0b242fa12f459f250012c3a5987d29a90610c9b9087908790879087908790612b58565b60405180910390a15050505050565b600c5481565b6126ac81565b6000546001600160a01b031690565b6103e881565b6016818154811061059f57600080fd5b6000610ce56119a6565b6001600160a01b0316610cf6610cb6565b6001600160a01b031614610d1c5760405162461bcd60e51b81526004016105fa9061292d565b60026001541415610d3f5760405162461bcd60e51b81526004016105fa90612a0a565b6002600155610d4c610ab4565b15610d695760405162461bcd60e51b81526004016105fa906128b4565b6000610d73610986565b6002546040516370a0823160e01b81529192506000916101009091046001600160a01b0316906370a0823190610dad903090600401612605565b60206040518083038186803b158015610dc557600080fd5b505afa158015610dd9573d6000803e3d6000fd5b505050506040513d601f19601f82011682018060405250810190610dfd9190612504565b600254909150610e1d9061010090046001600160a01b0316333087611e0d565b6002546040516370a0823160e01b8152829161010090046001600160a01b0316906370a0823190610e52903090600401612605565b60206040518083038186803b158015610e6a57600080fd5b505afa158015610e7e573d6000803e3d6000fd5b505050506040513d601f19601f82011682018060405250810190610ea29190612504565b610eac9190612bd2565b935060008411610ece5760405162461bcd60e51b81526004016105fa90612837565b6000610ed8611ba7565b600b54909150819015610f015783600b5483610ef49190612bb3565b610efe9190612b93565b90505b80600b54610f0f9190612b7b565b600b556001805595945050505050565b6103e381565b60026001541415610f485760405162461bcd60e51b81526004016105fa90612a0a565b6002600155610f55610ab4565b15610f725760405162461bcd60e51b81526004016105fa906128b4565b6013546040516370a0823160e01b815260009161010090046001600160a01b0316906370a0823190610fa8903090600401612605565b60206040518083038186803b158015610fc057600080fd5b505afa158015610fd4573d6000803e3d6000fd5b505050506040513d601f19601f82011682018060405250810190610ff89190612504565b9050600081118015611020575060035460135461010090046001600160a01b03908116911614155b156110e957604080516002808252606082018352600092602083019080368337019050509050601360019054906101000a90046001600160a01b03168160008151811061107d57634e487b7160e01b600052603260045260246000fd5b6001600160a01b0392831660209182029290920101526003548251911690829060019081106110bc57634e487b7160e01b600052603260045260246000fd5b60200260200101906001600160a01b031690816001600160a01b0316815250506110e7828230611e2e565b505b6014546040516370a0823160e01b81526000916001600160a01b0316906370a082319061111a903090600401612605565b60206040518083038186803b15801561113257600080fd5b505afa158015611146573d6000803e3d6000fd5b505050506040513d601f19601f8201168201806040525081019061116a9190612504565b905060008111801561118d57506003546014546001600160a01b03908116911614155b1561124d57604080516002808252606082018352600092602083019080368337505060145482519293506001600160a01b0316918391506000906111e157634e487b7160e01b600052603260045260246000fd5b6001600160a01b03928316602091820292909201015260035482519116908290600190811061122057634e487b7160e01b600052603260045260246000fd5b60200260200101906001600160a01b031690816001600160a01b03168152505061124b828230611e2e565b505b505060018055565b6015818154811061059f57600080fd5b6005546001600160a01b031681565b6009546001600160a01b0316331461129e5760405162461bcd60e51b81526004016105fa906127e2565b6009805473ffffffffffffffffffffffffffffffffffffffff19166001600160a01b03831690811790915560405133907f53351836099c03ffc3b1727d8abd4b0222afa87d4ed76ae3102d51369ef7f78590600090a350565b6002600154141561131a5760405162461bcd60e51b81526004016105fa90612a0a565b6002600155611327610ab4565b156113445760405162461bcd60e51b81526004016105fa906128b4565b6009546001600160a01b0316331461136e5760405162461bcd60e51b81526004016105fa906127e2565b611376611f87565b6003546040516370a0823160e01b81526000916001600160a01b0316906370a08231906113a7903090600401612605565b60206040518083038186803b1580156113bf57600080fd5b505afa1580156113d3573d6000803e3d6000fd5b505050506040513d601f19601f820116820180604052508101906113f79190612504565b905080156116f95761140881611fbb565b90506114138161206d565b60135460035491925061010090046001600160a01b039081169116146114a2576114a2611441600283612b93565b601580548060200260200160405190810160405280929190818152602001828054801561149757602002820191906000526020600020905b81546001600160a01b03168152600190910190602001808311611479575b505050505030611e2e565b6014546003546001600160a01b03908116911614611527576115276114c8600283612b93565b6016805480602002602001604051908101604052809291908181526020018280548015611497576020028201919060005260206000209081546001600160a01b0316815260019091019060200180831161147957505050505030611e2e565b6013546040516370a0823160e01b815260009161010090046001600160a01b0316906370a082319061155d903090600401612605565b60206040518083038186803b15801561157557600080fd5b505afa158015611589573d6000803e3d6000fd5b505050506040513d601f19601f820116820180604052508101906115ad9190612504565b6014546040516370a0823160e01b81529192506000916001600160a01b03909116906370a08231906115e3903090600401612605565b60206040518083038186803b1580156115fb57600080fd5b505afa15801561160f573d6000803e3d6000fd5b505050506040513d601f19601f820116820180604052508101906116339190612504565b90506000821180156116455750600081115b156116e9576004805460135460145460405162e8e33760e81b81526001600160a01b039384169463e8e337009461169394610100900481169316918891889160009182913091429101612657565b606060405180830381600087803b1580156116ad57600080fd5b505af11580156116c1573d6000803e3d6000fd5b505050506040513d601f19601f820116820180604052508101906116e5919061253f565b5050505b43600a556116f5611ba7565b5050505b5060018055565b6014546001600160a01b031681565b6003546001600160a01b031681565b60025461010090046001600160a01b031681565b60185481565b6117406119a6565b6001600160a01b0316611751610cb6565b6001600160a01b0316146117775760405162461bcd60e51b81526004016105fa9061292d565b6001600160a01b03811661179d5760405162461bcd60e51b81526004016105fa9061279c565b6117a681611db0565b50565b60105481565b8015806118375750604051636eb1769f60e11b81526001600160a01b0384169063dd62ed3e906117e59030908690600401612619565b60206040518083038186803b1580156117fd57600080fd5b505afa158015611811573d6000803e3d6000fd5b505050506040513d601f19601f820116820180604052508101906118359190612504565b155b6118535760405162461bcd60e51b81526004016105fa90612a41565b6118d68363095ea7b360e01b84846040516024016118729291906126a0565b60408051601f198184030181529190526020810180517bffffffffffffffffffffffffffffffffffffffffffffffffffffffff167fffffffff0000000000000000000000000000000000000000000000000000000090931692909217909152612137565b505050565b600081846001600160a01b031663dd62ed3e30866040518363ffffffff1660e01b815260040161190c929190612619565b60206040518083038186803b15801561192457600080fd5b505afa158015611938573d6000803e3d6000fd5b505050506040513d601f19601f8201168201806040525081019061195c9190612504565b6119669190612b7b565b90506119878463095ea7b360e01b85846040516024016118729291906126a0565b50505050565b606061199c84846000856121c6565b90505b9392505050565b3390565b601754601854604051630441a3e760e41b81526001600160a01b039092169163441a3e70916119dd918590600401612b0e565b600060405180830381600087803b1580156119f757600080fd5b505af1158015611a0b573d6000803e3d6000fd5b5050505050565b6118d68363a9059cbb60e01b84846040516024016118729291906126a0565b601754600254611a54916001600160a01b036101009092048216911660006117af565b601754600254611a78916001600160a01b03610100909204821691166000196118db565b600454600354611a96916001600160a01b03918216911660006117af565b600454600354611ab5916001600160a01b0391821691166000196118db565b600454601354611ad8916001600160a01b036101009092048216911660006117af565b600454601354611afc916001600160a01b03610100909204821691166000196118db565b600454601454611b1a916001600160a01b03918216911660006117af565b600454601454610b21916001600160a01b0391821691166000196118db565b611b41610ab4565b611b5d5760405162461bcd60e51b81526004016105fa906126f7565b6002805460ff191690557f5db9ee0a495bf2e6ff9c91a7834c1ba4fdd244a5e8aa4e537bd38aeae4b073aa611b906119a6565b604051611b9d9190612605565b60405180910390a1565b6002546040516370a0823160e01b815260009182916101009091046001600160a01b0316906370a0823190611be0903090600401612605565b60206040518083038186803b158015611bf857600080fd5b505afa158015611c0c573d6000803e3d6000fd5b505050506040513d601f19601f82011682018060405250810190611c309190612504565b905080611c41576000915050610586565b6000611c4b6104fa565b9050611c5682612286565b6000611c606104fa565b9050611c6c8282612bd2565b935050505090565b611c7c610ab4565b15611c995760405162461bcd60e51b81526004016105fa906128b4565b6002805460ff191660011790557f62e78cea01bee320cd4e420270b5ea74000d11b0c9f74754ebdbfc544b05a258611b906119a6565b601754600254611cf2916001600160a01b036101009092048216911660006117af565b600454600354611d10916001600160a01b03918216911660006117af565b600454601354611d33916001600160a01b036101009092048216911660006117af565b600454601454610b21916001600160a01b03918216911660006117af565b601754601854604051632989754760e11b81526001600160a01b0390921691635312ea8e91611d8291600401612ad5565b600060405180830381600087803b158015611d9c57600080fd5b505af1158015611987573d6000803e3d6000fd5b600080546001600160a01b0383811673ffffffffffffffffffffffffffffffffffffffff19831681178455604051919092169283917f8be0079c531659141344cd1fd0a4f28419497f9722a3daafe3b4186f6b6457e09190a35050565b611987846323b872dd60e01b85858560405160240161187293929190612633565b82156118d6576004805460405163d06ca61f60e01b81526000926001600160a01b039092169163d06ca61f91611e68918891889101612af5565b60006040518083038186803b158015611e8057600080fd5b505afa158015611e94573d6000803e3d6000fd5b505050506040513d6000823e601f3d908101601f19168201604052611ebc9190810190612412565b905060008160018351611ecf9190612bd2565b81518110611eed57634e487b7160e01b600052603260045260246000fd5b60209081029190910101516004546010549192506001600160a01b031690635c11d7959087906103e890611f219086612bb3565b611f2b9190612b93565b8787426040518663ffffffff1660e01b8152600401611f4e959493929190612b1c565b600060405180830381600087803b158015611f6857600080fd5b505af1158015611f7c573d6000803e3d6000fd5b505050505050505050565b601754601854604051630441a3e760e41b81526001600160a01b039092169163441a3e7091611d8291600090600401612b0e565b600c5460009015612065576000612710600c5484611fd99190612bb3565b611fe39190612b93565b905061205781601180548060200260200160405190810160405280929190818152602001828054801561203f57602002820191906000526020600020905b81546001600160a01b03168152600190910190602001808311612021575b50506007546001600160a01b031692506122b9915050565b6120618184612bd2565b9250505b50805b919050565b6005546003546000916001600160a01b0391821691161415612090575080612068565b600e5415612065576000612710600e54846120ab9190612bb3565b6120b59190612b93565b6005546003549192506001600160a01b039182169116146120575761205781601280548060200260200160405190810160405280929190818152602001828054801561212a57602002820191906000526020600020905b81546001600160a01b0316815260019091019060200180831161210c575b505050505061dead611e2e565b600061218c826040518060400160405280602081526020017f5361666545524332303a206c6f772d6c6576656c2063616c6c206661696c6564815250856001600160a01b031661198d9092919063ffffffff16565b8051909150156118d657808060200190518101906121aa91906124cc565b6118d65760405162461bcd60e51b81526004016105fa906129c0565b6060824710156121e85760405162461bcd60e51b81526004016105fa9061286e565b6121f1856123ac565b61220d5760405162461bcd60e51b81526004016105fa90612989565b600080866001600160a01b0316858760405161222991906125e9565b60006040518083038185875af1925050503d8060008114612266576040519150601f19603f3d011682016040523d82523d6000602084013e61226b565b606091505b509150915061227b8282866123b2565b979650505050505050565b601754601854604051631c57762b60e31b81526001600160a01b039092169163e2bbb158916119dd918590600401612b0e565b82156118d6576004805460405163d06ca61f60e01b81526000926001600160a01b039092169163d06ca61f916122f3918891889101612af5565b60006040518083038186803b15801561230b57600080fd5b505afa15801561231f573d6000803e3d6000fd5b505050506040513d6000823e601f3d908101601f191682016040526123479190810190612412565b90506000816001835161235a9190612bd2565b8151811061237857634e487b7160e01b600052603260045260246000fd5b60209081029190910101516004546010549192506001600160a01b03169063791ac9479087906103e890611f219086612bb3565b3b151590565b606083156123c157508161199f565b8251156123d15782518084602001fd5b8160405162461bcd60e51b81526004016105fa91906126c4565b6000602082840312156123fc578081fd5b81356001600160a01b038116811461199f578182fd5b60006020808385031215612424578182fd5b825167ffffffffffffffff8082111561243b578384fd5b818501915085601f83011261244e578384fd5b81518181111561246057612460612c2b565b8381026040518582820101818110858211171561247f5761247f612c2b565b604052828152858101935084860182860187018a101561249d578788fd5b8795505b838610156124bf5780518552600195909501949386019386016124a1565b5098975050505050505050565b6000602082840312156124dd578081fd5b8151801515811461199f578182fd5b6000602082840312156124fd578081fd5b5035919050565b600060208284031215612515578081fd5b5051919050565b6000806040838503121561252e578081fd5b505080516020909101519092909150565b600080600060608486031215612553578081fd5b8351925060208401519150604084015190509250925092565b600080600080600060a08688031215612583578081fd5b505083359560208501359550604085013594606081013594506080013592509050565b6000815180845260208085019450808401835b838110156125de5781516001600160a01b0316875295820195908201906001016125b9565b509495945050505050565b600082516125fb818460208701612be9565b9190910192915050565b6001600160a01b0391909116815260200190565b6001600160a01b0392831681529116602082015260400190565b6001600160a01b039384168152919092166020820152604081019190915260600190565b6001600160a01b039889168152968816602088015260408701959095526060860193909352608085019190915260a084015290921660c082015260e08101919091526101000190565b6001600160a01b03929092168252602082015260400190565b901515815260200190565b60006020825282518060208401526126e3816040850160208701612be9565b601f01601f19169190910160400192915050565b60208082526014908201527f5061757361626c653a206e6f7420706175736564000000000000000000000000604082015260600190565b6020808252601b908201527f5f7769746864726177466565466163746f7220746f6f20686967680000000000604082015260600190565b6020808252601a908201527f5f7769746864726177466565466163746f7220746f6f206c6f77000000000000604082015260600190565b60208082526026908201527f4f776e61626c653a206e6577206f776e657220697320746865207a65726f206160408201526564647265737360d01b606082015260800190565b60208082526004908201526310b3b7bb60e11b604082015260600190565b60208082526018908201527f5f736c697070616765466163746f7220746f6f20686967680000000000000000604082015260600190565b60208082526019908201527f5765206f6e6c792061636365707420616d6f756e74203e203000000000000000604082015260600190565b60208082526026908201527f416464726573733a20696e73756666696369656e742062616c616e636520666f6040820152651c8818d85b1b60d21b606082015260800190565b60208082526010908201527f5061757361626c653a2070617573656400000000000000000000000000000000604082015260600190565b60208082526022908201527f63616e6e6f7420756e706175736520612070616e69636b656420737472617465604082015261677960f01b606082015260800190565b6020808252818101527f4f776e61626c653a2063616c6c6572206973206e6f7420746865206f776e6572604082015260600190565b6020808252600d908201526c05f77616e74416d74206973203609c1b604082015260600190565b6020808252601d908201527f416464726573733a2063616c6c20746f206e6f6e2d636f6e7472616374000000604082015260600190565b6020808252602a908201527f5361666545524332303a204552433230206f7065726174696f6e20646964206e6040820152691bdd081cdd58d8d9595960b21b606082015260800190565b6020808252601f908201527f5265656e7472616e637947756172643a207265656e7472616e742063616c6c00604082015260600190565b60208082526036908201527f5361666545524332303a20617070726f76652066726f6d206e6f6e2d7a65726f60408201527f20746f206e6f6e2d7a65726f20616c6c6f77616e636500000000000000000000606082015260800190565b6020808252600e908201527f4d617820666565206f6620313025000000000000000000000000000000000000604082015260600190565b90815260200190565b9182526001600160a01b0316602082015260400190565b60008382526040602083015261199c60408301846125a6565b918252602082015260400190565b600086825285602083015260a06040830152612b3b60a08301866125a6565b6001600160a01b0394909416606083015250608001529392505050565b948552602085019390935260408401919091526060830152608082015260a00190565b60008219821115612b8e57612b8e612c15565b500190565b600082612bae57634e487b7160e01b81526012600452602481fd5b500490565b6000816000190483118215151615612bcd57612bcd612c15565b500290565b600082821015612be457612be4612c15565b500390565b60005b83811015612c04578181015183820152602001612bec565b838111156119875750506000910152565b634e487b7160e01b600052601160045260246000fd5b634e487b7160e01b600052604160045260246000fdfea26469706673582212206b1cda7921b09a2f742d424b0e4e42e8dfc1894ceef27a9fe86751619ef9a55064736f6c63430008000033",
  "devdoc": {
    "kind": "dev",
    "methods": {
      "owner()": {
        "details": "Returns the address of the current owner."
      },
      "paused()": {
        "details": "Returns true if the contract is paused, and false otherwise."
      },
      "renounceOwnership()": {
        "details": "Leaves the contract without owner. It will not be possible to call `onlyOwner` functions anymore. Can only be called by the current owner. NOTE: Renouncing ownership will leave the contract without an owner, thereby removing any functionality that is only available to the owner."
      },
      "transferOwnership(address)": {
        "details": "Transfers ownership of the contract to a new account (`newOwner`). Can only be called by the current owner."
      }
    },
    "version": 1
  },
  "userdoc": {
    "kind": "user",
    "methods": {},
    "version": 1
  },
  "storageLayout": {
    "storage": [
      {
        "astId": 7,
        "contract": "contracts/vault/StrategyMasterChefLP.sol:StrategyMasterChefLP",
        "label": "_owner",
        "offset": 0,
        "slot": "0",
        "type": "t_address"
      },
      {
        "astId": 206,
        "contract": "contracts/vault/StrategyMasterChefLP.sol:StrategyMasterChefLP",
        "label": "_status",
        "offset": 0,
        "slot": "1",
        "type": "t_uint256"
      },
      {
        "astId": 121,
        "contract": "contracts/vault/StrategyMasterChefLP.sol:StrategyMasterChefLP",
        "label": "_paused",
        "offset": 0,
        "slot": "2",
        "type": "t_bool"
      },
      {
        "astId": 10185,
        "contract": "contracts/vault/StrategyMasterChefLP.sol:StrategyMasterChefLP",
        "label": "wantAddress",
        "offset": 1,
        "slot": "2",
        "type": "t_address"
      },
      {
        "astId": 10187,
        "contract": "contracts/vault/StrategyMasterChefLP.sol:StrategyMasterChefLP",
        "label": "earnedAddress",
        "offset": 0,
        "slot": "3",
        "type": "t_address"
      },
      {
        "astId": 10189,
        "contract": "contracts/vault/StrategyMasterChefLP.sol:StrategyMasterChefLP",
        "label": "uniRouterAddress",
        "offset": 0,
        "slot": "4",
        "type": "t_address"
      },
      {
        "astId": 10191,
        "contract": "contracts/vault/StrategyMasterChefLP.sol:StrategyMasterChefLP",
        "label": "dcauAddress",
        "offset": 0,
        "slot": "5",
        "type": "t_address"
      },
      {
        "astId": 10193,
        "contract": "contracts/vault/StrategyMasterChefLP.sol:StrategyMasterChefLP",
        "label": "withdrawFeeAddress",
        "offset": 0,
        "slot": "6",
        "type": "t_address"
      },
      {
        "astId": 10195,
        "contract": "contracts/vault/StrategyMasterChefLP.sol:StrategyMasterChefLP",
        "label": "feeAddress",
        "offset": 0,
        "slot": "7",
        "type": "t_address"
      },
      {
        "astId": 10197,
        "contract": "contracts/vault/StrategyMasterChefLP.sol:StrategyMasterChefLP",
        "label": "vaultChefAddress",
        "offset": 0,
        "slot": "8",
        "type": "t_address"
      },
      {
        "astId": 10199,
        "contract": "contracts/vault/StrategyMasterChefLP.sol:StrategyMasterChefLP",
        "label": "govAddress",
        "offset": 0,
        "slot": "9",
        "type": "t_address"
      },
      {
        "astId": 10203,
        "contract": "contracts/vault/StrategyMasterChefLP.sol:StrategyMasterChefLP",
        "label": "lastEarnBlock",
        "offset": 0,
        "slot": "10",
        "type": "t_uint256"
      },
      {
        "astId": 10205,
        "contract": "contracts/vault/StrategyMasterChefLP.sol:StrategyMasterChefLP",
        "label": "sharesTotal",
        "offset": 0,
        "slot": "11",
        "type": "t_uint256"
      },
      {
        "astId": 10211,
        "contract": "contracts/vault/StrategyMasterChefLP.sol:StrategyMasterChefLP",
        "label": "controllerFee",
        "offset": 0,
        "slot": "12",
        "type": "t_uint256"
      },
      {
        "astId": 10213,
        "contract": "contracts/vault/StrategyMasterChefLP.sol:StrategyMasterChefLP",
        "label": "rewardRate",
        "offset": 0,
        "slot": "13",
        "type": "t_uint256"
      },
      {
        "astId": 10216,
        "contract": "contracts/vault/StrategyMasterChefLP.sol:StrategyMasterChefLP",
        "label": "buyBackRate",
        "offset": 0,
        "slot": "14",
        "type": "t_uint256"
      },
      {
        "astId": 10225,
        "contract": "contracts/vault/StrategyMasterChefLP.sol:StrategyMasterChefLP",
        "label": "withdrawFeeFactor",
        "offset": 0,
        "slot": "15",
        "type": "t_uint256"
      },
      {
        "astId": 10234,
        "contract": "contracts/vault/StrategyMasterChefLP.sol:StrategyMasterChefLP",
        "label": "slippageFactor",
        "offset": 0,
        "slot": "16",
        "type": "t_uint256"
      },
      {
        "astId": 10240,
        "contract": "contracts/vault/StrategyMasterChefLP.sol:StrategyMasterChefLP",
        "label": "earnedToWmaticPath",
        "offset": 0,
        "slot": "17",
        "type": "t_array(t_address)dyn_storage"
      },
      {
        "astId": 10243,
        "contract": "contracts/vault/StrategyMasterChefLP.sol:StrategyMasterChefLP",
        "label": "earnedToDcauPath",
        "offset": 0,
        "slot": "18",
        "type": "t_array(t_address)dyn_storage"
      },
      {
        "astId": 10246,
        "contract": "contracts/vault/StrategyMasterChefLP.sol:StrategyMasterChefLP",
        "label": "HasPanicked",
        "offset": 0,
        "slot": "19",
        "type": "t_bool"
      },
      {
        "astId": 10971,
        "contract": "contracts/vault/StrategyMasterChefLP.sol:StrategyMasterChefLP",
        "label": "token0Address",
        "offset": 1,
        "slot": "19",
        "type": "t_address"
      },
      {
        "astId": 10973,
        "contract": "contracts/vault/StrategyMasterChefLP.sol:StrategyMasterChefLP",
        "label": "token1Address",
        "offset": 0,
        "slot": "20",
        "type": "t_address"
      },
      {
        "astId": 11100,
        "contract": "contracts/vault/StrategyMasterChefLP.sol:StrategyMasterChefLP",
        "label": "earnedToToken0Path",
        "offset": 0,
        "slot": "21",
        "type": "t_array(t_address)dyn_storage"
      },
      {
        "astId": 11103,
        "contract": "contracts/vault/StrategyMasterChefLP.sol:StrategyMasterChefLP",
        "label": "earnedToToken1Path",
        "offset": 0,
        "slot": "22",
        "type": "t_array(t_address)dyn_storage"
      },
      {
        "astId": 11721,
        "contract": "contracts/vault/StrategyMasterChefLP.sol:StrategyMasterChefLP",
        "label": "masterchefAddress",
        "offset": 0,
        "slot": "23",
        "type": "t_address"
      },
      {
        "astId": 11723,
        "contract": "contracts/vault/StrategyMasterChefLP.sol:StrategyMasterChefLP",
        "label": "pid",
        "offset": 0,
        "slot": "24",
        "type": "t_uint256"
      }
    ],
    "types": {
      "t_address": {
        "encoding": "inplace",
        "label": "address",
        "numberOfBytes": "20"
      },
      "t_array(t_address)dyn_storage": {
        "base": "t_address",
        "encoding": "dynamic_array",
        "label": "address[]",
        "numberOfBytes": "32"
      },
      "t_bool": {
        "encoding": "inplace",
        "label": "bool",
        "numberOfBytes": "1"
      },
      "t_uint256": {
        "encoding": "inplace",
        "label": "uint256",
        "numberOfBytes": "32"
      }
    }
  }
}